:0400000074EF00F0A9
:10000800FACF1AF0FBCF1BF0E9CF1CF0EBED00F0B4
:10001800D8CF05F0E8CF06F0E0CF07F0FACF08F028
:10002800FBCF09F0E9CF0AF0EACF0BF0E1CF0CF0F3
:10003800E2CF0DF0D9CF0EF0DACF0FF0F3CF10F0FA
:10004800F4CF11F0F6CF12F0F7CF13F0F8CF14F089
:10005800F5CF15F0F0B0F090F0B2F0929EAC1DD054
:100068009E9C050E2E6015D067EC01F02E50020DF7
:10007800F3503924D96EF4503A20DA6E01C0DEFF0D
:1000880002C0DDFF2E2A2E5076EC00F075EC01F050
:1000980004D0010E2D6E9D9C00D015C0F5FF14C034
:1000A800F8FF13C0F7FF12C0F6FF11C0F4FF10C02D
:1000B800F3FF0FC0DAFF0EC0D9FF0DC0E2FF0CC07E
:1000C800E1FF0BC0EAFF0AC0E9FF09C0FBFF08C057
:1000D800FAFF07C0E0FF06C0E8FF05C0D8FF100020
:1000E8004CEF01F0036E40D0870E41EC01F06ED06A
:1000F8008F0E41EC01F06AD0970E41EC01F066D00A
:100108009F0E41EC01F062D0A70E41EC01F05ED0E9
:10011800AF0E41EC01F05AD0B70E41EC01F056D0C9
:10012800BF0E41EC01F052D0C70E41EC01F04ED0A9
:10013800CF0E41EC01F04AD0D70E41EC01F046D089
:10014800DF0E41EC01F042D0E70E41EC01F03ED069
:10015800EF0E41EC01F03AD0F70E41EC01F036D049
:10016800FF0E41EC01F032D00350000AD8B4BCD7DE
:10017800010AD8B4BDD7030AD8B4BED7010AD8B487
:10018800BFD7070AD8B4C0D7010AD8B4C1D7030A61
:10019800D8B4C2D7010AD8B4C3D70F0AD8B4C4D7C1
:1001A800010AD8B4C5D7030AD8B4C6D7010AD8B447
:1001B800C7D7070AD8B4C8D7010AD8B4C9D7030A19
:1001C800D8B4CAD7010AD8B4CBD700D012000600D9
:1001D800EACF1DF0E1CF1EF0E2CF1FF0D9CF20F01B
:1001E800DACF21F0F3CF22F0F4CF23F0F6CF24F0CA
:1001F800F7CF25F0F8CF26F0F5CF27F0F2A40AD0F4
:10020800F2942A4A2B2AF60E176E3C0E166E5EECF6
:1002180001F000D0F2A014D0F29681A808D0CD80C9
:10022800000E176E000E166E55EC01F000D081B866
:1002380004D0CD90010E2C6E00D0F286F29000D042
:1002480027C0F5FF26C0F8FF25C0F7FF24C0F6FF3A
:1002580023C0F4FF22C0F3FF21C0DAFF20C0D9FF7A
:100268001FC0E2FF1EC0E1FF1DC0EAFF1CC0E9FF7E
:100278001BC0FBFF1AC0FAFF1100026EC2CF01F0CB
:10028800C30E0116D89002303C0B0110C26E12004A
:1002980000EE28F0110EEE6AE806FDE100016FEFAE
:1002A80001F016C018F017C019F019C0CFFF18C018
:1002B800CEFF120016C018F017C019F019C0D7FFEA
:1002C80018C0D6FF1200C450036EC350016E03C09D
:1002D80002F000D012002F0E396E000E3A6E74EF45
:0602E80000F0C2821200CA
:020000040020DA
:08000000FFFFFFFFFFFFFFFF00
:020000040030CA
:0E000000FF02011EF38180FFFFC0FFE0FF4002
:00000001FF
