:0400000070EF00F0AD
:10000800FACF1AF0FBCF1BF0E9CF1CF08AED14F001
:10001800D8CF05F0E8CF06F0E0CF07F0FACF08F028
:10002800FBCF09F0E9CF0AF0EACF0BF0E1CF0CF0F3
:10003800E2CF0DF0D9CF0EF0DACF0FF0F3CF10F0FA
:10004800F4CF11F0F6CF12F0F7CF13F0F8CF14F089
:10005800F5CF15F09EAC1DD09E9C050E416015D0C5
:100068006FEC18F04150020D280EF324D96E000EE3
:10007800F420DA6E01C0DEFF02C0DDFF412A4150E4
:1000880017EC12F0BFEC18F004D0010E406E9D9CE6
:1000980000D015C0F5FF14C0F8FF13C0F7FF12C059
:1000A800F6FF11C0F4FF10C0F3FF0FC0DAFF0EC057
:1000B800D9FF0DC0E2FF0CC0E1FF0BC0EAFF0AC088
:1000C800E9FF09C0FBFF08C0FAFF07C0E0FF06C050
:0C00D800E8FF05C0D8FF100084EF17F00F
:101000000000803F72313FFE753E58633D951D3CA8
:10101000C5AE3A79213994803793A73556153400F7
:10102000000000803FF0FFBEE2A93E8376BEAE2BFB
:101030003E3CC3BDD2133D78D3BB0000BD0E0001C2
:10104000BB6F000E0001BC6F760E0001646F600E76
:101050000001656F3C0E0001666F2F0E0001676F87
:101060005D0E0001686F3D0E0001696F10EC17F016
:10107000BEEC17F0B1EC17F0E3EC17F0D7EC17F07B
:10108000A4EC18F08CEC18F004EC18F0AEEC18F0AE
:10109000000E3E6E000E0001D76F000ED66F000EE0
:1010A0000001D36F000ED26F000E916ECBEC17F0E3
:1010B00013D042EC15F00A0E93EC17F09AEC18F0EE
:1010C0000001615105E1640E0001605DD8A004D00B
:1010D0009170CBEC17F000D081A2EBD726EC17F083
:1010E000CBEC17F006D0B0EC15F00A0E93EC17F02D
:1010F00000D081B210D0F7D70ED09AEC18F00001D2
:10110000615105E1640E0001605DD8A004D09170CA
:10111000CBEC17F000D081A2F0D726EC17F0A8ECAA
:1011200018F0010E0001676FF40E666F7EEC18F088
:10113000010E0001676FF40E666F77EC18F0B9ECE2
:1011400018F0ABEC18F018EC18F000D0EEEC17F03B
:1011500000D05FEC18F00009D8A4FBD707EC15F01D
:10116000A0EC11F0A6EC13F00001BD6FBBC060F065
:10117000BCC061F0F3EC12F060C0D6F061C0D7F0F3
:10118000D6C060F0D7C061F0000E0001636F0C0E96
:10119000626F90EC16F060C0D2F061C0D3F0D2C0A4
:1011A00068F0D3C069F07BEC15F0430E0001606F6E
:1011B000000E0001616FD8EC15F067EC18F0000923
:1011C000D8A477D09FEC18F0D10E0001605D040E1A
:1011D00000016159D8B06AD0BBEC18F00001D3AF60
:1011E00005D0B5EC18F0B3EC18F000D00001D3BF77
:1011F0000CD00001D35104E10001D205D8A005D0E4
:10120000B7EC18F0B1EC18F000D0010E0001676FD8
:10121000900E666F7EEC18F0010E0001676F900E65
:10122000666F77EC18F0B9EC18F0CBEC17F000D043
:101230009AEC18F00001615107E11E0E0001605D9B
:10124000D8B002D0F5D700D0000E0001BD6F19D084
:10125000EEEC17F000D05FEC18F00009D8A4FBD733
:1012600007EC15F0A0EC11F0A6EC13F00001BD6F37
:10127000430E0001606F000E0001616FD8EC15F0A5
:1012800000D00001BD510001D8B4E2D785EC18F0C0
:10129000BBEC18F0ABEC18F0B9EC18F0000E000144
:1012A000D76F000ED66F18EC18F003D018EC18F0BA
:1012B00000D0CBEC17F000D09AEC18F0000161518F
:1012C00007E1050E0001605DD8B002D0F5D700D06F
:1012D000000E916E3BD770EF00F07DC081F00001F1
:1012E000826B836B00017C350001813701E38281D1
:1012F000000181510001866F80C081F00001826B86
:10130000836B00017F350001813701E38281000199
:1013100081510001856F000186510001D8B411D0C0
:10132000000185510001865DD8B012D000018651C0
:101330000008000185250001816F180E00018165FC
:1013400007D07EC07BF07FC07CF080C07DF003D1F1
:10135000000185510001D8B411D00001865100016F
:10136000855DD8B012D000018551000800018625A6
:101370000001816F180E0001816507D07BC07BF0F2
:101380007CC07CF07DC07DF0E6D0060E0001846F4D
:1013900000017DAF03D00001848F00D0000180AF39
:1013A00002D00001848D00017C8FFF0E00017B17AD
:1013B000FF0E00017C17000E00017D1700017F8FDA
:1013C000FF0E00017E17FF0E00017F17000E0001C7
:1013D0008017000185510001865DD8B028D000013A
:1013E000D8907E377F37803700018507000186510E
:1013F00000018519D8B413D00001840784C081F09E
:10140000070E00018117D8B40AD0E9D708D000012F
:10141000D8907D337C337B330001862B00D00001D4
:10142000855100018619D8B430D0F1D72ED00001F3
:1014300086510001855DD8B028D00001D8907B3757
:101440007C377D3700018607000186510001851930
:10145000D8B413D00001840784C081F0070E0001C6
:101460008117D8B40AD0E9D708D00001D8908033CA
:101470007F337E330001852B00D0000185510001B0
:101480008619D8B402D0F1D700D0000184AF12D0B1
:10149000FF0E00017B1BFF0E00017C1BFF0E0001F5
:1014A0007D1B010E00017B27000E00017C23000E36
:1014B00000017D23000184AD13D0FF0E00017E1BCF
:1014C000FF0E00017F1BFF0E0001801B010E0001BB
:1014D0007E27000E00017F23000E0001802300D034
:1014E000000E0001846F00017B5100017E27000186
:1014F0007C5100017F2300017D5100018023000108
:1015000080AF16D0FF0E00017E1BFF0E00017F1B77
:10151000FF0E0001801B010E00017E27000E00015E
:101520007F23000E00018023010E0001846F00D094
:101530007EC060F07FC061F080C062F086C063F062
:1015400084C064F015EC0FF060C07BF061C07CF0EB
:1015500062C07DF000D0120000019C5100019D117D
:1015600000019E11D8A409D0000E00019C6F800ECE
:1015700000019D6F3F0E3DD002D1720E0001606FE1
:10158000310E0001616F440E0001626F9CC063F078
:101590009DC064F09EC065F08CEC12F00001D8B0E4
:1015A0000ED0000E0001D56F220ED46FFF0E000189
:1015B0009C6F7F0E00019D6F7F0E1BD0E0D09CC002
:1015C00060F09DC061F09EC062F0490E0001636F43
:1015D0003A0E0001646FC40E0001656F8CEC12F0CE
:1015E0000001D8B009D0000E0001D56F220ED46FD3
:1015F0009FD000019E6FC3D000019EAF02D0010EAC
:1016000001D0000E0001A46F0001A4510001D8B464
:101610000ED09CC060F09DC061F09EC062F0E0EC16
:1016200016F060C09CF061C09DF062C09EF09CC04E
:101630006CF09DC06DF09EC06EF0AA0E00016F6F41
:10164000B80E0001706F3F0E0001716F8DEC0CF051
:101650006CC09CF06DC09DF06EC09EF09CC094F07C
:101660009DC095F09EC096F030EC10F094C09FF0B5
:1016700095C0A0F096C0A1F09FC07BF0A0C07CF008
:10168000A1C07DF07CEC0EF07BC0A2F07CC0A3F08A
:101690009CC087F09DC088F09EC089F0A2C068F011
:1016A000A3C069F028EC16F068C08AF069C08BF01E
:1016B0006AC08CF000EC16F087C09CF088C09DF0EA
:1016C00089C09EF09CC087F09DC088F09EC089F0C4
:1016D000010E00018A6F100E00018B6F000E0001D9
:1016E0008D6F090E8C6FAEEC10F087C093F088C040
:1016F00094F089C095F0A2C096F0A3C097F0A5EC35
:101700000FF093C09CF094C09DF095C09EF0000136
:10171000A4510001D8B42DD000019C2912E17F0E04
:1017200000019D190EE17F0E00019E19D8A409D079
:10173000000E00019C6F000E00019D6F000E59D736
:101740001ED0000E0001686F800E0001696F3F0E11
:1017500000016A6F9CC06BF09DC06CF09EC06DF084
:101760003BEC0DF068C09CF069C09DF06AC09EF033
:1017700006D09CC09CF09DC09DF09EC09EF01200C3
:10178000000E0001B16F0001A5510001A61100017A
:10179000A711D8A416D0000E0001606F000E000142
:1017A000616F000E0001626FA8C063F0A9C064F011
:1017B000AAC065F08CEC12F00001D8A045D03FD053
:1017C000ABD00001A8510001A9110001AA11D8A4B1
:1017D00009D0000E0001A56F800E0001A66F3F0E1C
:1017E0003AD09AD00001A7AF4DD0A8C07BF0A9C0D5
:1017F0007CF0AAC07DF07CEC0EF07BC0B2F07CC027
:10180000B3F07DC0B4F07EC0B5F0B2C068F0B3C034
:1018100069F0B4C06AF0B5C06BF04AEC14F0000196
:10182000A851000168190BE10001A95100016919D3
:1018300006E10001AA5100016A19D8B40FD0000EC8
:101840000001D56F210ED46F000E0001A56F000EB0
:101850000001A66F000E0001A76F5ED00001B2511B
:10186000010B0001B16FA5C060F0A6C061F0A7C078
:1018700062F0E0EC16F060C0A5F061C0A6F062C0B6
:10188000A7F000D0A5C093F0A6C094F0A7C095F033
:10189000DCEC0DF093C0ABF094C0ACF095C0ADF0B3
:1018A000ABC06CF0ACC06DF0ADC06EF0A8C06FF016
:1018B000A9C070F0AAC071F08DEC0CF06CC0AEF055
:1018C0006DC0AFF06EC0B0F0AEC09CF0AFC09DF088
:1018D000B0C09EF0ACEC0AF09CC0A5F09DC0A6F094
:1018E0009EC0A7F00001B1510001D8B40FD0A5C02F
:1018F00060F0A6C061F0A7C062F0E0EC16F060C036
:10190000A5F061C0A6F062C0A7F006D0A5C0A5F002
:10191000A6C0A6F0A7C0A7F012006EC072F000012A
:10192000736B746B00016D350001723701E37381D5
:10193000000172510001756F00017551D8A402D0E9
:1019400014D098D071C072F00001736B746B0001F9
:1019500070350001723701E373810001725100019B
:101960007A6F00017A51D8A40AD0000E00016C6F82
:10197000000E00016D6F000E00016E6F7BD0000144
:101980007A517B0F000175276EC07AF0000171510A
:1019900000017A1B800E00017A1700016D8F000193
:1019A000708FFF0E00016F17FF0E00017017000E01
:1019B00000017117000E0001766F000E0001776FB5
:1019C000000E0001786F070E0001796F00D0000152
:1019D0006CA10DD000016F510001762700017051FC
:1019E00000017723000171510001782300D000012C
:1019F000D8906E336D336C330001D8906F377037E9
:101A000071370001792FE3D700D0090E0001796FFB
:101A100000D000016CA10DD000016F5100017627AC
:101A200000017051000177230001715100017823FA
:101A300000D00001D8906E336D336C330001D89024
:101A40007833773376330001792FE3D700D076C02F
:101A500060F077C061F078C062F075C063F07AC062
:101A600064F015EC0FF060C06CF061C06DF062C006
:101A70006EF000D012006AC06EF000016F6B706BE8
:101A80000001693500016E3701E36F8100016E517D
:101A90000001756F00017551D8A402D014D08BD00D
:101AA0006DC06EF000016F6B706B00016C35000152
:101AB0006E3701E36F8100016E510001766F000106
:101AC0007651D8A40AD0000E0001686F000E000104
:101AD000696F000E00016A6F6ED0000E0001726F18
:101AE000000E0001736F000E0001746F000176514B
:101AF000890F0001755F6AC076F000016D51000129
:101B0000761B800E000176170001698FFF0E000121
:101B10006817FF0E00016917000E00016A17000127
:101B20006C8FFF0E00016B17FF0E00016C17000E8B
:101B300000016D17180E0001716F00D00001D890E0
:101B400072377337743700016B510001685D000113
:101B50006C510001695900016D5100016A59D8A00A
:101B60000ED000016B510001685F00016C51000153
:101B7000695B00016D5100016A5B00017281000127
:101B8000D890683769376A370001712FD7D700D0EE
:101B900072C060F073C061F074C062F075C063F031
:101BA00076C064F015EC0FF060C068F061C069F0B9
:101BB00062C06AF000D01200000195AF06D0000E9E
:101BC0000001D56F210E0DD096D000019351000178
:101BD000941100019511D8A40FD0000E0001D56F0B
:101BE000220ED46F000E0001936F000E0001946F5F
:101BF000000E0001956F7FD0000E00016F6F000E88
:101C00000001706F400E0001716F960E0001636F4E
:101C1000000E0001646F93C060F094C061F095C045
:101C200062F04FEC13F060C06CF061C06DF062C008
:101C30006EF08DEC0CF06CC07BF06DC07CF06EC073
:101C40007DF0000E00017E6F800E00017F6FBF0EE1
:101C50000001806F6DEC09F07BC093F07CC094F0C4
:101C60007DC095F000019607D8A0970793C087F034
:101C700094C088F095C089F01F0E00018A6F100E85
:101C800000018B6F000E00018D6F080E8C6FAEECA3
:101C900010F087C093F088C094F089C095F0720E60
:101CA00000016F6F310E0001706F3F0E0001716F08
:101CB00096C068F097C069F028EC16F068C06CF028
:101CC00069C06DF06AC06EF08DEC0CF06CC07BF0FA
:101CD0006DC07CF06EC07DF093C07EF094C07FF04C
:101CE00095C080F06DEC09F07BC093F07CC094F05F
:101CF0007DC095F000D012007DC07FF00001806BA8
:101D0000816B00017C3500017F3701E38081000198
:101D10007F510001896F00018951D8A402D051D0B0
:101D200083D0170E00017F6F7BC080F07CC081F0F4
:101D30007DC082F000017F290001836F05D0000182
:101D4000D8908233813380330001832FF8D700018C
:101D500080510001846F00017C8FFF0E00017B1712
:101D6000FF0E00017C17000E00017D1700017B5162
:101D70000001856F00017C510001866F00017D51DB
:101D80000001876F0001886B8E0E0001895F0001E2
:101D900089AF13D000018951800A8F0FD8B003D0CA
:101DA00010D042D000D00001D890883387338633DA
:101DB00085330001893FF7D71FD0170E00018965D1
:101DC00014D0000E00017B6F000E7C6F000E7D6F43
:101DD000000E7E6F29D009D00001D8908537863754
:101DE000873788370001890700D000018951000139
:101DF000D8B402D0F1D700D0000184510001D8B48A
:101E00000AD00001881F871F861F856D000E86235C
:101E10008723882300D085C07BF086C07CF087C0F4
:101E20007DF088C07EF000D01200000163510001F7
:101E3000D8B408D0000160510001611100016211A5
:101E4000D8A413D0000E0001606F000E0001616F76
:101E5000000E0001626F78D008D00001632B0001F2
:101E6000D89062336133603300D0000E00016015FA
:101E70000001656F000E000161150001666FFE0E26
:101E8000000162150001676F0001655100016611D4
:101E900000016711D8B413D0E0D711D00001632B33
:101EA000010E00016027000E00016123000E0001F9
:101EB00062230001D89062336133603300D0000E9A
:101EC000000160150001656F000E00016115000141
:101ED000666FFF0E000162150001676F000165511A
:101EE0000001661100016711D8B40AD0D7D708D015
:101EF000000163070001D89060376137623700D076
:101F0000000161BF05D0020E00016361F1D700D06E
:101F1000000163B103D00001619F00D00001D8909F
:101F20006333000163510001621300016451000139
:101F3000D8B403D00001628F00D060C060F061C0EF
:101F400061F062C062F000D0120000019351000104
:101F5000941100019511D8A402D02AD080D000019C
:101F600095517F0B0001986F996BD89000019837BD
:101F700099370001985100019627000199510001FD
:101F80009723000194AF04D00001986B982B02D0E6
:101F90000001986B0001985100019627000E9723CD
:101FA000000197AF0FD0000E0001D56F220ED46F45
:101FB000000E0001936F000E0001946F000E22D0FE
:101FC0004ED046D0000197BF21D000019705D8A080
:101FD0001DD0000E0001D56F220ED46F000195AF09
:101FE0000AD0FF0E0001936F7F0E0001946FFF0E69
:101FF00009D035D02DD0FF0E0001936F7F0E000168
:10200000946F7F0E0001956F2AD022D00001973582
:1020100097310001996F000196310001986F00011E
:10202000955100019819800B98190001956F96C081
:1020300098F0010E000198170001983398330001C1
:102040009451000198197F0B98190001946F00D0EA
:1020500093C093F094C094F095C095F000D0120016
:1020600094C060F095C061F096C062F09A0E0001D5
:10207000636F000E0001646F4FEC13F000019BAF23
:1020800016D0000196AF09D0000E0001946F800EAB
:102090000001956FBF0E08D060D0000E0001946F54
:1020A000000E0001956F000E0001966F56D00001E2
:1020B0009B5105E1150E00019A5DD8A007D094C090
:1020C00094F095C095F096C096F047D094C07BF000
:1020D00095C07CF096C07DF07CEC0EF07BC08AF061
:1020E0007CC08BF07DC08CF07EC08DF0F9EC13F0DD
:1020F0008AC097F08BC098F08CC099F094C060F0C3
:1021000095C061F096C062F097C063F098C064F02B
:1021100099C065F08CEC12F00001D8B018D097C0CF
:102120007BF098C07CF099C07DF0000E00017E6FBE
:10213000800E00017F6FBF0E0001806F6DEC09F013
:102140007BC094F07CC095F07DC096F006D097C01F
:1021500094F098C095F099C096F012008CC060F091
:102160008DC061F0000E0001636F030E626F90EC92
:1021700016F08AC08EF08BC08FF000016051000114
:102180008E270001615100018F238EC0F6FF8FC0A2
:10219000F7FF000EF86E0900F5CF90F00900F5CFBB
:1021A00091F00A00F5CF92F047D090C06FF091C047
:1021B00070F092C071F087C06CF088C06DF089C07B
:1021C0006EF08DEC0CF06CC07BF06DC07CF06EC0DE
:1021D0007DF0000E0001636F030E626F00018C073B
:1021E000D8A08D078CC060F08DC061F090EC16F027
:1021F0008AC08EF08BC08FF00001605100018E27E5
:102200000001615100018F238EC0F6FF8FC0F7FFE0
:10221000000EF86E0900F5CF7EF00900F5CF7FF0D3
:102220000A00F5CF80F06DEC09F07BC090F07CC027
:1022300091F07DC092F000D000018C5100018D1111
:10224000D8A4B3D790C087F091C088F092C089F02D
:1022500012000001626F40D0870EA2EC17F06FD021
:102260008F0EA2EC17F06BD0970EA2EC17F067D090
:102270009F0EA2EC17F063D0A70EA2EC17F05FD070
:10228000AF0EA2EC17F05BD0B70EA2EC17F057D050
:10229000BF0EA2EC17F053D0C70EA2EC17F04FD030
:1022A000CF0EA2EC17F04BD0D70EA2EC17F047D010
:1022B000DF0EA2EC17F043D0E70EA2EC17F03FD0F0
:1022C000EF0EA2EC17F03BD0F70EA2EC17F037D0D0
:1022D000FF0EA2EC17F033D000016251000AD8B40F
:1022E000BBD7010AD8B4BCD7030AD8B4BDD7010AFA
:1022F000D8B4BED7070AD8B4BFD7010AD8B4C0D75C
:10230000030AD8B4C1D7010AD8B4C2D70F0AD8B4C7
:10231000C3D7010AD8B4C4D7030AD8B4C5D7010AB1
:10232000D8B4C6D7070AD8B4C7D7010AD8B4C8D713
:10233000030AD8B4C9D7010AD8B4CAD700D012004A
:102340003E04D8A438D0000E0001636F040E0001D3
:10235000636501D06BD000016351020DC80EF324F8
:10236000D96E000EF420DA6EDE503C5C3D50800ADF
:102370000001626FDE50800A00016259D8B00BD0B4
:1023800000016351010D430EF324D96E000EF420B9
:10239000DA6E010E0AD000016351010D430EF324E1
:1023A000D96E000EF420DA6E000EDF6E00D0000150
:1023B000632BCCD73BD03E50D8A438D0000E0001C0
:1023C000636F040E0001636501D030D000016351DA
:1023D000020DC80EF324D96E000EF420DA6E3C50C4
:1023E000DE5CDE50800A0001626F3D50800A000111
:1023F0006259D8B00BD000016351010D430EF32494
:10240000D96E000EF420DA6E010E0AD0000163517D
:10241000010D430EF324D96E000EF420DA6E000E87
:10242000DF6E00D00001632BCCD700D01200036E0A
:1024300040D0870EF9EC17F06ED08F0EF9EC17F044
:102440006AD0970EF9EC17F066D09F0EF9EC17F0F2
:1024500062D0A70EF9EC17F05ED0AF0EF9EC17F0D2
:102460005AD0B70EF9EC17F056D0BF0EF9EC17F0B2
:1024700052D0C70EF9EC17F04ED0CF0EF9EC17F092
:102480004AD0D70EF9EC17F046D0DF0EF9EC17F072
:1024900042D0E70EF9EC17F03ED0EF0EF9EC17F052
:1024A0003AD0F70EF9EC17F036D0FF0EF9EC17F032
:1024B00032D00350000AD8B4BCD7010AD8B4BDD773
:1024C000030AD8B4BED7010AD8B4BFD7070AD8B414
:1024D000C0D7010AD8B4C1D7030AD8B4C2D7010AF9
:1024E000D8B4C3D70F0AD8B4C4D7010AD8B4C5D753
:1024F000030AD8B4C6D7010AD8B4C7D7070AD8B4D4
:10250000C8D7010AD8B4C9D7030AD8B4CAD7010AB0
:10251000D8B4CBD700D01200000162AF1ED060C08B
:1025200066F061C067F062C068F00001661F671F57
:10253000681F662B000E67236823000E00016625C6
:102540000001606F000E000167210001616F800EC5
:10255000000168210001626F00D0000165AF1ED04C
:1025600063C066F064C067F065C068F00001661F74
:10257000671F681F662B000E67236823000E00018B
:1025800066250001636F000E000167210001646F82
:10259000800E000168210001656F00D0000E00016F
:1025A000601B000E0001611B800E0001621B000E0B
:1025B0000001631B000E0001641B800E0001651BFF
:1025C000000163510001605D000164510001615927
:1025D0000001655100016259D8B002D0D89002D0F4
:1025E000D88000D0120033D0000E0001616F320E8F
:1025F00053D054D0000E0001616F1E0E4DD04ED04E
:10260000000E0001616F160E47D048D0000E000189
:10261000616F110E41D042D03BD040D0FF0E00017F
:10262000616FEF0E39D03AD0FF0E0001616FEA0EF4
:1026300033D034D0FF0E0001616FE20E2DD02ED0CA
:10264000FF0E0001616FCE0E27D028D021D060C0D0
:10265000D9FF61C0DAFFDF50010AD8B4F1D7030A0D
:10266000D8B4E2D7010AD8B4E5D7070AD8B410D055
:10267000020AD8B4D3D70E0AD8B4C2D7040AD8B441
:10268000C5D71C0AD8B4B0D7080AD8B4B3D700D07D
:10269000000E0001616F000E606F00D0120000019B
:1026A00060510001611100016211D8A412D063C011
:1026B000D9FF64C0DAFF000EDE6E000EDD6E000E84
:1026C0000001606F000E0001616F000E0001626F7B
:1026D0003CD0000162517F0B0001656F666BD890A2
:1026E00000016537663763C0D9FF64C0DAFF65C093
:1026F000DEFF66C0DDFF000161AF04D00001656B45
:10270000652B02D00001656B0001655163C0D9FFE4
:1027100064C0DAFFDE12000EDD1263C0D9FF64C0B0
:10272000DAFF820EDE26FF0EDD2262816283628581
:1027300062876289628B629D0001619F60C060F068
:1027400061C061F062C062F000D01200000E0001B2
:10275000B96F000E0001BA6F040E0001BA6501D016
:1027600044D00001BA51F8EC16F068C0A8F069C076
:10277000A9F06AC0AAF0000E0001A56F000E0001CA
:10278000A66F400E0001A76FC0EC0BF0A5C0B6F01D
:10279000A6C0B7F0A7C0B8F0B6C06FF0B7C070F071
:1027A000B8C071F00001BA51010D430EF324D96E87
:1027B000000EF420DA6EDF50F8EC16F068C06CF012
:1027C00069C06DF06AC06EF08DEC0CF06CC07BF0EF
:1027D0006DC07CF06EC07DF07CEC0EF000017B5192
:1027E0000001B9270001BA2BB7D70001B95100D0B9
:1027F0001200000E0001936F8E0E0001926F000117
:102800008DAF16D000018D1F8C1F8B1F8A6D000E9F
:102810008B238C238D23010E0001936F09D00001BF
:10282000D8908D338C338B338A330001922B00D0B8
:10283000000E00018A1500018E6F000E00018B153D
:1028400000018F6F000E00018C150001906FFF0ECC
:1028500000018D150001916F00018E5100018F1153
:102860000001901100019111D8A4D9D78AC060F05D
:102870008BC061F08CC062F092C063F093C064F0D2
:1028800015EC0FF060C08AF061C08BF062C08CF074
:1028900000D012008E0E0001706F09D00001D89098
:1028A0006B336A33693368330001702B00D0000E3C
:1028B0000001681500016C6F000E00016915000130
:1028C0006D6F000E00016A1500016E6FFF0E0001B2
:1028D0006B1500016F6F00016C5100016D1100015B
:1028E0006E1100016F11D8A4D9D768C060F069C01B
:1028F00061F06AC062F070C063F0000E0001646FA6
:1029000015EC0FF060C068F061C069F062C06AF059
:1029100000D012000600EACF1DF0E1CF1EF0E2CF9A
:102920001FF0D9CF20F0DACF21F0F3CF22F0F4CF8F
:1029300023F0F6CF24F0F7CF25F0F8CF26F0F5CF2F
:1029400027F0F2A404D0F29445EC18F000D0F2A0E5
:1029500003D0C6EC16F000D027C0F5FF26C0F8FF64
:1029600025C0F7FF24C0F6FF23C0F4FF22C0F3FF09
:1029700021C0DAFF20C0D9FF1FC0E2FF1EC0E1FF67
:102980001DC0EAFF1CC0E9FF1BC0FBFF1AC0FAFF15
:1029900011000001646F000EC26E000EC06E0001D7
:1029A000D89060313C0BC26E60C062F00001623BA7
:1029B000F00E6217300E00016217000161510F0B1B
:1029C00000016211C16E64C062F00001D8906237EC
:1029D0000001D8906237380E0001621764C063F0BE
:1029E0000001633B0F0E6317070E00016317000120
:1029F0006451800B0001631100016211C06E00017F
:102A000060AF03D09E9C9D8CF28CC2801200000EA1
:102A10000001646F040E0001646501D032D0000132
:102A20006451020DBE0EF324D96E000EF420DA6E4E
:102A3000DECF60F0DDCF61F000016451020D280EA1
:102A4000F324D96E000EF420DA6EDECF62F0DDCF13
:102A500063F0000160510001622700016151000133
:102A6000632300016451020DC80EF324D96E000ED9
:102A7000F420DA6E62C0DEFF63C0DDFF0001642B6C
:102A8000C9D71200EEEC17F000D05FEC18F0000987
:102A9000D8A4FBD7000E0001656F040E0001656528
:102AA00001D028D000016551020D280EF324D96E03
:102AB000000EF420DA6EDECF63F0DDCF64F00001AB
:102AC000631F641F634B642B2C50000163272D5040
:102AD0000001642300016551020DBE0EF324D96E7E
:102AE000000EF420DA6E63C0DEFF64C0DDFF00017B
:102AF000652BD3D71200000169AF1DD068C06AF002
:102B000069C06BF000016A1F6B1F6A4B6B2B9A0E3A
:102B100000016A250001666F010E00016B210001B2
:102B2000676F7EEC18F0010E0001676F9A0E666FFA
:102B300077EC18F014D0010E0001676F9A0E666FE3
:102B40007EEC18F09A0E000168250001666F010EF8
:102B5000000169210001676F77EC18F000D01200C6
:102B6000000E916E050E29EC11F0BDEC18F000D0AE
:102B700093EC18F00009D8A4FBD70EEC18F060C055
:102B80003CF061C03DF0EEEC17F000D05FEC18F0C7
:102B90000009D8A4FBD707EC15F0A0EC11F0430E08
:102BA0000001606F000E0001616FD8EC15F012009B
:102BB000000E0001646F040E0001646501D01FD097
:102BC00064C062F000016451010DF3500001602502
:102BD000D96EF45000016121DA6EDF500001636F9D
:102BE0000001622B03D00001D89063370001622FEF
:102BF000FAD700016351911A0001642BDCD712004F
:102C000000018A5100018B1100018C11D8B40AD047
:102C1000000E00018A1B000E00018B1B800E0001BC
:102C20008C1B00D087C07BF088C07CF089C07DF011
:102C30008AC07EF08BC07FF08CC080F06DEC09F014
:102C40007BC087F07CC088F07DC089F000D0120086
:102C5000000E00016B6F000169AF09D00001686DC3
:102C6000691FD8B0692B010E00016B6F00D068C0DE
:102C700060F069C061F00001626B8E0E0001636F4D
:102C80006BC064F015EC0FF060C068F061C069F0D3
:102C900062C06AF000D0120060C062F061C063F0F0
:102CA000060ED890000162376337E82EFAD762C06B
:102CB00064F063C065F065C074FF64C062F0000139
:102CC000D89062330001D8906233300E0001621751
:102CD0007350CF0B00016211736E120060C062F07E
:102CE00061C063F0060ED890000162376337E82EAA
:102CF000FAD762C064F063C065F065C071FF64C05C
:102D000062F00001D89062330001D8906233300E37
:102D1000000162177050CF0B00016211706E12003B
:102D20000001605100016203F3CF64F0F4CF65F05D
:102D30000001605100016303F350000165270001A9
:102D4000615100016203F3500001652764C060F027
:102D500065C061F000D012000001606F0001605199
:102D60007E0BCD6E000160AD02D0CD8E02D0CD9E27
:102D700000D0000ECF6E000ECE6E9E90000160AFB0
:102D800002D09D8001D09D90CD801200F29681A846
:102D900008D0CD80000E176E000E166E33EC18F0C2
:102DA00000D081B80AD0CD903CEC18F016C038F0B5
:102DB00017C039F0010E486E00D0F286F290120072
:102DC000000160510001611100016211D8B409D005
:102DD000000E0001601B000E0001611B800E00014F
:102DE000621B60C060F061C061F062C062F01200FE
:102DF00000016B6F00016B510001606F616B626BD2
:102E00008E0E0001636F000E0001646F15EC0FF071
:102E100060C068F061C069F062C06AF000D0120062
:102E200064C0D8F065C0D9F066C0DAF067C0DBF0E6
:102E300068C0DCF069C0DDF0010E486E000E0001D4
:102E4000616F000E606F21EC18F01200000E916EA1
:102E50001F0E916E7D0E93EC17F0000E916E7D0E9D
:102E600093EC17F01F0E916E7D0E93EC17F0000E91
:102E7000916E12000001606F000160517F0BD56EF2
:102E8000000ED76E000ED66EF294000160AF02D035
:102E9000F28A01D0F29AD58E12000001606F0C0EFA
:102EA000706EB1ACB1B605D0CA9460C0CBFFCA8415
:102EB00005D0769460C077FF768400D09898120091
:102EC0000001606F0C0E736E9896B1ACB1B605D070
:102ED000CA9460C0CBFFCA8405D0769460C077FFE7
:102EE000768400D012000001606F00016051FB0B7E
:102EF000CA6E000ECC6E9E92000160AF02D09D8221
:102F000001D09D92CA84120000EEBEF01A0EEE6A45
:102F1000E806FDE100EE28F0200EEE6AE806FDE18D
:102F200000011EEF08F00001616F0D0E0001606FDF
:102F3000FC0EE82EFED7602FFCD70001612FF5D7DD
:102F400000D012000001616FC2CF60F0C30E00011B
:102F500060170001D89061313C0B00016011C26E16
:102F60001200F28EF28CD08EF296F290F180F28AFC
:102F7000F294F1849D9C9E9C9F9C120092689368A1
:102F8000BF0E946EE00E956E800E966EE70E986EF4
:102F9000000E9A6E1200F60E0001616F3C0E606F1B
:102FA0002AEC18F0000E3B6E000E3A6E1200550E21
:102FB000ACEC16F0CD90000E0001616F000E606F5A
:102FC00021EC18F012009F0E3AEC17F0F60E0001FB
:102FD000616F3C0E606F2AEC18F01200000E416E1B
:102FE000000E406E415029EC11F0BDEC18F09D8CA4
:102FF0001200026EC2CF01F0C30E0116D89002304B
:103000003C0B0110C26E1200040E0001606F090E2D
:103010000001616F950EC9EC14F01200C45000015C
:10302000626FC3500001606F62C061F000D0120097
:103030008D8A190E57EC18F08D9AF286000E486EA4
:10304000120060C062F061C063F063C0CFFF62C075
:10305000CEFF120060C062F061C063F063C0D7FFB2
:1030600062C0D6FF120016C018F017C019F019C0C0
:10307000CFFF18C0CEFF1200CECF18F0CFCF19F07F
:1030800018C016F019C017F01200F60E176E3C0E9D
:10309000166E4EEC18F03A4A3B2A120016C018F091
:1030A00017C019F019C0D7FF18C0D6FF12000001D1
:1030B000606F00F00001602FFCD700D0120040507C
:1030C000D8A402D0010E02D0000E00D01200485049
:1030D000D8A402D0010E02D0000E00D01200C450BD
:1030E000036EC350016E03C002F000D0120066C030
:1030F00060F067C061F04CEC16F0120066C060F042
:1031000067C061F06EEC16F01200000E396E000E12
:10311000386E000E486E1200820E60EC17F0820EC0
:103120004DEC17F01200C2A202D0010E02D0000E28
:1031300000D012003AC060F03BC061F0120038C00D
:1031400060F039C061F01200040E73EC17F0120049
:103150008C908C9412008C868C8212001F0E8D6EC7
:1031600012008C9212008C9612008C8212008C86B7
:1031700012008C8812008C981200C2821200C28247
:0231800012003B
:020000040020DA
:08000000FFFFFFFFFFFFFFFF00
:020000040030CA
:0E000000FF02011EF38180FFFFC0FFE0FF4002
:00000001FF
