:0400000076EF00F0A7
:10000800FACFA9F0FBCFAAF0E9CFABF07AED0AF06E
:10001800D8CF33F0E8CF34F0E0CF35F0FACF36F070
:10002800FBCF37F0E9CF38F0EACF39F0E1CF3AF03B
:10003800E2CF3BF0D9CF3CF0DACF3DF0F3CF3EF042
:10004800F4CF3FF0F6CF40F0F7CF41F0F8CF42F0D1
:10005800F5CF43F09EAC1DD09E9C050E236015D0B5
:10006800EEEC11F02350020D950EF324D96E000E1C
:10007800F420DA6E2BC0DEFF2CC0DDFF232A2350CC
:10008800D6EC06F060EC12F00AD0010E226E9D9CB0
:1000980006D09EA804D09E98BEEC10F000D043C0B5
:1000A800F5FF42C0F8FF41C0F7FF40C0F6FF3FC070
:1000B800F4FF3EC0F3FF3DC0DAFF3CC0D9FF3BC0B0
:1000C800E2FF3AC0E1FF39C0EAFF38C0E9FF37C0B4
:1000D800FBFF36C0FAFF35C0E0FF34C0E8FF33C08D
:1000E800D8FF100021EF10F02A0E0101116F000E49
:1000F8000101126FA50E01012A6F000E01012B6F7D
:10010800210E0101006F010E0101016F9F0E010117
:10011800026F000E0101036FA10E0101136F000EA3
:100128000101146FA30E0101156F000E0101166F76
:100138001A0E0101176F010E0101186F0F0E010150
:10014800046F010E0101056F0B0E0101066F010E10
:100158000101076F760E0001BB6F600E0001BC6FD6
:100168003C0E0001BD6F2F0E0001BE6F5D0E000139
:10017800BF6F3D0E0001C06F4AEC10F02DEC11F07E
:100188005EEC10F051EC11F03AEC11F049EC12F081
:1001980012EC12F086EC11F00FEC11F05EEC12F09C
:1001A800640EF1EC10F042EC0CF0BAC01AF1BBC0CE
:1001B8001BF1000EB8EC0EF017C1BFF018C1C0F06B
:1001C80077EC0CF01F0E916E010EB8EC0EF000D01B
:1001D8003BEC0DF0E806D8A403D0000E07D0F8D702
:1001E800DDEC0CF0E806D8A4F3D7010E2A6E01D096
:1001F800EFD711C1BFF012C1C0F07DEC0EF036ECA4
:1002080010F053EC12F00F0E916E020EB8EC0EF0D7
:1002180000D03BEC0DF0E806D8A406D036EC10F080
:100228000DEC08F00CD0F5D7DDEC0CF0E806D8A4FE
:10023800F0D736EC10F0B9EC08F001D0EAD7810E0F
:100248000001BF6F000E0001C06F5FEC09F013C121
:10025800BFF014C1C0F037EC0BF015C1BFF016C1E8
:10026800C0F06DEC0BF036EC10F0030E916E060E3C
:10027800B8EC0EF0000E0001C06F140EBF6F000E38
:100288000001C26F000EC16F000E0001C46F000EA6
:10029800C36FD8EC0BF0000E0001BA6F060EB96FF1
:1002A8000CEC0DF0B9C024F1BAC025F1000E000124
:1002B800BA6F090EB96F0CEC0DF0B9C026F1BAC0CF
:1002C80027F1000E0001BA6F0C0EB96F0CEC0DF09F
:1002D800B9C028F1BAC029F124C1BFF025C1C0F0C6
:1002E80026C1C1F027C1C2F028C1C3F029C1C4F09A
:1002F800A3EC0BF000D03BEC0DF0E806D8A408D036
:1003080036EC10F0030E916E44EC04F00ED0F3D7E7
:10031800DDEC0CF0E806D8A4EED736EC10F0030EAE
:10032800916EE4EC05F001D0E6D77DC0BFF07EC049
:10033800C0F079C0C1F07AC0C2F07BC0C3F07CC005
:10034800C4F00DEC0CF000D036EC10F0010E916EFC
:10035800090EB8EC0EF000D03BEC0DF0E806D8B46E
:100368000FD001D00DD00BEC12F0E806D8A4F4D7CA
:1003780045EC12F0020AD8B403D0EED701D0ECD77E
:10038800000E0001A06F000E9F6F000E0001806F2D
:10039800000E7F6F000E01011D6F000E1C6F000E16
:1003A80001011F6F000E1E6F000E0101206F000E6D
:1003B80001010A6F000E0101086F000E0101196F9B
:1003C800000E0101096F7CEC11F0000E916E36EC05
:1003D80010F00A0EB8EC0EF0DFEC0FF023EC12F080
:1003E8001EEC12F037EC12F019EC12F04DEC12F092
:1003F800E2EC10F050EC12F05CEC12F000D01EECC5
:1004080012F046EC11F000D0D6EC11F00009D8A497
:10041800FBD7950E0001B76F000E0001B86F810E73
:100428000001B96F000E0001BA6FBAEC0AF08B0E2A
:100438000001B76F000E0001B86F2AC1B9F02BC1D7
:10044800BAF0E5EC04F08B0E0001BD6F000E000160
:10045800BE6F68EC05F0BDC021F1BEC022F1250ECB
:100468000001B76F000E0001B86F5DEC0EF00101DE
:100478002C6F21C1CBF022C1CCF00001CB1FCC1FC7
:10048800CB4BCC2B0001A1510001CB250001B76F4C
:100498000001A2510001CC210001B86F000E00013B
:1004A800BA6F640EB96F4BEC07F0B7C09FF0B8C0D5
:1004B800A0F07DC0B7F07EC0B8F09FC0B9F0A0C072
:1004C800BAF00DEC0FF0B7C0CBF0B8C0CCF09FC0BD
:1004D800CDF0A0C0CEF00001CD1FCE1FCD4BCE2B4E
:1004E80001011C510001CD250001B76F01011D510B
:1004F8000001CE210001B86F79C0B9F07AC0BAF016
:100508000DEC0FF00001B7510001CB270001B851E5
:100518000001CC237BC0B7F07CC0B8F01EC1B9F095
:100528001FC1BAF00DEC0FF00001B7510001CB2547
:1005380000017F6F0001B8510001CC210001806FDC
:100548009FC01CF1A0C01DF100019F5101011E2791
:100558000001A05101011F237FC0BFF080C0C0F07F
:1005680065EC08F0250E0001B76F000E0001B86FAA
:100578006AEC0DF0E6EC11F00009D8A4A8D001014E
:1005880019510101D8A4A3D02DEC12F00001B851E3
:1005980005E13C0E0001B75DD8A099D023EC12F01C
:1005A80032EC12F0D00E0001B75D070E0001B85909
:1005B800D8B08AD0010E0101196F5EEC12F0000E5E
:1005C8000001A06F000E9F6F000E0001806F000EEB
:1005D8007F6F000E01011D6F000E1C6F000E0101E0
:1005E8001F6F000E1E6F58EC12F056EC12F0000E42
:1005F8000001BE6FFA0EBD6FFDEC11F0010E000197
:10060800BE6F540EBD6FF6EC11F05CEC12F0000EEC
:1006180001012C6F23EC12F000D02DEC12F02C0EFF
:100628000001B75D010E0001B859D8B037D0F5D731
:1006380035D046EC11F000D0D6EC11F00009D8A462
:10064800FBD7950E0001B76F000E0001B86F810E41
:100658000001B96F000E0001BA6FBAEC0AF08B0EF8
:100668000001B76F000E0001B86F2AC1B9F02BC1A5
:10067800BAF0E5EC04F0250E0001B76F000E00019A
:10068800B86F5DEC0EF001012C6F250E0001B76FFD
:10069800000E0001B86F6AEC0DF000D001012C517A
:1006A8000101D8B4C6D7020E0001BE6F0E0EBD6F91
:1006B800FDEC11F0020E0001BE6F0E0EBD6FF6ECE0
:1006C80011F050EC12F087D07CEC11F084D00101CD
:1006D8002C510101D8A444D037EC12F000D03CECE6
:1006E80012F00001B85107E1650E0001B75DD8B0FE
:1006F80002D0F5D700D046EC11F000D0D6EC11F0BE
:100708000009D8A4FBD7950E0001B76F000E0001B1
:10071800B86F810E0001B96F000E0001BA6FBAEC14
:100728000AF08B0E0001B76F000E0001B86F2AC1E6
:10073800B9F02BC1BAF0E5EC04F0250E0001B76F53
:10074800000E0001B86F5DEC0EF001012C6F010185
:100758002C510101D8A43FD0E2EC10F048D03BD096
:100768000BEC12F0E806D8A414D045EC12F0010105
:10077800236F030E01012319D8A404D0010E01012F
:100788000A6F29D0040E01012319D8A424D017D048
:1007980022D0DDEC0CF0E806D8A402D0010E01D07E
:1007A800000E0001CB6F3BEC0DF0E806D8A402D098
:1007B800010E01D0000E0001CB11E8A004D0010EFB
:1007C8000101206F08D001012005D8A404D0E2EC73
:1007D80010F00DD000D028EC12F00001B85106E15D
:1007E800190E0001B75DD8B00AD6F5D708D636EC91
:1007F80010F0030E916E050EB8EC0EF0000E00011D
:10080800BA6F060EB96F0CEC0DF0B9C024F1BAC07E
:1008180025F1000E0001BA6F090EB96F0CEC0DF04E
:10082800B9C026F1BAC027F1000E0001BA6F0C0E4C
:10083800B96F0CEC0DF0B9C028F1BAC029F124C188
:10084800BFF025C1C0F026C1C1F027C1C2F028C140
:10085800C3F029C1C4F0A3EC0BF044EC04F07DC054
:10086800BFF07EC0C0F079C0C1F07AC0C2F07BC0D2
:10087800C3F07CC0C4F00DEC0CF066D576EF00F048
:10088800080EB8EC0EF060EC0FF0000E0001C36F1C
:10089800080E0001C36502D00BD000D09EAAFED777
:1008A80072EC10F0FBEC0DF00001C32BF1D700D077
:1008B80094EC0DF0AA0AD8B402D0FAD700D094EC80
:1008C8000DF0E806D8A4FBD794EC0DF00001C06F3A
:1008D8000001C0510001C26FC16B000E0001C115BB
:1008E80000017D6FFF0E0001C21500017E6F94ECC0
:1008F8000DF00001C06F0001C05100017D1394ECA0
:100908000DF00001C06F0001C0510001C26FC16B42
:10091800000E0001C1150001796FFF0E0001C2151C
:1009280000017A6F94EC0DF00001C06F0001C05116
:100938000001791394EC0DF00001C06F0001C05163
:100948000001C26FC16B000E0001C11500017B6F71
:10095800FF0E0001C21500017C6F94EC0DF0000140
:10096800C06F0001C05100017B13000E0001BB6F76
:10097800060EBA6F7DC0BCF07EC0BDF095EC0FF0DE
:10098800000E0001BB6F090EBA6F79C0BCF07AC0C7
:10099800BDF095EC0FF0000E0001BB6F0C0EBA6FA6
:1009A8007BC0BCF07CC0BDF095EC0FF0000E0001E0
:1009B800BB6F050EBA6F010E0001BC6F90EC11F011
:1009C80012002A50D8A43ED0000E0001C06F040EB9
:1009D8000001C06501D077D0B9C0D9FFBAC0DAFF2D
:1009E8000001C051020DF3500001B725E16EF4502B
:1009F8000001B821E26EDE50E65CE650800A000194
:100A0800BF6FDE50800A0001BF59D8B00BD000017B
:100A1800C051010D250EF324D96E000EF420DA6EB4
:100A2800010E0AD00001C051010D250EF324D96E24
:100A3800000EF420DA6E000EDF6E00D00001C02B2D
:100A4800C6D741D02A04D8A43ED0000E0001C06FFA
:100A5800040E0001C06501D036D00001C051020D5E
:100A6800F3500001B725D96EF4500001B821DA6EB1
:100A7800B9C0E1FFBAC0E2FFDE50E65CE650800A8A
:100A88000001BF6FDE50800A0001BF59D8B00BD0FB
:100A98000001C051010D250EF324D96E000EF4207B
:100AA800DA6E010E0AD00001C051010D250EF324A3
:100AB800D96E000EF420DA6E000EDF6E00D0000151
:100AC800C02BC6D700D01200000E0001C26F000E66
:100AD800C16FBDC0D9FFBEC0DAFFDECFB7F0DDCF32
:100AE800B8F0000E0001BA6F030EB96F0DEC0FF0ED
:100AF8000001B7510001C1270001B8510001C2230C
:100B0800000120EE02F0BD51D926BE51DA22DECF17
:100B1800BFF0DDCFC0F0D8900001BF37C03700016B
:100B2800BF510001C1270001C0510001C2230001CB
:100B380020EE04F0BD51D926BE51DA22DE50000164
:100B4800C127DD500001C223000120EE06F0BD518F
:100B5800D926BE51DA22DECFBFF0DDCFC0F0D89063
:100B68000001BF37C0370001BF1FC01FBF4BC02BDC
:100B78000001BF510001C1270001C0510001C2237B
:100B8800000120EE08F0BD51D926BE51DA22DECF91
:100B9800B7F0DDCFB8F0FF0E0001BA6FFD0EB96FE8
:100BA8000DEC0FF00001B7510001C1270001B85149
:100BB8000001C223C1C0BDF0C2C0BEF000D0120007
:100BC800070EB8EC0EF000D03BEC0DF0E806D8A408
:100BD8003CD0000E00017E6F140E7D6F000E0001E8
:100BE8007A6F000E796F000E00017C6F000E7B6F2C
:100BF800000E0001BB6F060EBA6F7DC0BCF07EC050
:100C0800BDF095EC0FF0000E0001BB6F090EBA6F36
:100C180079C0BCF07AC0BDF095EC0FF0000E000171
:100C2800BB6F0C0EBA6F7BC0BCF07CC0BDF095ECFE
:100C38000FF0000E0001BB6F050EBA6F010E000128
:100C4800BC6F90EC11F036D0BFD7DDEC0CF0E806A5
:100C5800D8A4BAD7000E0001BA6F050EB96FC6EC5A
:100C680011F0FF0AD8A403D044EC04F023D0000EFE
:100C78000001BA6F060EB96F0CEC0DF0B9C07DF02B
:100C8800BAC07EF0000E0001BA6F090EB96F0CEC05
:100C98000DF0B9C079F0BAC07AF0000E0001BA6F51
:100CA8000C0EB96F0CEC0DF0B9C07BF0BAC07CF03B
:100CB80001D08AD712000001B96F40D0870E00EC2E
:100CC80011F06FD08F0E00EC11F06BD0970E00EC86
:100CD80011F067D09F0E00EC11F063D0A70E00EC66
:100CE80011F05FD0AF0E00EC11F05BD0B70E00EC46
:100CF80011F057D0BF0E00EC11F053D0C70E00EC26
:100D080011F04FD0CF0E00EC11F04BD0D70E00EC05
:100D180011F047D0DF0E00EC11F043D0E70E00ECE5
:100D280011F03FD0EF0E00EC11F03BD0F70E00ECC5
:100D380011F037D0FF0E00EC11F033D00001B9519B
:100D4800000AD8B4BBD7010AD8B4BCD7030AD8B4B0
:100D5800BDD7010AD8B4BED7070AD8B4BFD7010A8D
:100D6800D8B4C0D7030AD8B4C1D7010AD8B4C2D7F7
:100D78000F0AD8B4C3D7010AD8B4C4D7030AD8B461
:100D8800C5D7010AD8B4C6D7070AD8B4C7D7010A45
:100D9800D8B4C8D7030AD8B4C9D7010AD8B4CAD7AF
:100DA80000D012002D6E40D0870E5CEC11F06ED092
:100DB8008F0E5CEC11F06AD0970E5CEC11F066D0E7
:100DC8009F0E5CEC11F062D0A70E5CEC11F05ED0C7
:100DD800AF0E5CEC11F05AD0B70E5CEC11F056D0A7
:100DE800BF0E5CEC11F052D0C70E5CEC11F04ED087
:100DF800CF0E5CEC11F04AD0D70E5CEC11F046D067
:100E0800DF0E5CEC11F042D0E70E5CEC11F03ED046
:100E1800EF0E5CEC11F03AD0F70E5CEC11F036D026
:100E2800FF0E5CEC11F032D02D50000AD8B4BCD7BC
:100E3800010AD8B4BDD7030AD8B4BED7010AD8B4BA
:100E4800BFD7070AD8B4C0D7010AD8B4C1D7030A94
:100E5800D8B4C2D7010AD8B4C3D70F0AD8B4C4D7F4
:100E6800010AD8B4C5D7030AD8B4C6D7010AD8B47A
:100E7800C7D7070AD8B4C8D7010AD8B4C9D7030A4C
:100E8800D8B4CAD7010AD8B4CBD700D01200000E04
:100E98000001BC6F0001BAAF09D00001B96DBA1FDB
:100EA800D8B0BA2B010E0001BC6F00D00001B8AF5A
:100EB80009D00001B76DB81FD8B0B82B010E0001DA
:100EC800BC1B00D0000E0001BE6F000EBD6F0001FC
:100ED800B9510001BA11D8B431D0010E0001BB6F6D
:100EE80007D00001D890B937BA370001BB2B00D022
:100EF8000001BABF02D0F5D700D00001D890BD37A5
:100F0800BE370001B9510001B75D0001BA510001B7
:100F1800B859D8A00BD00001B9510001B75F000142
:100F2800BA510001B85B0001BD8100D00001D89022
:100F3800BA33B9330001BB2FE0D700D00001BC5150
:100F48000001D8B406D00001BD6DBE1FD8B0BE2BBD
:100F580000D0BDC0B7F0BEC0B8F000D01200000E7F
:100F68000001BC6F0001B8AF09D00001B76DB81F10
:100F7800D8B0B82B010E0001BC6F00D00001BAAF89
:100F880006D00001B96DBA1FD8B0BA2B00D0000145
:100F9800B9510001BA11D8B42BD0010E0001BB6FB2
:100FA80007D00001D890B937BA370001BB2B00D061
:100FB8000001BABF02D0F5D700D00001B951000135
:100FC800B75D0001BA510001B859D8A009D0000195
:100FD800B9510001B75F0001BA510001B85B00D0F8
:100FE8000001D890BA33B9330001BB2FE6D700D03F
:100FF8000001BC510001D8B406D00001B76DB81F7C
:10100800D8B0B82B00D0B7C0B7F0B8C0B8F000D08F
:101018001200B0EC09F0000E0001C76F040E0001C9
:10102800C76501D025D00001C7510001C56FC66B47
:10103800D8900001C537C637E00E0001C52500016C
:10104800BA6F000E0001C6210001BB6F0001C75135
:10105800020D810EF324D96E000EF420DA6EDECF75
:10106800BCF0DDCFBDF095EC0FF00001C72BD6D753
:1010780036EC10F0ABEC0CF0000E0001BB6F010E6B
:10108800BA6FA1C0BCF0A2C0BDF095EC0FF036EC71
:1010980010F00DEC09F0000E0001BB6F030EBA6FE3
:1010A800A5C0BCF0A6C0BDF095EC0FF0000E000185
:1010B800BB6F000EBA6F010E0001BC6F90EC11F00F
:1010C80012000001C0AF1DD0BFC0C1F0C0C0C2F047
:1010D8000001C11FC21FC14BC22B640E0001C125F4
:1010E8000001BD6F000E0001C2210001BE6FFDECC2
:1010F80011F0000E0001BE6F640EBD6FF6EC11F02A
:1011080033D00001C0BF1BD00001C05104E1000171
:10111800BF05D8A014D0000E0001BE6F640EBD6FCD
:10112800FDEC11F0640E0001BF250001BD6F000E3B
:101138000001C0210001BE6FF6EC11F015D00001CE
:10114800BF510001C011D8A40FD0000E0001BE6F1E
:10115800640EBD6FFDEC11F0000E0001BE6F640E51
:10116800BD6FF6EC11F000D01200000E0001BA6F4E
:10117800000EB96FC6EC11F0FF0AD8A403D00DEC2D
:1011880008F046D0000E0001CA6F040E0001CA65BF
:1011980001D027D00001CA510001C86FC96BD8908F
:1011A8000001C837C937E00E0001C8250001B96F32
:1011B800000E0001C9210001BA6F0CEC0DF000010E
:1011C800CA51020D810EF324D96E000EF420DA6E96
:1011D8000001B9C0DEFF0001BAC0DDFF0001CA2B63
:1011E800D4D7000E0001BA6F010EB96F0CEC0DF0E8
:1011F800B9C0A1F0BAC0A2F0000E0001BA6F030E88
:10120800B96F0CEC0DF0B9C0A5F0BAC0A6F000D0CB
:101218001200C30E0001C16F000E0001C26F050E5F
:10122800B8EC0EF0070E916E3CD0050E5FEC06F0A0
:101238005AEC12F000D004EC12F00009D8A4FBD745
:1012480072EC11F0B7C0C3F0B8C0C4F046EC11F0AE
:1012580000D0D6EC11F0E806D8B4FBD7950E000103
:10126800B76F000E0001B86F810E0001B96F000E54
:101278000001BA6FBAEC0AF08B0E0001B76F000ECE
:101288000001B86FC1C0B9F0C2C0BAF0E5EC04F013
:10129800250E0001B76F000E0001B86F6AEC0DF063
:1012A80000D03BEC0DF00009D8B4BFD7C3C0A5F0FF
:1012B800C4C0A6F0120000D0CEEC11F00009D8A4EA
:1012C800FBD745EC0FF0AA0E1CEC0EF0210E1CEC1F
:1012D8000EF0000E0001C36F040E0001C36501D0BB
:1012E8002CD00001C351020DF3500001BF25D96E67
:1012F800F4500001C021DA6EDECFC1F0DDCFC2F0BC
:10130800C2C0C1F00001C26BC1BFC2690001C151B6
:101318001CEC0EF00001C351020DF3500001BF2573
:10132800D96EF4500001C021DA6EDF50FF0DF35082
:101338001CEC0EF00001C32BCFD70D0E1CEC0EF0E9
:101348000A0E1CEC0EF000D0CEEC11F00009D8A467
:10135800FBD741EC12F01200030EB8EC0EF0070EAA
:10136800916E00D03BEC0DF00009D8B4FBD746ECE9
:1013780011F000D0D6EC11F00009D8A4FBD7000E6C
:101388000001C26F040E0001C26501D02AD000011D
:10139800C251020D950EF324D96E000EF420DA6EB8
:1013A800DECFC0F0DDCFC1F00001C01FC11FC04BB0
:1013B800C12B000199510001C02700019A51000179
:1013C800C1230001C251020D810EF324D96E000E13
:1013D800F420DA6EC0C0DEFFC1C0DDFF0001C22B01
:1013E800D1D712000001B96F000EAC6E000EAB6EC3
:1013F8000001B9A102D0AC8800D00001B9A303D084
:10140800AC8CAB8C00D00001B9A502D0AC8E00D05A
:101418000001B9A702D0AB8802D0AB8A00D0000186
:10142800B9A902D0AC8400D00001B9AB02D0AB8618
:1014380000D00001B9AD02D09D8A02D09D9A00D09B
:101448000001B9AF02D09D8801D09D98B7C0AFFF09
:101458000001B8517F6EAC8AAB8E949C948EACB868
:10146800ACBE02D0948C00D01200000E306E2CAEB0
:1014780007D02B6C2C1ED8B02C2A010E306E00D051
:101488002EAE05D02D6C2E1ED8B02E2A00D02D5091
:101498002E10D8B41DD0010E2F6E05D0D8902D3641
:1014A8002E362F2A00D02EBE02D0F8D700D02D50CD
:1014B8002B5C2E502C58D8A005D02D502B5E2E50CA
:1014C8002C5A00D0D8902E322D322F2EF0D700D0A3
:1014D8003050D8B405D02B6C2C1ED8B02C2A00D094
:1014E8002BC02BF02CC02CF000D012000600EACF45
:1014F800ACF0E1CFADF0E2CFAEF0D9CFAFF0DACFBC
:10150800B0F0F3CFB1F0F4CFB2F0F6CFB3F0F7CF3D
:10151800B4F0F8CFB5F0F5CFB6F0F2A404D0F29459
:101528001EEC11F006D0F0A404D0F094AEEC0FF04D
:1015380000D0B6C0F5FFB5C0F8FFB4C0F7FFB3C020
:10154800F6FFB2C0F4FFB1C0F3FFB0C0DAFFAFC01E
:10155800D9FFAEC0E2FFADC0E1FFACC0EAFFABC04F
:10156800E9FFAAC0FBFFA9C0FAFF1100000E0001A5
:10157800BF6F040E0001BF6501D036D00001BF5116
:10158800020DF3500001B925D96EF4500001BA21BB
:10159800DA6EDECFBBF0DDCFBCF00001BF51020D2B
:1015A800F3500001B725D96EF4500001B821DA6E66
:1015B800DECFBDF0DDCFBEF00001BB510001BD277D
:1015C8000001BC510001BE230001BF51020D8B0E6A
:1015D800F324D96E000EF420DA6EBDC0DEFFBEC063
:1015E800DDFF0001BF2BC5D712000001BB6F000E45
:1015F800C26E000EC06E0001D890B7313C0BC26EAF
:10160800B7C0B9F00001B93BF00EB917300E0001B0
:10161800B9170001B8510F0B0001B911C16EBBC059
:10162800B9F00001D890B9370001D890B937380E11
:101638000001B917BBC0BAF00001BA3B0F0EBA17C8
:10164800070E0001BA170001BB51800B0001BA1147
:101658000001B911C06E0001B7AF03D09E9C9D8CEC
:10166800F28CC280120000D0CEEC11F00009D8A490
:10167800FBD745EC0FF0AA0E1CEC0EF0070E1CEC85
:101688000EF0BFC0D9FFC0C0DAFFDECFC1F0DDCF9A
:10169800C2F0C2C0C1F00001C26BC1BFC269000183
:1016A800C1511CEC0EF0BFC0D9FFC0C0DAFFDF503B
:1016B8001CEC0EF00D0E1CEC0EF00A0E1CEC0EF0DD
:1016C80000D0CEEC11F00009D8A4FBD741EC12F001
:1016D800120000D0CEEC11F00009D8A4FBD745ECDD
:1016E8000FF0AA0E1CEC0EF0080E1CEC0EF0BFC09A
:1016F800D9FFC0C0DAFFDECFC1F0DDCFC2F0C2C073
:10170800C1F00001C26BC1BFC2690001C1511CEC2C
:101718000EF0BFC0D9FFC0C0DAFFDF501CEC0EF0DE
:101728000D0E1CEC0EF00A0E1CEC0EF000D0CEECE8
:1017380011F00009D8A4FBD741EC12F0120000D038
:10174800CEEC11F00009D8A4FBD745EC0FF0AA0E97
:101758001CEC0EF0420E1CEC0EF00001C0511CEC0B
:101768000EF00001BF511CEC0EF00001C2511CEC40
:101778000EF00001C1511CEC0EF00001C4511CEC2C
:101788000EF00001C3511CEC0EF00D0E1CEC0EF017
:101798000A0E1CEC0EF000D0CEEC11F00009D8A413
:1017A800FBD741EC12F0120000D0CEEC11F000098A
:1017B800D8A4FBD745EC0FF0AA0E1CEC0EF0410E96
:1017C8001CEC0EF00001C0511CEC0EF00001BF51E2
:1017D8001CEC0EF00001C2511CEC0EF00001C151CE
:1017E8001CEC0EF00001C4511CEC0EF00001C351BA
:1017F8001CEC0EF00D0E1CEC0EF00A0E1CEC0EF09C
:1018080000D0CEEC11F00009D8A4FBD741EC12F0BF
:10181800120000D0CEEC11F00009D8A4FBD745EC9B
:101828000FF0AA0E1CEC0EF0430E1CEC0EF000019B
:10183800C0511CEC0EF00001BF511CEC0EF0000171
:10184800C2511CEC0EF00001C1511CEC0EF000015D
:10185800C4511CEC0EF00001C3511CEC0EF00D0E2F
:101868001CEC0EF00A0E1CEC0EF000D0CEEC11F0C1
:101878000009D8A4FBD741EC12F01200000E0001B9
:10188800C06F000EBF6FD5EC0EF0E806D8A417D0D5
:10189800CC0EF5EC0FF0690EF5EC0FF00C0EF5EC34
:1018A8000FF0F1EC0EF00001C06FBF6BF1EC0EF021
:1018B8000001BC6F0001BC510001BF1300D0BFC0C4
:1018C800BCF0C0C0BDF0050E0001BE6F0001D8908D
:1018D800BD33BC330001BE2FF9D7BCC0BAF0BDC0C0
:1018E800BBF000D0120000D0CEEC11F00009D8A453
:1018F800FBD745EC0FF0AA0E1CEC0EF0060E1CEC04
:101908000EF0BFC0D9FFC0C0DAFFDECFC1F0DDCF17
:10191800C2F0C2C0C1F00001C26B0001C1511CEC91
:101928000EF0BFC0D9FFC0C0DAFFDF501CEC0EF0CC
:101938000D0E1CEC0EF00A0E1CEC0EF000D0CEECD6
:1019480011F00009D8A4FBD741EC12F01200040EE4
:10195800B8EC0EF0070E916E00D03BEC0DF00009CC
:10196800D8B4FBD746EC11F000D0D6EC11F0E8065D
:10197800D8B4FBD7950E0001B76F000E0001B86F01
:10198800810E0001B96F000E0001BA6FBAEC0AF0BF
:101998008FC0A5F090C0A6F08B0E0001BD6F000EA1
:1019A8000001BE6F68EC05F0BDC0A1F0BEC0A2F09A
:1019B80012000BEC12F0E806D8A40BD045EC12F09C
:1019C800060AD8A41FD01BD022D01FD01BD01FD0EE
:1019D8001CD081B403D016D01AD017D081A415D04A
:1019E80037EC12F000D03CEC12F00001B85105E1E0
:1019F8000A0E0001B75DD8A0F6D781A403D0010E66
:101A080006D003D0000E03D000D0000E00D0120084
:101A1800B9C0B7F0BAC0B8F00BEC10F00001BB6F5A
:101A28000001BB510001BD6FBC6B000E0001BC156D
:101A38000001BE6FFF0E0001BD150001BF6F010E52
:101A48000001B9250001B76F000E0001BA2100019D
:101A5800B86F0BEC10F00001BB6F0001BB51000127
:101A6800BE13BEC0B9F0BFC0BAF000D012000BEC74
:101A780012F0E806D8A40BD045EC12F0050AD8A459
:101A88001FD01BD022D01FD01BD01FD01CD081B29A
:101A980003D016D01AD017D081A215D037EC12F087
:101AA80000D03CEC12F00001B85105E10A0E00012B
:101AB800B75DD8A0F6D781A203D0010E06D003D017
:101AC800000E03D000D0000E00D01200000E916E60
:101AD800000E0001BB6F040E0001BB6501D01FD0D2
:101AE800BBC0B9F00001BB51010DF3500001B7258F
:101AF800D96EF4500001B821DA6EDF500001BA6FD8
:101B08000001B92B03D00001D890BA370001B92FD2
:101B1800FAD70001BA51911A0001BB2BDCD7120089
:101B28001D50010D2D0EF324D96E010EF420DA6E2E
:101B3800DF500001BE6F1DC0BDF0010E0001BD27C2
:101B48000001BD510001B76FB86B000E0001BA6FFC
:101B5800190EB96FB3EC07F00001B7511D6E000103
:101B6800BE5100D01200B7C0B9F0B8C0BAF0060E26
:101B7800D8900001B937BA37E82EFAD7B9C0BBF008
:101B8800BAC0BCF0BCC074FFBBC0B9F00001D890AB
:101B9800B9330001D890B933300E0001B91773502A
:101BA800CF0B0001B911736E1200B7C0B9F0B8C0FD
:101BB800BAF0060ED8900001B937BA37E82EFAD72E
:101BC800B9C0BBF0BAC0BCF0BCC071FFBBC0B9F0B3
:101BD8000001D890B9330001D890B933300E000114
:101BE800B9177050CF0B0001B911706E12000001C7
:101BF800BE6F1F50010D2D0EF324D96E010EF42077
:101C0800DA6EBEC0DFFF1FC0BDF0010E0001BD27A8
:101C18000001BD510001B76FB86B000E0001BA6F2B
:101C2800190EB96FB3EC07F00001B7511F6E12001F
:101C38000001BE6F2050010D600EF324D96E000E16
:101C4800F420DA6EBEC0DFFF20C0BDF0010E000137
:101C5800BD270001BD510001B76FB86B000E000130
:101C6800BA6F190EB96FB3EC07F00001B751206EC7
:101C78001200040E0001B85DD8B01AD001D018D0F7
:101C8800B7C0A9FF0001B851030BAA6EB9C0A8FFDD
:101C9800A69EA69CA684F29E550EA76EAA0EA76EB7
:101CA800A68200D0A6B2FED7A694F28EA65000D087
:101CB8001200000E0001B96F000E0001BA6F040E89
:101CC8000001BA6501D011D00001BA51010DF350DD
:101CD8000001B725D96EF4500001B821DA6EDF5043
:101CE8000001B9270001BA2BEAD70001B95100D089
:101CF800120000D0CEEC11F00009D8A4FBD745ECB7
:101D08000FF0AA0E1CEC0EF0110E1CEC0EF0BFC06A
:101D1800D9FFC0C0DAFFDF501CEC0EF00D0E1CEC32
:101D28000EF00A0E1CEC0EF041EC12F0120000014D
:101D3800B76F0001B7510001D8B40AD090969996B0
:101D4800040EE82EFED79986350EE82EFED709D068
:101D580090969996320EE82EFED79986080EE82EB0
:101D6800FED700F000D012000001BF6F00D0CEEC0B
:101D780011F00009D8A4FBD745EC0FF0AA0E1CEC13
:101D88000EF0010E1CEC0EF00001BF511CEC0EF021
:101D98000D0E1CEC0EF00A0E1CEC0EF041EC12F0CD
:101DA8001200000E0001B76F90969996F00E00D0C1
:101DB800E82EFDD79986380EE82EFED700D090B6CB
:101DC80004D0010E0001B76F00D0FD0E00F0E82E20
:101DD800FDD70001B75100D01200000E0001B86F06
:101DE800000E0001B96F070E0001B96501D00DD0D2
:101DF8000001D890B833C7EC0FF00009D8B402D06E
:101E08000001B88F0001B92BEED70001B85100D0FE
:101E180012000001B7510001B903F3CFBBF0F4CFB2
:101E2800BCF00001B7510001BA03F3500001BC2710
:101E38000001B8510001B903F3500001BC27BBC031
:101E4800B7F0BCC0B8F000D012001E50010D600EF3
:101E5800F324D96E000EF420DA6EDF50326E1EC005
:101E680031F0010E312631502B6E2C6A000E2E6E89
:101E7800190E2D6E39EC0AF02B501E6E325000D020
:101E88001200000E0001B76F180E0001B76501D0EF
:101E98000ED00001B751010D600EF324D96E000E6B
:101EA800F420DA6E000EDF6E0001B72BEDD7000EBE
:101EB800206E000E1E6E1200000E0001B76F180E85
:101EC8000001B76501D00ED00001B751010D2D0EEC
:101ED800F324D96E010EF420DA6E000EDF6E0001D5
:101EE800B72BEDD7000E1F6E000E1D6E12000001FD
:101EF800B76F0001B7517E0BCD6E0001B7AD02D0B0
:101F0800CD8E02D0CD9E00D0000ECF6E000ECE6ECC
:101F18009E900001B7AF02D09D8001D09D90CD80EA
:101F28001200BAC0B7F0BBC0B8F00001BD51000143
:101F3800B96F3DEC0EF0010E0001BA250001B76F34
:101F4800000E0001BB210001B86FBCC0B9F03DEC28
:101F58000EF01200F09ACDB009D0CD80000E456E7B
:101F6800000E446EABEC11F0F1960AD0CD90B4ECB3
:101F780011F044C00BF045C00CF0010E1C6E00D0EF
:101F8800F094F08A120090969996040EE82EFED7E7
:101F98009986080EE82EFED700F0000E87B6010ECF
:101FA8000001B76F2D0EE82EFED700D00001B75103
:101FB800010B00D01200D5EC0EF0E806D8A410D022
:101FC800CC0EF5EC0FF06C0EF5EC0FF0100EF5ECF6
:101FD8000FF0000EF5EC0FF0000EF5EC0FF000D04E
:101FE80012000001B86F000E0001B96F070E000162
:101FF800B96501D00BD00001B851010B9BEC0EF074
:102008000001D890B8330001B92BF0D71200040EA4
:102018000001B85DD8A002D0000E0ED0B7C0A9FF4D
:102028000001B851030BAA6EA69EA69CA68000D0FC
:10203800A6B0FED7A85000D0120001EE2DF0190E60
:10204800EE6AE806FDE100EE60F0470EEE6AE8068B
:10205800FDE100EE01F02A0EEE6AE806FDE100015E
:1020680078EF00F0000E916E1F0E916E4B0EF1ECA2
:1020780010F0000E916E4B0EF1EC10F01F0E916EE9
:102088004B0EF1EC10F0000E916E1200BBC0CFF0B9
:10209800BCC0D0F0BDC0D1F0BEC0D2F0BFC0D3F03C
:1020A800C0C0D4F0000E0001B86F000EB76F99ECF5
:1020B80011F01200F28EF28CD08EF09AF094F18624
:1020C800F182F28AF294F1849D9C9E9C9F9C9D9A39
:1020D8009D989E9A9E989F9A9F981200F20E1B16A2
:1020E800ABAC05D01B90ABA002D01B8000D0ABB42A
:1020F8001B84ABB21B86AECFB7F00001B75100D03E
:1021080012000001B76F0001B7517F0BD56E000EAA
:10211800D76E000ED66EF2940001B7AF02D0F28AE5
:1021280001D0F29AD58E12000001B76F0C0E706EB6
:10213800B1ACB1B605D0CA94B7C0CBFFCA8405D03C
:102148007694B7C077FF768400D098981200000183
:10215800B76F0C0E736E9896B1ACB1B605D0CA9431
:10216800B7C0CBFFCA8405D07694B7C077FF768412
:1021780000D0120029EC0FF0196E0A0E1918D8A415
:1021880007D0195067EC11F0010E1A6E9D9804D013
:10219800195067EC11F000D012000001B76F000170
:1021A800B751FB0BCA6E000ECC6E9E920001B7AF02
:1021B80002D09D8201D09D92CA841200020E0001B5
:1021C800BE6F0E0EBD6FF6EC11F0020E0001BE6F71
:1021D8000E0EBD6FFDEC11F012000001B86F0D0E70
:1021E8000001B76FFC0EE82EFED7B72FFCD7000111
:1021F800B82FF5D700D012000001B86FC2CFB7F0E2
:10220800C30E0001B7170001D890B8313C0B00018C
:10221800B711C26E1200000E0001B86F400EB76F02
:102228003C0EF6EC09F045EC0FF060EC0FF0010EF7
:102238001A6E1200F60E456E3C0E446EBDEC11F09F
:102248000D4A0E2A0F4A102A114A122A134A142A32
:102258001200926893689F0E946EE00E956E000EC1
:10226800966EE70E986E000E9A6E1200550E7BEC75
:102278000FF0CD90000E0001B86F000EB76F99EC0B
:1022880011F01200000E236E000E226E23505FEC38
:1022980006F05AEC12F09D8C12009F0E85EC10F09F
:1022A800F60E0001B86F3C0EB76FA2EC11F01200E9
:1022B8002C6EC2CF2BF0C30E2B16D8902C303C0BB3
:1022C8002B10C26E12002B6EACAC05D0AC901BA2CA
:1022D80002D0AC8000D02BC0ADFF1200C45000016A
:1022E800B96FC3500001B76FB9C0B8F000D0120081
:1022F8008D8A190EDEEC11F08D9AF186F08A000EA7
:102308001C6E1200040E0001B76F090E0001B86FB1
:10231800950EF9EC0AF01200BAC0B7F0BBC0B8F0DD
:10232800BCC0B9F03DEC0EF01200B7C0B9F0B8C0AF
:10233800BAF0BAC0CFFFB9C0CEFF1200B7C0B9F02B
:10234800B8C0BAF0BAC0D7FFB9C0D6FF120044C0AF
:10235800A7F045C0A8F0A8C0CFFFA7C0CEFF1200C5
:10236800CECFA7F0CFCFA8F0A7C044F0A8C045F0C3
:10237800120044C0A7F045C0A8F0A8C0D7FFA7C066
:10238800D6FF1200B9C0B7F0BAC0B8F00BEC10F025
:1023980000D012001A50D8A402D0010E02D0000EAC
:1023A80000D012002250D8A402D0010E02D0000E94
:1023B80000D012000001B76F00F00001B72FFCD762
:1023C80000D012001C50D8A402D0010E02D0000E7A
:1023D80000D01200C4502D6EC3502B6E2DC02CF0AF
:1023E80000D01200BDC0B7F0BEC0B8F0B7EC0DF019
:1023F8001200BDC0B7F0BEC0B8F0D9EC0DF01200A5
:10240800C2A202D0010E02D0000E00D012009EAA75
:1024180002D0010E02D0000E00D01200820EABECEA
:1024280010F0820E98EC10F01200000E146E000EE0
:10243800136E1200000E106E000E0F6E1200000ECA
:102448000E6E000E0D6E12000FC0B7F010C0B8F07F
:1024580012000DC0B7F00EC0B8F012000BC0B7F0F4
:102468000CC0B8F01200000E126E000E116E1200B1
:1024780011C0B7F012C0B8F01200000E1A6E9D8895
:10248800120072EC10F000D01200040ED1EC10F023
:1024980012008C908C9412008C868C8212001F0E75
:1024A8008D6E12008C9612008C821200C28212006D
:0C24B8008C8812008C981200C282120066
:020000040020DA
:08000000FFFFFFFFFFFFFFFF00
:020000040030CA
:0E000000FF02011EF38180FFFFC0FFE0FF4002
:00000001FF
