:0400000076EF00F0A7
:10000800FACFC0F0FBCFC1F0E9CFC2F0B4ED0AF0EF
:10001800D8CF33F0E8CF34F0E0CF35F0FACF36F070
:10002800FBCF37F0E9CF38F0EACF39F0E1CF3AF03B
:10003800E2CF3BF0D9CF3CF0DACF3DF0F3CF3EF042
:10004800F4CF3FF0F6CF40F0F7CF41F0F8CF42F0D1
:10005800F5CF43F09EAC1DD09E9C050E236015D0B5
:1000680022EC12F02350020DAE0EF324D96E000ECE
:10007800F420DA6E2BC0DEFF2CC0DDFF232A2350CC
:1000880006EC07F094EC12F00AD0010E226E9D9C4B
:1000980006D09EA804D09E98E3EC10F000D043C090
:1000A800F5FF42C0F8FF41C0F7FF40C0F6FF3FC070
:1000B800F4FF3EC0F3FF3DC0DAFF3CC0D9FF3BC0B0
:1000C800E2FF3AC0E1FF39C0EAFF38C0E9FF37C0B4
:1000D800FBFF36C0FAFF35C0E0FF34C0E8FF33C08D
:1000E800D8FF100007EF11F02A0E0101116F000E62
:1000F8000101126FBC0E0101296F000E01012A6F68
:100108001F0E0101006F010E0101016FB80E010100
:10011800026F000E0101036FBA0E0101136F000E8A
:100128000101146F180E0101156F010E0101166F00
:100138000F0E0101046F010E0101056F0B0E010185
:10014800066F010E0101076F760E0001D26F600E77
:100158000001D36F3C0E0001D46F2F0E0001D56F44
:100168005D0E0001D66F3D0E0001D76F6FEC10F0E9
:1001780061EC11F083EC10F085EC11F06EEC11F0ED
:100188007DEC12F046EC12F0BAEC11F043EC11F0F1
:1001980092EC12F0640E25EC11F07CEC0CF0D1C05E
:1001A80018F1D2C019F1000EF2EC0EF015C1D6F01C
:1001B80016C1D7F0B1EC0CF01F0E916E010EF2ECE7
:1001C8000EF000D075EC0DF0E806D8A403D0000EB0
:1001D80007D0F8D717EC0DF0E806D8A4F3D7010E2E
:1001E8002A6E01D0EFD711C1D6F012C1D7F0B7EC03
:1001F8000EF05BEC10F087EC12F00F0E916E020E11
:10020800F2EC0EF000D075EC0DF0E806D8A406D09C
:100218005BEC10F09BEC08F00CD0F5D717EC0DF068
:10022800E806D8A4F0D75BEC10F0E3EC07F001D0B7
:10023800EAD79A0E0001D66F000E0001D76F99EC2D
:1002480009F029C1D6F02AC1D7F071EC0BF013C11F
:10025800D6F014C1D7F0A7EC0BF05BEC10F0030E4E
:10026800916E060EF2EC0EF0000E0001D76F140E20
:10027800D66F000E0001D96F000ED86F000E000176
:10028800DB6F000EDA6F12EC0CF0000E0001D16F7C
:10029800100ED06F46EC0DF0D0C022F1D1C023F182
:1002A800000E0001D16F120ED06F46EC0DF0D0C0D9
:1002B80024F1D1C025F1000E0001D16F140ED06FCA
:1002C80046EC0DF0D0C026F1D1C027F122C1D6F0FE
:1002D80023C1D7F024C1D8F025C1D9F026C1DAF05E
:1002E80027C1DBF0DDEC0BF000D075EC0DF0E80673
:1002F800D8A408D05BEC10F0030E916E71EC04F0FA
:100308000ED0F3D717EC0DF0E806D8A4EED75BECC7
:1003180010F0030E916E14EC06F001D0E6D796C0EB
:10032800D6F097C0D7F092C0D8F093C0D9F094C057
:10033800DAF095C0DBF047EC0CF000D05BEC10F085
:10034800010E916E090EF2EC0EF000D075EC0DF076
:10035800E806D8B40FD001D00DD03FEC12F0E80673
:10036800D8A4F4D779EC12F0020AD8B403D0EED7A7
:1003780001D0ECD7000E0001B96F000EB86F000E67
:100388000001996F000E986F000E01011B6F000E9F
:100398001A6F000E01011D6F000E1C6F000E010187
:1003A8001E6F000E01010A6F000E0101086F000E9A
:1003B8000101176F000E0101096F000E916E5BECD1
:1003C80010F00A0EF2EC0EF019EC10F057EC12F0E7
:1003D80052EC12F06BEC12F04DEC12F0B0EC11F0A4
:1003E80081EC12F016EC11F084EC12F090EC12F0A3
:1003F80000D052EC12F07AEC11F000D00AEC12F0B6
:100408000009D8A4FBD7AE0E0001CE6F000E000184
:10041800CF6F9A0E0001D06F000E0001D16FF4EC7F
:100428000AF0A40E0001CE6F000E0001CF6F29C1A3
:10043800D0F02AC1D1F015EC05F0A40E0001D46F5C
:10044800000E0001D56F98EC05F0D4C01FF1D5C09F
:1004580020F1250E0001CE6F000E0001CF6F97EC42
:100468000EF00101286F1FC1E2F020C1E3F0000186
:10047800E21FE31FE24BE32B0001BA510001E22522
:100488000001CE6F0001BB510001E3210001CF6FD5
:10049800000E0001D16F640ED06F7BEC07F0CEC068
:1004A800B8F0CFC0B9F096C0CEF097C0CFF0B8C0C2
:1004B800D0F0B9C0D1F047EC0FF0CEC0E2F0CFC019
:1004C800E3F0B8C0E4F0B9C0E5F00001E41FE51FAF
:1004D800E44BE52B01011A510001E4250001CE6F20
:1004E80001011B510001E5210001CF6F92C0D0F03E
:1004F80093C0D1F047EC0FF00001CE510001E22784
:100508000001CF510001E32394C0CEF095C0CFF095
:100518001CC1D0F01DC1D1F047EC0FF00001CE5145
:100528000001E2250001986F0001CF510001E3218D
:100538000001996FB8C01AF1B9C01BF10001B85198
:1005480001011C270001B95101011D2398C0D6F0F3
:1005580099C0D7F0F3EC08F0250E0001CE6F000E1D
:100568000001CF6FA4EC0DF01AEC12F00009D8A42A
:10057800DCD0010117510101D8A4D7D061EC12F0E9
:100588000001CF5105E11E0E0001CE5DD8A0CDD0EF
:1005980057EC12F066EC12F0860E0001CE5D060EE6
:1005A8000001CF59D8B0BED0010E0101176F92ECEF
:1005B80012F057EC12F000D061EC12F02C0E000192
:1005C800CE5D010E0001CF59D8A0F6D7000E00016C
:1005D800B96F000EB86F000E0001996F000E986F8A
:1005E800000E01011B6F000E1A6F000E01011D6F36
:1005F800000E1C6F8CEC12F08AEC12F0000E000159
:10060800D56FC80ED46F31EC12F0010E0001D56F12
:10061800360ED46F2AEC12F090EC12F0000E0101A5
:10062800286F57EC12F000D061EC12F0840E000134
:10063800CE5D030E0001CF59D8A0F6D77AEC11F0A1
:1006480000D00AEC12F00009D8A4FBD7AE0E0001C6
:10065800CE6F000E0001CF6F9A0E0001D06F000E12
:100668000001D16FF4EC0AF0A40E0001CE6F000E69
:100678000001CF6F29C1D0F02AC1D1F015EC05F0E7
:100688002BD07AEC11F000D00AEC12F00009D8A4B3
:10069800FBD7AE0E0001CE6F000E0001CF6F9A0E91
:1006A8000001D06F000E0001D16FF4EC0AF0A40E27
:1006B8000001CE6F000E0001CF6F29C1D0F02AC112
:1006C800D1F015EC05F0250E0001CE6F000E0001EB
:1006D800CF6FA4EC0DF000D02704D8A4D2D792ECA9
:1006E80012F0020E0001D56F0E0ED46F31EC12F02D
:1006F800020E0001D56F0E0ED46F2AEC12F084ECB6
:1007080012F090EC12F057EC12F000D061EC12F0FD
:100718000001CF5106E1C80E0001CE5DD8B08AD0E5
:10072800F5D788D0B0EC11F085D00101285101012E
:10073800D8A445D06BEC12F02DD07AEC11F000D093
:100748000AEC12F00009D8A4FBD7AE0E0001CE6F58
:10075800000E0001CF6F9A0E0001D06F000E00014D
:10076800D16FF4EC0AF0A40E0001CE6F000E000168
:10077800CF6F29C1D0F02AC1D1F015EC05F0250EB4
:100788000001CE6F000E0001CF6F97EC0EF0010153
:10079800286F00D070EC12F00001CF5107E1B50EC0
:1007A8000001CE5DD8B002D0C8D700D001012851D1
:1007B8000101D8A43FD016EC11F046D03BD03FEC55
:1007C80012F0E806D8A414D079EC12F00101216FD8
:1007D800030E01012119D8A404D0010E01010A6FEA
:1007E80029D0040E01012119D8A424D017D022D071
:1007F80017EC0DF0E806D8A402D0010E01D0000EC7
:100808000001E26F75EC0DF0E806D8A402D0010EE5
:1008180001D0000E0001E211E8A004D0010E010190
:100828001E6F08D001011E05D8A404D016EC11F0E3
:100838000BD000D05CEC12F00001CE510001CF11BA
:10084800D8A4D7D5F7D7D5D55BEC10F0030E916EA9
:10085800050EF2EC0EF0000E0001D16F100ED06FF5
:1008680046EC0DF0D0C022F1D1C023F1000E0001FA
:10087800D16F120ED06F46EC0DF0D0C024F1D1C06C
:1008880025F1000E0001D16F140ED06F46EC0DF06B
:10089800D0C026F1D1C027F122C1D6F023C1D7F0AC
:1008A80024C1D8F025C1D9F026C1DAF027C1DBF080
:1008B800DDEC0BF071EC04F096C0D6F097C0D7F0E1
:1008C80092C0D8F093C0D9F094C0DAF095C0DBF0AC
:1008D80047EC0CF033D576EF00F0080EF2EC0EF092
:1008E8009AEC0FF000D09EAAFED7000E0001DA6F36
:1008F800080E0001DA6502D00BD000D09EAAFED700
:1009080097EC10F035EC0EF00001DA2BF1D700D09F
:10091800CEEC0DF0AA0AD8B402D0FAD700D0CEECAB
:100928000DF0E806D8A4FBD7CEEC0DF00001D76F88
:100938000001D7510001D96FD86B000E0001D815FE
:100948000001966FFF0E0001D9150001976FCEECDC
:100958000DF00001D76F0001D75100019613CEECBE
:100968000DF00001D76F0001D7510001D96FD86B86
:10097800000E0001D8150001926FFF0E0001D91575
:100988000001936FCEEC0DF00001D76F0001D75135
:1009980000019213CEEC0DF00001D76F0001D75182
:1009A8000001D96FD86B000E0001D8150001946FB3
:1009B800FF0E0001D9150001956FCEEC0DF0000176
:1009C800D76F0001D75100019413000E0001D26FB8
:1009D800100ED16F96C0D3F097C0D4F0CFEC0FF0C3
:1009E800000E0001D26F120ED16F92C0D3F093C0E7
:1009F800D4F0CFEC0FF0000E0001D26F140ED16FBF
:100A080094C0D3F095C0D4F0CFEC0FF0000E0001E5
:100A1800D26F0D0ED16F010E0001D36FC4EC11F02F
:100A280012002A50D8A43ED0000E0001D76F040E41
:100A38000001D76501D077D0D0C0D9FFD1C0DAFF87
:100A48000001D751020DF3500001CE25E16EF4509C
:100A58000001CF21E26EDE50E65CE650800A00011C
:100A6800D66FDE50800A0001D659D8B00BD00001ED
:100A7800D751010D250EF324D96E000EF420DA6E3D
:100A8800010E0AD00001D751010D250EF324D96EAD
:100A9800000EF420DA6E000EDF6E00D00001D72BB6
:100AA800C6D741D02A04D8A43ED0000E0001D76F83
:100AB800040E0001D76501D036D00001D751020DD0
:100AC800F3500001CE25D96EF4500001CF21DA6E23
:100AD800D0C0E1FFD1C0E2FFDE50E65CE650800AFC
:100AE8000001D66FDE50800A0001D659D8B00BD06D
:100AF8000001D751010D250EF324D96E000EF42004
:100B0800DA6E010E0AD00001D751010D250EF3242B
:100B1800D96E000EF420DA6E000EDF6E00D00001F0
:100B2800D72BC6D700D01200000E0001D96F000ED7
:100B3800D86FD4C0D9FFD5C0DAFFDECFCEF0DDCF75
:100B4800CFF0000E0001D16F030ED06F47EC0FF00D
:100B58000001CE510001D8270001CF510001D9234F
:100B6800000120EE02F0D451D926D551DA22DECF89
:100B7800D6F0DDCFD7F0D8900001D637D7370001AF
:100B8800D6510001D8270001D7510001D92300010F
:100B980020EE04F0D451D926D551DA22DE500001D6
:100BA800D827DD500001D923000120EE06F0D451EA
:100BB800D926D551DA22DECFD6F0DDCFD7F0D890BE
:100BC8000001D637D7370001D61FD71FD64BD72BF2
:100BD8000001D6510001D8270001D7510001D923BF
:100BE800000120EE08F0D451D926D551DA22DECF03
:100BF800CEF0DDCFCFF0FF0E0001D16FFD0ED06F2C
:100C080047EC0FF00001CE510001D8270001CF5169
:100C18000001D923D8C0D4F0D9C0D5F000D0120033
:100C2800070EF2EC0EF000D075EC0DF0E806D8A433
:100C38003CD0000E0001976F140E966F000E000155
:100C4800936F000E926F000E0001956F000E946F67
:100C5800000E0001D26F100ED16F96C0D3F097C06E
:100C6800D4F0CFEC0FF0000E0001D26F120ED16F4E
:100C780092C0D3F093C0D4F0CFEC0FF0000E000177
:100C8800D26F140ED16F94C0D3F095C0D4F0CFECCE
:100C98000FF0000E0001D26F0D0ED16F010E000192
:100CA800D36FC4EC11F036D0BFD717EC0DF0E806BF
:100CB800D8A4BAD7000E0001D16F0D0ED06FFAEC90
:100CC80011F0FF0AD8A403D071EC04F023D0000E71
:100CD8000001D16F100ED06F46EC0DF0D0C096F029
:100CE800D1C097F0000E0001D16F120ED06F46EC04
:100CF8000DF0D0C092F0D1C093F0000E0001D16F7A
:100D0800140ED06F46EC0DF0D0C094F0D1C095F021
:100D180001D08AD712000001D06F40D0870E34EC82
:100D280011F06FD08F0E34EC11F06BD0970E34ECBD
:100D380011F067D09F0E34EC11F063D0A70E34EC9D
:100D480011F05FD0AF0E34EC11F05BD0B70E34EC7D
:100D580011F057D0BF0E34EC11F053D0C70E34EC5D
:100D680011F04FD0CF0E34EC11F04BD0D70E34EC3D
:100D780011F047D0DF0E34EC11F043D0E70E34EC1D
:100D880011F03FD0EF0E34EC11F03BD0F70E34ECFD
:100D980011F037D0FF0E34EC11F033D00001D051F0
:100DA800000AD8B4BBD7010AD8B4BCD7030AD8B450
:100DB800BDD7010AD8B4BED7070AD8B4BFD7010A2D
:100DC800D8B4C0D7030AD8B4C1D7010AD8B4C2D797
:100DD8000F0AD8B4C3D7010AD8B4C4D7030AD8B401
:100DE800C5D7010AD8B4C6D7070AD8B4C7D7010AE5
:100DF800D8B4C8D7030AD8B4C9D7010AD8B4CAD74F
:100E080000D012002D6E40D0870E90EC11F06ED0FD
:100E18008F0E90EC11F06AD0970E90EC11F066D01E
:100E28009F0E90EC11F062D0A70E90EC11F05ED0FE
:100E3800AF0E90EC11F05AD0B70E90EC11F056D0DE
:100E4800BF0E90EC11F052D0C70E90EC11F04ED0BE
:100E5800CF0E90EC11F04AD0D70E90EC11F046D09E
:100E6800DF0E90EC11F042D0E70E90EC11F03ED07E
:100E7800EF0E90EC11F03AD0F70E90EC11F036D05E
:100E8800FF0E90EC11F032D02D50000AD8B4BCD728
:100E9800010AD8B4BDD7030AD8B4BED7010AD8B45A
:100EA800BFD7070AD8B4C0D7010AD8B4C1D7030A34
:100EB800D8B4C2D7010AD8B4C3D70F0AD8B4C4D794
:100EC800010AD8B4C5D7030AD8B4C6D7010AD8B41A
:100ED800C7D7070AD8B4C8D7010AD8B4C9D7030AEC
:100EE800D8B4CAD7010AD8B4CBD700D01200000EA4
:100EF8000001D36F0001D1AF09D00001D06DD11F1F
:100F0800D8B0D12B010E0001D36F00D00001CFAFB4
:100F180009D00001CE6DCF1FD8B0CF2B010E000134
:100F2800D31B00D0000E0001D56F000ED46F000156
:100F3800D0510001D111D8B431D0010E0001D26FC7
:100F480007D00001D890D037D1370001D22B00D07C
:100F58000001D1BF02D0F5D700D00001D890D43716
:100F6800D5370001D0510001CE5D0001D1510001FB
:100F7800CF59D8A00BD00001D0510001CE5F00019D
:100F8800D1510001CF5B0001D48100D00001D8907D
:100F9800D133D0330001D22FE0D700D00001D35194
:100FA8000001D8B406D00001D46DD51FD8B0D52B18
:100FB80000D0D4C0CEF0D5C0CFF000D01200000EC3
:100FC8000001D16F000ED06FFAEC11F0FF0AD8A41F
:100FD80003D09BEC08F050D0000E0001D16F000E3A
:100FE800D06FFAEC11F0E806D8A446D0000E000144
:100FF800E16F040E0001E16501D027D00001E15145
:101008000001DF6FE06BD8900001DF37E037030E97
:101018000001DF250001D06F000E0001E021000172
:10102800D16F46EC0DF00001E151020D9A0EF32448
:10103800D96E000EF420DA6E0001D0C0DEFF000188
:10104800D1C0DDFF0001E12BD4D7000E0001D16F24
:101058000E0ED06F46EC0DF0D0C0BAF0D1C0BBF088
:10106800000E0001D16F010ED06F46EC0DF0D0C01C
:10107800BCF0D1C0BDF000D01200000E0001D36F4B
:101088000001CFAF09D00001CE6DCF1FD8B0CF2B54
:10109800010E0001D36F00D00001D1AF06D00001CE
:1010A800D06DD11FD8B0D12B00D00001D051000194
:1010B800D111D8B42BD0010E0001D26F07D0000196
:1010C800D890D037D1370001D22B00D00001D1BF42
:1010D80002D0F5D700D00001D0510001CE5D00014B
:1010E800D1510001CF59D8A009D00001D051000139
:1010F800CE5F0001D1510001CF5B00D00001D89034
:10110800D133D0330001D22FE6D700D00001D3511C
:101118000001D8B406D00001CE6DCF1FD8B0CF2BB8
:1011280000D0CEC0CEF0CFC0CFF000D01200EAEC95
:1011380009F0000E0001DE6F040E0001DE6501D02B
:1011480025D00001DE510001DC6FDD6BD890000175
:10115800DC37DD37030E0001DC250001D16F000EFE
:101168000001DD210001D26F0001DE51020D9A0E4F
:10117800F324D96E000EF420DA6EDECFD3F0DDCF83
:10118800D4F0CFEC0FF00001DE2BD6D75BEC10F0DB
:10119800E5EC0CF0000E0001D26F0E0ED16FBAC054
:1011A800D3F0BBC0D4F0CFEC0FF05BEC10F047EC01
:1011B80009F0000E0001D26F010ED16FBCC0D3F050
:1011C800BDC0D4F0CFEC0FF0000E0001D26F000EBE
:1011D800D16F010E0001D36FC4EC11F012000001B1
:1011E800D7AF1DD0D6C0D8F0D7C0D9F00001D81FCE
:1011F800D91FD84BD92BC80E0001D8250001D46FB0
:10120800000E0001D9210001D56F31EC12F0000E5B
:101218000001D56FC80ED46F2AEC12F033D000014C
:10122800D7BF1BD00001D75104E10001D605D8A0D3
:1012380014D0000E0001D56FC80ED46F31EC12F037
:10124800C80E0001D6250001D46F000E0001D72179
:101258000001D56F2AEC12F015D00001D65100011B
:10126800D711D8A40FD0000E0001D56FC80ED46FC7
:1012780031EC12F0000E0001D56FC80ED46F2AECC5
:1012880012F000D01200DA0E0001D86F000E000133
:10129800D96F050EF2EC0EF0070E916E3CD0050EDC
:1012A8008FEC06F08EEC12F000D038EC12F000094A
:1012B800D8A4FBD7A6EC11F0CEC0DAF0CFC0DBF093
:1012C8007AEC11F000D00AEC12F0E806D8B4FBD79B
:1012D800AE0E0001CE6F000E0001CF6F9A0E000116
:1012E800D06F000E0001D16FF4EC0AF0A40E0001DB
:1012F800CE6F000E0001CF6FD8C0D0F0D9C0D1F0AA
:1013080015EC05F0250E0001CE6F000E0001CF6F21
:10131800A4EC0DF000D075EC0DF00009D8B4BFD7DF
:10132800DAC0BCF0DBC0BDF0120000D002EC12F055
:101338000009D8A4FBD77FEC0FF0AA0E56EC0EF0EC
:10134800210E56EC0EF0000E0001DA6F040E0001BB
:10135800DA6501D02CD00001DA51020DF3500001FA
:10136800D625D96EF4500001D721DA6EDECFD8F039
:10137800DDCFD9F0D9C0D8F00001D96BD8BFD96971
:101388000001D85156EC0EF00001DA51020DF3506D
:101398000001D625D96EF4500001D721DA6EDF504E
:1013A800FF0DF35056EC0EF00001DA2BCFD70D0EDF
:1013B80056EC0EF00A0E56EC0EF000D002EC12F0CD
:1013C8000009D8A4FBD775EC12F01200030EF2EC5A
:1013D8000EF0070E916E00D075EC0DF00009D8B430
:1013E800FBD77AEC11F000D00AEC12F00009D8A46F
:1013F800FBD7000E0001D96F040E0001D96501D09A
:101408002AD00001D951020DAE0EF324D96E000E78
:10141800F420DA6EDECFD7F0DDCFD8F00001D71F89
:10142800D81FD74BD82B0001B2510001D727000194
:10143800B3510001D8230001D951020D9A0EF324AB
:10144800D96E000EF420DA6ED7C0DEFFD8C0DDFFFB
:101458000001D92BD1D712000001D06F000EAC6E5D
:10146800000EAB6E0001D0A102D0AC8800D0000104
:10147800D0A303D0AC8CAB8C00D00001D0A502D097
:10148800AC8E00D00001D0A702D0AB8802D0AB8AC6
:1014980000D00001D0A902D0AC8400D00001D0ABAC
:1014A80002D0AB8600D00001D0AD02D09D8A02D018
:1014B8009D9A00D00001D0AF02D09D8801D09D98A0
:1014C800CEC0AFFF0001CF517F6EAC8AAB8E949C2B
:1014D800948EACB8ACBE02D0948C00D01200000E32
:1014E800306E2CAE07D02B6C2C1ED8B02C2A010ED7
:1014F800306E00D02EAE05D02D6C2E1ED8B02E2A00
:1015080000D02D502E10D8B41DD0010E2F6E05D04E
:10151800D8902D362E362F2A00D02EBE02D0F8D7DE
:1015280000D02D502B5C2E502C58D8A005D02D5013
:101538002B5E2E502C5A00D0D8902E322D322F2EC2
:10154800F0D700D03050D8B405D02B6C2C1ED8B0B2
:101558002C2A00D02BC02BF02CC02CF000D012006D
:101568000600EACFC3F0E1CFC4F0E2CFC5F0D9CF8F
:10157800C6F0DACFC7F0F3CFC8F0F4CFC9F0F6CF92
:10158800CAF0F7CFCBF0F8CFCCF0F5CFCDF0F2A47E
:1015980004D0F29452EC11F006D0F0A404D0F094E8
:1015A800E8EC0FF000D0CDC0F5FFCCC0F8FFCBC001
:1015B800F7FFCAC0F6FFC9C0F4FFC8C0F3FFC7C031
:1015C800DAFFC6C0D9FFC5C0E2FFC4C0E1FFC3C08F
:1015D800EAFFC2C0E9FFC1C0FBFFC0C0FAFF1100AB
:1015E800000E0001D66F040E0001D66501D036D07A
:1015F8000001D651020DF3500001D025D96EF450E8
:101608000001D121DA6EDECFD2F0DDCFD3F00001B8
:10161800D651020DF3500001CE25D96EF4500001C9
:10162800CF21DA6EDECFD4F0DDCFD5F00001D25174
:101638000001D4270001D3510001D5230001D65160
:10164800020DA40EF324D96E000EF420DA6ED4C075
:10165800DEFFD5C0DDFF0001D62BC5D71200000183
:10166800D26F000EC26E000EC06E0001D890CE314F
:101678003C0BC26ECEC0D0F00001D03BF00ED017AC
:10168800300E0001D0170001CF510F0B0001D0110F
:10169800C16ED2C0D0F00001D890D0370001D890E8
:1016A800D037380E0001D017D2C0D1F00001D13B9D
:1016B8000F0ED117070E0001D1170001D251800B70
:1016C8000001D1110001D011C06E0001CEAF03D0CE
:1016D8009E9C9D8CF28CC280120000D002EC12F00D
:1016E8000009D8A4FBD77FEC0FF0AA0E56EC0EF039
:1016F800310E56EC0EF0D6C0D9FFD7C0DAFFDECFD8
:10170800D8F0DDCFD9F0D9C0D8F00001D96BD8BF57
:10171800D9690001D85156EC0EF0D6C0D9FFD7C010
:10172800DAFFDF5056EC0EF00D0E56EC0EF00A0EF6
:1017380056EC0EF000D002EC12F00009D8A4FBD74A
:1017480075EC12F0120000D002EC12F00009D8A4D7
:10175800FBD77FEC0FF0AA0E56EC0EF0070E56ECF6
:101768000EF0D6C0D9FFD7C0DAFFDECFD8F0DDCF74
:10177800D9F0D9C0D8F00001D96BD8BFD969000118
:10178800D85156EC0EF0D6C0D9FFD7C0DAFFDF50DB
:1017980056EC0EF00D0E56EC0EF00A0E56EC0EF04E
:1017A80000D002EC12F00009D8A4FBD775EC12F0B7
:1017B800120000D002EC12F00009D8A4FBD77FEC8D
:1017C8000FF0AA0E56EC0EF0420E56EC0EF0000189
:1017D800D75156EC0EF00001D65156EC0EF0000130
:1017E800D95156EC0EF00001D85156EC0EF000011C
:1017F800DB5156EC0EF00001DA5156EC0EF00D0EEE
:1018080056EC0EF00A0E56EC0EF000D002EC12F078
:101818000009D8A4FBD775EC12F0120000D002EC36
:1018280012F00009D8A4FBD77FEC0FF0AA0E56ECF3
:101838000EF0410E56EC0EF00001D75156EC0EF0AA
:101848000001D65156EC0EF00001D95156EC0EF0BD
:101858000001D85156EC0EF00001DB5156EC0EF0A9
:101868000001DA5156EC0EF00D0E56EC0EF00A0E91
:1018780056EC0EF000D002EC12F00009D8A4FBD709
:1018880075EC12F0120000D002EC12F00009D8A496
:10189800FBD77FEC0FF0AA0E56EC0EF0430E56EC79
:1018A8000EF00001D75156EC0EF00001D65156EC5F
:1018B8000EF00001D95156EC0EF00001D85156EC4B
:1018C8000EF00001DB5156EC0EF00001DA5156EC37
:1018D8000EF00D0E56EC0EF00A0E56EC0EF000D07F
:1018E80002EC12F00009D8A4FBD775EC12F0120034
:1018F800000E0001D76F000ED66F0FEC0FF0E80650
:10190800D8A417D0CC0E2FEC10F0690E2FEC10F0E5
:101918000C0E2FEC10F02BEC0FF00001D76FD66BEC
:101928002BEC0FF00001D36F0001D3510001D61347
:1019380000D0D6C0D3F0D7C0D4F0050E0001D56FC3
:101948000001D890D433D3330001D52FF9D7D3C0B1
:10195800D1F0D4C0D2F000D0120000D002EC12F0C6
:101968000009D8A4FBD77FEC0FF0AA0E56EC0EF0B6
:10197800060E56EC0EF0D6C0D9FFD7C0DAFFDECF80
:10198800D8F0DDCFD9F0D9C0D8F00001D96B00016B
:10199800D85156EC0EF0D6C0D9FFD7C0DAFFDF50C9
:1019A80056EC0EF00D0E56EC0EF00A0E56EC0EF03C
:1019B80000D002EC12F00009D8A4FBD775EC12F0A5
:1019C8001200040EF2EC0EF0070E916E00D075ECCA
:1019D8000DF00009D8B4FBD77AEC11F000D00AEC6E
:1019E80012F0E806D8B4FBD7AE0E0001CE6F000E99
:1019F8000001CF6F9A0E0001D06F000E0001D16F69
:101A0800F4EC0AF0A8C0BCF0A9C0BDF0A40E000117
:101A1800D46F000E0001D56F98EC05F0D4C0BAF071
:101A2800D5C0BBF012003FEC12F0E806D8A40BD0EA
:101A380079EC12F0060AD8A41FD01BD022D01FD0F0
:101A48001BD01FD01CD081B403D016D01AD017D009
:101A580081A415D06BEC12F000D070EC12F00001EC
:101A6800CF5105E10A0E0001CE5DD8A0F6D781A4BA
:101A780003D0010E06D003D0000E03D000D0000E14
:101A880000D01200D0C0CEF0D1C0CFF045EC10F09D
:101A98000001D26F0001D2510001D46FD36B000E48
:101AA8000001D3150001D56FFF0E0001D415000108
:101AB800D66F010E0001D0250001CE6F000E000187
:101AC800D1210001CF6F45EC10F00001D26F000169
:101AD800D2510001D513D5C0D0F0D6C0D1F000D076
:101AE80012003FEC12F0E806D8A40BD079EC12F003
:101AF800050AD8A41FD01BD022D01FD01BD01FD0BE
:101B08001CD081B203D016D01AD017D081A215D01C
:101B18006BEC12F000D070EC12F00001CF5105E12F
:101B28000A0E0001CE5DD8A0F6D781A203D0010E1F
:101B380006D003D0000E03D000D0000E00D0120053
:101B4800000E916E000E0001D26F040E0001D265E6
:101B580001D01FD0D2C0D0F00001D251010DF350F6
:101B68000001CE25D96EF4500001CF21DA6EDF5086
:101B78000001D16F0001D02B03D00001D890D137DC
:101B88000001D02FFAD70001D151911A0001D22BB0
:101B9800DCD712001D50010D600EF324D96E000E23
:101BA800F420DA6EDF500001D56F1DC0D4F0010EAD
:101BB8000001D4270001D4510001CE6FCF6B000E75
:101BC8000001D16F190ED06F41EC08F00001CE5121
:101BD8001D6E0001D55100D01200CEC0D0F0CFC08C
:101BE800D1F0060ED8900001D037D137E82EFAD7B9
:101BF800D0C0D2F0D1C0D3F0D3C074FFD2C0D0F0DF
:101C08000001D890D0330001D890D033300E0001B5
:101C1800D0177350CF0B0001D011736E1200CEC0D5
:101C2800D0F0CFC0D1F0060ED8900001D037D13710
:101C3800E82EFAD7D0C0D2F0D1C0D3F0D3C071FF0C
:101C4800D2C0D0F00001D890D0330001D890D03362
:101C5800300E0001D0177050CF0B0001D011706EFC
:101C680012000001D56F1F50010D600EF324D96ECC
:101C7800000EF420DA6ED5C0DFFF1FC0D4F0010ECD
:101C88000001D4270001D4510001CE6FCF6B000EA4
:101C98000001D16F190ED06F41EC08F00001CE5150
:101CA8001F6E12000001D56F2050010D790EF3242C
:101CB800D96E000EF420DA6ED5C0DFFF20C0D4F054
:101CC800010E0001D4270001D4510001CE6FCF6B63
:101CD800000E0001D16F190ED06F41EC08F0000121
:101CE800CE51206E1200040E0001CF5DD8B01AD07C
:101CF80001D018D0CEC0A9FF0001CF51030BAA6EA6
:101D0800D0C0A8FFA69EA69CA684F29E550EA76EDC
:101D1800AA0EA76EA68200D0A6B2FED7A694F28E0F
:101D2800A65000D01200000E0001D06F000E000176
:101D3800D16F040E0001D16501D011D00001D1513D
:101D4800010DF3500001CE25D96EF4500001CF21CA
:101D5800DA6EDF500001D0270001D12BEAD700014D
:101D6800D05100D0120000D002EC12F00009D8A423
:101D7800FBD77FEC0FF0AA0E56EC0EF0110E56ECC6
:101D88000EF0D6C0D9FFD7C0DAFFDF5056EC0EF000
:101D98000D0E56EC0EF00A0E56EC0EF075EC12F025
:101DA80012000001CE6F0001CE510001D8B40AD054
:101DB80090969996040EE82EFED79986350EE82E51
:101DC800FED709D090969996320EE82EFED79986BE
:101DD800080EE82EFED700F000D012000001D66FE2
:101DE80000D002EC12F00009D8A4FBD77FEC0FF06A
:101DF800AA0E56EC0EF0010E56EC0EF00001D6516C
:101E080056EC0EF00D0E56EC0EF00A0E56EC0EF0D7
:101E180075EC12F01200000E0001CE6F90969996A4
:101E2800F00E00D0E82EFDD79986380EE82EFED7A2
:101E380000D090B604D0010E0001CE6F00D0FD0E88
:101E480000F0E82EFDD70001CE5100D01200000EA0
:101E58000001CF6F000E0001D06F070E0001D065A2
:101E680001D00DD00001D890CF3301EC10F000095B
:101E7800D8B402D00001CF8F0001D02BEED70001DB
:101E8800CF5100D012000001CE510001D003F3CF92
:101E9800D2F0F4CFD3F00001CE510001D103F350BA
:101EA8000001D3270001CF510001D003F3500001F6
:101EB800D327D2C0CEF0D3C0CFF000D012001E502E
:101EC800010D790EF324D96E000EF420DA6EDF507E
:101ED800326E1EC031F0010E312631502B6E2C6A45
:101EE800000E2E6E190E2D6E73EC0AF02B501E6E1E
:101EF800325000D01200000E0001CE6F180E000103
:101F0800CE6501D00ED00001CE51010D790EF3241B
:101F1800D96E000EF420DA6E000EDF6E0001CE2BB3
:101F2800EDD7000E206E000E1E6E1200000E00018E
:101F3800CE6F180E0001CE6501D00ED00001CE5133
:101F4800010D600EF324D96E000EF420DA6E000E37
:101F5800DF6E0001CE2BEDD7000E1F6E000E1D6E3A
:101F680012000001CE6F0001CE517E0BCD6E000134
:101F7800CEAD02D0CD8E02D0CD9E00D0000ECF6E59
:101F8800000ECE6E9E900001CEAF02D09D8001D093
:101F98009D90CD801200D1C0CEF0D2C0CFF000010C
:101FA800D4510001D06F77EC0EF0010E0001D1255D
:101FB8000001CE6F000E0001D2210001CF6FD3C007
:101FC800D0F077EC0EF01200F09ACDB009D0CD80A9
:101FD800000E456E000E446EDFEC11F0F1960AD04B
:101FE800CD90E8EC11F044C00BF045C00CF0010EA8
:101FF8001C6E00D0F094F08A120090969996040E08
:10200800E82EFED79986080EE82EFED700F0000EBF
:1020180087B6010E0001CE6F2D0EE82EFED700D038
:102028000001CE51010B00D012000FEC0FF0E806B2
:10203800D8A410D0CC0E2FEC10F06C0E2FEC10F0B2
:10204800100E2FEC10F0000E2FEC10F0000E2FECFD
:1020580010F000D012000001CF6F000E0001D06F09
:10206800070E0001D06501D00BD00001CF51010B44
:10207800D5EC0EF00001D890CF330001D02BF0D76B
:102088001200040E0001CF5DD8A002D0000E0ED0C1
:10209800CEC0A9FF0001CF51030BAA6EA69EA69C35
:1020A800A68000D0A6B0FED7A85000D01200000E1F
:1020B800916E1F0E916E4B0E25EC11F0000E916E75
:1020C8004B0E25EC11F01F0E916E4B0E25EC11F006
:1020D800000E916E1200D2C0E6F0D3C0E7F0D4C073
:1020E800E8F0D5C0E9F0D6C0EAF0D7C0EBF0000EB2
:1020F8000001CF6F000ECE6FCDEC11F01200F28E02
:10210800F28CD08EF09AF094F186F182F28AF294F1
:10211800F1849D9C9E9C9F9C9D9A9D989E9A9E98BA
:102128009F9A9F981200F20E1B16ABAC05D01B901D
:10213800ABA002D01B8000D0ABB41B84ABB21B8613
:10214800AECFCEF00001CE5100D012000001CE6F0C
:102158000001CE517F0BD56E000ED76E000ED66EE5
:10216800F2940001CEAF02D0F28A01D0F29AD58E55
:1021780012000001CE6F0C0E706EB1ACB1B605D076
:10218800CA94CEC0CBFFCA8405D07694CEC077FF60
:10219800768400D0989812000001CE6F0C0E736EF2
:1021A8009896B1ACB1B605D0CA94CEC0CBFFCA845C
:1021B80005D07694CEC077FF768400D0120063EC09
:1021C8000FF0196E0A0E1918D8A407D019509BECF5
:1021D80011F0010E1A6E9D9804D019509BEC11F065
:1021E80000D012000001CE6F0001CE51FB0BCA6E69
:1021F800000ECC6E9E920001CEAF02D09D8201D01F
:102208009D92CA84120000EE60F05E0EEE6AE80647
:10221800FDE100EE01F02A0EEE6AE806FDE100019C
:1022280078EF00F0020E0001D56F0E0ED46F2AEC85
:1022380012F0020E0001D56F0E0ED46F31EC12F0C1
:1022480012000001CF6F0D0E0001CE6FFC0EE82EBC
:10225800FED7CE2FFCD70001CF2FF5D700D0120024
:102268000001CF6FC2CFCEF0C30E0001CE17000120
:10227800D890CF313C0B0001CE11C26E1200000E77
:102288000001CF6F400ECE6F3C0E30EC0AF07FECB1
:102298000FF09AEC0FF0010E1A6E1200F60E456E52
:1022A8003C0E446EF1EC11F00D4A0E2A0F4A102A2A
:1022B800114A122A134A142A1200926893689F0E30
:1022C800946EE00E956E000E966EE70E986E000EF8
:1022D8009A6E1200550EB5EC0FF0CD90000E00016D
:1022E800CF6F000ECE6FCDEC11F01200000E236EF2
:1022F800000E226E23508FEC06F08EEC12F09D8CAF
:1023080012009F0EAAEC10F0F60E0001CF6F3C0EE3
:10231800CE6FD6EC11F012002C6EC2CF2BF0C30E8C
:102328002B16D8902C303C0B2B10C26E12002B6E43
:10233800ACAC05D0AC901BA202D0AC8000D02BC0B6
:10234800ADFF1200C4500001D06FC3500001CE6F22
:10235800D0C0CFF000D012008D8A190E12EC12F006
:102368008D9AF186F08A000E1C6E1200040E000190
:10237800CE6F090E0001CF6F950E33EC0BF01200F3
:10238800D1C0CEF0D2C0CFF0D3C0D0F077EC0EF0F1
:102398001200CEC0D0F0CFC0D1F0D1C0CFFFD0C096
:1023A800CEFF1200CEC0D0F0CFC0D1F0D1C0D7FF41
:1023B800D0C0D6FF120044C0BEF045C0BFF0BFC0B9
:1023C800CFFFBEC0CEFF1200CECFBEF0CFCFBFF042
:1023D800BEC044F0BFC045F0120044C0BEF045C0C6
:1023E800BFF0BFC0D7FFBEC0D6FF1200D0C0CEF02E
:1023F800D1C0CFF045EC10F000D012001A50D8A48C
:1024080002D0010E02D0000E00D012002250D8A433
:1024180002D0010E02D0000E00D012000001CE6FD3
:1024280000F00001CE2FFCD700D012001C50D8A419
:1024380002D0010E02D0000E00D01200C4502D6E42
:10244800C3502B6E2DC02CF000D01200D4C0CEF09B
:10245800D5C0CFF0F1EC0DF01200D4C0CEF0D5C04D
:10246800CFF013EC0EF01200C2A202D0010E02D07F
:10247800000E00D012009EAA02D0010E02D0000E5B
:1024880000D01200820ED0EC10F0820EBDEC10F0DD
:102498001200000E146E000E136E1200000E106E65
:1024A800000E0F6E1200000E0E6E000E0D6E120062
:1024B8000FC0CEF010C0CFF012000DC0CEF00EC08D
:1024C800CFF012000BC0CEF00CC0CFF01200000EFF
:1024D800126E000E116E120011C0CEF012C0CFF0B5
:1024E8001200000E1A6E9D88120097EC10F000D0B2
:1024F8001200040EF6EC10F012008C908C9412006E
:102508008C868C8212001F0E8D6E12008C96120023
:102518008C821200C28212008C8812008C981200E1
:04252800C282120059
:020000040020DA
:08000000FFFFFFFFFFFFFFFF00
:020000040030CA
:0E000000FF02011EF38180FFFFC0FFE0FF4002
:00000001FF
