:0400000070EF00F0AD
:10000800FACF1AF0FBCF1BF0E9CF1CF04BED14F040
:10001800D8CF05F0E8CF06F0E0CF07F0FACF08F028
:10002800FBCF09F0E9CF0AF0EACF0BF0E1CF0CF0F3
:10003800E2CF0DF0D9CF0EF0DACF0FF0F3CF10F0FA
:10004800F4CF11F0F6CF12F0F7CF13F0F8CF14F089
:10005800F5CF15F09EAC1DD09E9C050E3A6015D0CC
:100068000DEC17F03A50020DF3504624D96EF450B7
:100078004720DA6E01C0DEFF02C0DDFF3A2A3A509F
:1000880012EC11F047EC17F004D0010E396E9D9C6C
:1000980000D015C0F5FF14C0F8FF13C0F7FF12C059
:1000A800F6FF11C0F4FF10C0F3FF0FC0DAFF0EC057
:1000B800D9FF0DC0E2FF0CC0E1FF0BC0EAFF0AC088
:1000C800E9FF09C0FBFF08C0FAFF07C0E0FF06C050
:0C00D800E8FF05C0D8FF100065EF16F02F
:101000000000803F72313FFE753E58633D951D3CA8
:10101000C5AE3A79213994803793A73556153400F7
:10102000000000803FF0FFBEE2A93E8376BEAE2BFB
:101030003E3CC3BDD2133D78D3BB00007DC081F0E0
:101040000001826B836B00017C350001813701E375
:101050008281000181510001866F80C081F0000112
:10106000826B836B00017F350001813701E3828150
:10107000000181510001856F000186510001D8B443
:1010800011D0000185510001865DD8B012D0000159
:1010900086510008000185250001816F180E0001AE
:1010A000816507D07EC07BF07FC07CF080C07DF082
:1010B00003D1000185510001D8B411D0000186513F
:1010C0000001855DD8B012D00001855100080001F3
:1010D00086250001816F180E0001816507D07BC055
:1010E0007BF07CC07CF07DC07DF0E6D0060E000178
:1010F000846F00017DAF03D00001848F00D0000118
:1011000080AF02D00001848D00017C8FFF0E0001B2
:101110007B17FF0E00017C17000E00017D170001F8
:101120007F8FFF0E00017E17FF0E00017F17000E5C
:1011300000018017000185510001865DD8B028D0DC
:101140000001D8907E377F37803700018507000186
:10115000865100018519D8B413D00001840784C0DA
:1011600081F0070E00018117D8B40AD0E9D708D062
:101170000001D8907D337C337B330001862B00D077
:101180000001855100018619D8B430D0F1D72ED096
:10119000000186510001855DD8B028D00001D890AB
:1011A0007B377C377D3700018607000186510001BF
:1011B0008519D8B413D00001840784C081F0070ECC
:1011C00000018117D8B40AD0E9D708D00001D8901F
:1011D00080337F337E330001852B00D000018551A1
:1011E00000018619D8B402D0F1D700D0000184AF35
:1011F00012D0FF0E00017B1BFF0E00017C1BFF0EB7
:1012000000017D1B010E00017B27000E00017C23E5
:10121000000E00017D23000184AD13D0FF0E0001FC
:101220007E1BFF0E00017F1BFF0E0001801B010EC5
:1012300000017E27000E00017F23000E00018023A5
:1012400000D0000E0001846F00017B5100017E2759
:1012500000017C5100017F2300017D5100018023AA
:10126000000180AF16D0FF0E00017E1BFF0E0001B3
:101270007F1BFF0E0001801B010E00017E27000E68
:1012800000017F23000E00018023010E0001846F06
:1012900000D07EC060F07FC061F080C062F086C088
:1012A00063F084C064F087EC0EF060C07BF061C036
:1012B0007CF062C07DF000D0120000019C51000162
:1012C0009D1100019E11D8A409D0000E00019C6F51
:1012D000800E00019D6F3F0E3DD002D1720E0001C5
:1012E000606F310E0001616F440E0001626F9CC09F
:1012F00063F09DC064F09EC065F087EC11F00001C2
:10130000D8B00ED0000E0001DE6F220EDD6FFF0E92
:1013100000019C6F7F0E00019D6F7F0E1BD0E0D0FF
:101320009CC060F09DC061F09EC062F0490E00015B
:10133000636F3A0E0001646FC40E0001656F87ECA5
:1013400011F00001D8B009D0000E0001DE6F220EAE
:10135000DD6F9FD000019E6FC3D000019EAF02D011
:10136000010E01D0000E0001A46F0001A451000184
:10137000D8B40ED09CC060F09DC061F09EC062F0F9
:10138000D7EC15F060C09CF061C09DF062C09EF08B
:101390009CC06CF09DC06DF09EC06EF0AA0E000166
:1013A0006F6FB80E0001706F3F0E0001716FFFECA0
:1013B0000BF06CC09CF06DC09DF06EC09EF09CC0A8
:1013C00094F09DC095F09EC096F0A2EC0FF094C0F2
:1013D0009FF095C0A0F096C0A1F09FC07BF0A0C088
:1013E0007CF0A1C07DF0EEEC0DF07BC0A2F07CC0E3
:1013F000A3F09CC087F09DC088F09EC089F0A2C079
:1014000068F0A3C069F053EC15F068C08AF069C0B9
:101410008BF06AC08CF02BEC15F087C09CF088C074
:101420009DF089C09EF09CC087F09DC088F09EC052
:1014300089F0010E00018A6F100E00018B6F000E03
:1014400000018D6F090E8C6F20EC10F087C093F0B7
:1014500088C094F089C095F0A2C096F0A3C097F020
:1014600017EC0FF093C09CF094C09DF095C09EF0D7
:101470000001A4510001D8B42DD000019C2912E133
:101480007F0E00019D190EE17F0E00019E19D8A468
:1014900009D0000E00019C6F000E00019D6F000E30
:1014A00059D71ED0000E0001686F800E0001696FD1
:1014B0003F0E00016A6F9CC06BF09DC06CF09EC037
:1014C0006DF0ADEC0CF068C09CF069C09DF06AC096
:1014D0009EF006D09CC09CF09DC09DF09EC09EF0EA
:1014E0001200000E0001B16F0001A5510001A6110C
:1014F0000001A711D8A416D0000E0001606F000EE5
:101500000001616F000E0001626FA8C063F0A9C006
:1015100064F0AAC065F087EC11F00001D8A045D0B6
:101520003FD0ABD00001A8510001A9110001AA11C0
:10153000D8A409D0000E0001A56F800E0001A66F8F
:101540003F0E3AD09AD00001A7AF4DD0A8C07BF093
:10155000A9C07CF0AAC07DF0EEEC0DF07BC0B2F02B
:101560007CC0B3F07DC0B4F07EC0B5F0B2C068F00E
:10157000B3C069F0B4C06AF0B5C06BF092EC13F080
:101580000001A851000168190BE10001A9510001F7
:10159000691906E10001AA5100016A19D8B40FD0F7
:1015A000000E0001DE6F210EDD6F000E0001A56F41
:1015B000000E0001A66F000E0001A76F5ED00001B3
:1015C000B251010B0001B16FA5C060F0A6C061F07F
:1015D000A7C062F0D7EC15F060C0A5F061C0A6F01E
:1015E00062C0A7F000D0A5C093F0A6C094F0A7C039
:1015F00095F04EEC0DF093C0ABF094C0ACF095C0FC
:10160000ADF0ABC06CF0ACC06DF0ADC06EF0A8C07A
:101610006FF0A9C070F0AAC071F0FFEC0BF06CC0C5
:10162000AEF06DC0AFF06EC0B0F0AEC09CF0AFC019
:101630009DF0B0C09EF05DEC09F09CC0A5F09DC08F
:10164000A6F09EC0A7F00001B1510001D8B40FD0A0
:10165000A5C060F0A6C061F0A7C062F0D7EC15F09D
:1016600060C0A5F061C0A6F062C0A7F006D0A5C01A
:10167000A5F0A6C0A6F0A7C0A7F012003C0E466ECB
:10168000000E476E92EC16F0CCEC16F0ABEC16F0B8
:1016900036EC17F023EC17F0D6EC16F040EC17F010
:1016A000000E0001E06F000EDF6F000E0001DC6F26
:1016B000000EDB6F000E916E06D085EC14F00A0E62
:1016C00074EC16F000D081A2F8D707EC16F006D023
:1016D00042EC13F00A0E74EC16F000D081A2F8D799
:1016E00007EC16F03AEC17F0010E0001676FF40EEC
:1016F000666F1CEC17F0010E0001676FF40E666F49
:1017000015EC17F043EC17F03DEC17F000D0B6ECF9
:1017100016F000D005EC17F00009D8A4FBD710ECA8
:1017200014F0BEEC14F09EEC12F00001BB6F00014F
:10173000BB510001BE6FBF6B0001BE51EEEC11F05A
:1017400060C0DFF061C0E0F0DFC060F0E0C061F0D9
:10175000000E0001636F0A0E626FBBEC15F060C0F3
:10176000DBF061C0DCF0DBC068F0DCC069F0F6ECF7
:1017700014F0000E0001C06F040E0001C06501D01E
:101780002AD00001C051020DCB0EF324D96E000EF9
:10179000F420DA6EDE50355C3650800A0001BD6FF1
:1017A000DE50800A0001BD59D8B012D0C0C0BBF0D5
:1017B000010E0001BC6F0001BB2B03D00001D890CB
:1017C000BC370001BB2FFAD70001BC51911200D0E9
:1017D0000001C02BD1D79FEC16F000D031EC17F0F0
:1017E0000001615107E1050E0001605DD8B002D033
:1017F000F5D700D0000E916E8AD770EF00F06EC062
:1018000072F00001736B746B00016D35000172376B
:1018100001E37381000172510001756F0001755180
:10182000D8A402D014D098D071C072F00001736BAC
:10183000746B000170350001723701E373810001A0
:10184000725100017A6F00017A51D8A40AD0000EBB
:1018500000016C6F000E00016D6F000E00016E6FD5
:101860007BD000017A517B0F000175276EC07AF0A2
:101870000001715100017A1B800E00017A170001EE
:101880006D8F0001708FFF0E00016F17FF0E0001BA
:101890007017000E00017117000E0001766F000E28
:1018A0000001776F000E0001786F070E0001796F5D
:1018B00000D000016CA10DD000016F51000176270E
:1018C000000170510001772300017151000178235C
:1018D00000D00001D8906E336D336C330001D89086
:1018E0006F37703771370001792FE3D700D0090EB9
:1018F0000001796F00D000016CA10DD000016F5183
:101900000001762700017051000177230001715119
:101910000001782300D00001D8906E336D336C3312
:101920000001D8907833773376330001792FE3D7ED
:1019300000D076C060F077C061F078C062F075C00A
:1019400063F07AC064F087EC0EF060C06CF061C0A8
:101950006DF062C06EF000D012006AC06EF000013F
:101960006F6B706B0001693500016E3701E36F81A9
:1019700000016E510001756F00017551D8A402D0AD
:1019800014D08BD06DC06EF000016F6B706B0001D6
:101990006C3500016E3701E36F8100016E5100016B
:1019A000766F00017651D8A40AD0000E0001686F4E
:1019B000000E0001696F000E00016A6F6ED0000E0C
:1019C0000001726F000E0001736F000E0001746F52
:1019D00000017651890F0001755F6AC076F0000141
:1019E0006D510001761B800E000176170001698F92
:1019F000FF0E00016817FF0E00016917000E0001BD
:101A00006A1700016C8FFF0E00016B17FF0E0001BB
:101A10006C17000E00016D17180E0001716F00D0D9
:101A20000001D89072377337743700016B51000191
:101A3000685D00016C510001695900016D510001A0
:101A40006A59D8A00ED000016B510001685F0001F7
:101A50006C510001695B00016D5100016A5B00017E
:101A600072810001D890683769376A370001712F99
:101A7000D7D700D072C060F073C061F074C062F05C
:101A800075C063F076C064F087EC0EF060C068F05B
:101A900061C069F062C06AF000D01200000195AF29
:101AA00006D0000E0001DE6F210E0DD096D0000191
:101AB00093510001941100019511D8A40FD0000E8C
:101AC0000001DE6F220EDD6F000E0001936F000E2D
:101AD0000001946F000E0001956F7FD0000E000191
:101AE0006F6F000E0001706F400E0001716F960E57
:101AF0000001636F000E0001646F93C060F094C03A
:101B000061F095C062F047EC12F060C06CF061C00B
:101B10006DF062C06EF0FFEC0BF06CC07BF06DC03E
:101B20007CF06EC07DF0000E00017E6F800E000123
:101B30007F6FBF0E0001806F1EEC08F07BC093F03A
:101B40007CC094F07DC095F000019607D8A097075F
:101B500093C087F094C088F095C089F01F0E0001F3
:101B60008A6F100E00018B6F000E00018D6F080E42
:101B70008C6F20EC10F087C093F088C094F089C07F
:101B800095F0720E00016F6F310E0001706F3F0E05
:101B90000001716F96C068F097C069F053EC15F0C2
:101BA00068C06CF069C06DF06AC06EF0FFEC0BF0BD
:101BB0006CC07BF06DC07CF06EC07DF093C07EF099
:101BC00094C07FF095C080F01EEC08F07BC093F0CD
:101BD0007CC094F07DC095F000D012007DC07FF0F5
:101BE0000001806B816B00017C3500017F3701E3D0
:101BF000808100017F510001896F00018951D8A4C3
:101C000002D051D083D0170E00017F6F7BC080F0CF
:101C10007CC081F07DC082F000017F290001836FCC
:101C200005D00001D8908233813380330001832FA7
:101C3000F8D7000180510001846F00017C8FFF0EF6
:101C400000017B17FF0E00017C17000E00017D17BD
:101C500000017B510001856F00017C510001866FFE
:101C600000017D510001876F0001886B8E0E00011D
:101C7000895F000189AF13D000018951800A8F0F5D
:101C8000D8B003D010D042D000D00001D890883313
:101C90008733863385330001893FF7D71FD0170E6E
:101CA0000001896514D0000E00017B6F000E7C6F6F
:101CB000000E7D6F000E7E6F29D009D00001D890F4
:101CC00085378637873788370001890700D00001BC
:101CD00089510001D8B402D0F1D700D0000184515D
:101CE0000001D8B40AD00001881F871F861F856DA8
:101CF000000E86238723882300D085C07BF086C012
:101D00007CF087C07DF088C07EF000D0120000011A
:101D100063510001D8B408D0000160510001611185
:101D200000016211D8A413D0000E0001606F000EF4
:101D30000001616F000E0001626F78D008D00001D1
:101D4000632B0001D89062336133603300D0000E02
:101D5000000160150001656F000E000161150001B2
:101D6000666FFE0E000162150001676F000165518C
:101D70000001661100016711D8B413D0E0D711D06B
:101D80000001632B010E00016027000E000161239A
:101D9000000E000162230001D8906233613360338A
:101DA00000D0000E000160150001656F000E0001FB
:101DB00061150001666FFF0E000162150001676F7B
:101DC000000165510001661100016711D8B40AD005
:101DD000D7D708D0000163070001D890603761377A
:101DE000623700D0000161BF05D0020E00016361BF
:101DF000F1D700D0000163B103D00001619F00D092
:101E00000001D890633300016351000162130001A7
:101E100064510001D8B403D00001628F00D060C0CB
:101E200060F061C061F062C062F000D01200000199
:101E300093510001941100019511D8A402D02AD029
:101E400080D0000195517F0B0001986F996BD8905D
:101E50000001983799370001985100019627000139
:101E6000995100019723000194AF04D00001986BB1
:101E7000982B02D00001986B000198510001962721
:101E8000000E9723000197AF0FD0000E0001DE6F08
:101E9000220EDD6F000E0001936F000E0001946FA3
:101EA000000E22D04ED046D0000197BF21D00001B5
:101EB0009705D8A01DD0000E0001DE6F220EDD6F49
:101EC000000195AF0AD0FF0E0001936F7F0E000155
:101ED000946FFF0E09D035D02DD0FF0E0001936F07
:101EE0007F0E0001946F7F0E0001956F2AD022D0E3
:101EF0000001973597310001996F0001963100017B
:101F0000986F0001955100019819800B98190001F4
:101F1000956F96C098F0010E000198170001983354
:101F2000983300019451000198197F0B9819000112
:101F3000946F00D093C093F094C094F095C095F046
:101F400000D0120094C060F095C061F096C062F0BD
:101F50009A0E0001636F000E0001646F47EC12F0EF
:101F600000019BAF16D0000196AF09D0000E000112
:101F7000946F800E0001956FBF0E08D060D0000EE8
:101F80000001946F000E0001956F000E0001966F26
:101F900056D000019B5105E1150E00019A5DD8A0B5
:101FA00007D094C094F095C095F096C096F047D0B5
:101FB00094C07BF095C07CF096C07DF0EEEC0DF007
:101FC0007BC08AF07CC08BF07DC08CF07EC08DF031
:101FD000F1EC12F08AC097F08BC098F08CC099F0A9
:101FE00094C060F095C061F096C062F097C063F055
:101FF00098C064F099C065F087EC11F00001D8B08A
:1020000018D097C07BF098C07CF099C07DF0000E8E
:1020100000017E6F800E00017F6FBF0E0001806F98
:102020001EEC08F07BC094F07CC095F07DC096F06B
:1020300006D097C094F098C095F099C096F0120021
:102040008CC060F08DC061F0000E0001636F030E64
:10205000626FBBEC15F08AC08EF08BC08FF0000170
:10206000605100018E270001615100018F238EC055
:10207000F6FF8FC0F7FF000EF86E0900F5CF90F065
:102080000900F5CF91F00A00F5CF92F047D090C04B
:102090006FF091C070F092C071F087C06CF088C092
:1020A0006DF089C06EF0FFEC0BF06CC07BF06DC082
:1020B0007CF06EC07DF0000E0001636F030E626F56
:1020C00000018C07D8A08D078CC060F08DC061F036
:1020D000BBEC15F08AC08EF08BC08FF00001605110
:1020E00000018E270001615100018F238EC0F6FF91
:1020F0008FC0F7FF000EF86E0900F5CF7EF00900E3
:10210000F5CF7FF00A00F5CF80F01EEC08F07BC021
:1021100090F07CC091F07DC092F000D000018C5115
:1021200000018D11D8A4B3D790C087F091C088F07A
:1021300092C089F012000001626F40D0870E83ECDC
:1021400016F06FD08F0E83EC16F06BD0970E83ECE9
:1021500016F067D09F0E83EC16F063D0A70E83ECC9
:1021600016F05FD0AF0E83EC16F05BD0B70E83ECA9
:1021700016F057D0BF0E83EC16F053D0C70E83EC89
:1021800016F04FD0CF0E83EC16F04BD0D70E83EC69
:1021900016F047D0DF0E83EC16F043D0E70E83EC49
:1021A00016F03FD0EF0E83EC16F03BD0F70E83EC29
:1021B00016F037D0FF0E83EC16F033D000016251D9
:1021C000000AD8B4BBD7010AD8B4BCD7030AD8B424
:1021D000BDD7010AD8B4BED7070AD8B4BFD7010A01
:1021E000D8B4C0D7030AD8B4C1D7010AD8B4C2D76B
:1021F0000F0AD8B4C3D7010AD8B4C4D7030AD8B4D5
:10220000C5D7010AD8B4C6D7070AD8B4C7D7010AB8
:10221000D8B4C8D7030AD8B4C9D7010AD8B4CAD722
:1022200000D01200036E40D0870EC1EC16F06ED0C5
:102230008F0EC1EC16F06AD0970EC1EC16F066D086
:102240009F0EC1EC16F062D0A70EC1EC16F05ED066
:10225000AF0EC1EC16F05AD0B70EC1EC16F056D046
:10226000BF0EC1EC16F052D0C70EC1EC16F04ED026
:10227000CF0EC1EC16F04AD0D70EC1EC16F046D006
:10228000DF0EC1EC16F042D0E70EC1EC16F03ED0E6
:10229000EF0EC1EC16F03AD0F70EC1EC16F036D0C6
:1022A000FF0EC1EC16F032D00350000AD8B4BCD7F0
:1022B000010AD8B4BDD7030AD8B4BED7010AD8B42E
:1022C000BFD7070AD8B4C0D7010AD8B4C1D7030A08
:1022D000D8B4C2D7010AD8B4C3D70F0AD8B4C4D768
:1022E000010AD8B4C5D7030AD8B4C6D7010AD8B4EE
:1022F000C7D7070AD8B4C8D7010AD8B4C9D7030AC0
:10230000D8B4CAD7010AD8B4CBD700D01200000184
:1023100062AF1ED060C066F061C067F062C068F056
:102320000001661F671F681F662B000E6723682366
:10233000000E000166250001606F000E000167219C
:102340000001616F800E000168210001626F00D002
:10235000000165AF1ED063C066F064C067F065C061
:1023600068F00001661F671F681F662B000E672359
:102370006823000E000166250001636F000E000156
:1023800067210001646F800E000168210001656F04
:1023900000D0000E0001601B000E0001611B800ECA
:1023A0000001621B000E0001631B000E0001641B94
:1023B000800E0001651B000163510001605D00019A
:1023C0006451000161590001655100016259D8B0A2
:1023D00002D0D89002D0D88000D012000001626FE5
:1023E00031D0000E0001616F100E4ED04FD0000EA4
:1023F0000001616F090E48D049D0000E0001616FE5
:10240000040E42D043D0000E0001616F010E3CD09B
:102410003DD036D03BD000016069616937D0FF0EF6
:102420000001616FFC0E30D031D0FF0E0001616FF2
:10243000F70E2AD02BD0FF0E0001616FF00E24D0D2
:1024400025D01ED000016251010AD8B4F4D7030A86
:10245000D8B4E5D7010AD8B4E8D7070AD8B410D061
:10246000020AD8B4D8D70E0AD8B4C7D7040AD8B449
:10247000CAD71C0AD8B4B5D7080AD8B4B8D700D080
:10248000000E0001616F000E606F00D012000001AD
:1024900060510001611100016211D8A412D063C023
:1024A000D9FF64C0DAFF000EDE6E000EDD6E000E96
:1024B0000001606F000E0001616F000E0001626F8D
:1024C0003CD0000162517F0B0001656F666BD890B4
:1024D00000016537663763C0D9FF64C0DAFF65C0A5
:1024E000DEFF66C0DDFF000161AF04D00001656B57
:1024F000652B02D00001656B0001655163C0D9FFF7
:1025000064C0DAFFDE12000EDD1263C0D9FF64C0C2
:10251000DAFF820EDE26FF0EDD2262816283628593
:1025200062876289628B629D0001619F60C060F07A
:1025300061C061F062C062F000D01200000E0001C4
:10254000B96F000E0001BA6F040E0001BA6501D028
:1025500044D00001BA51EFEC15F068C0A8F069C092
:10256000A9F06AC0AAF0000E0001A56F000E0001DC
:10257000A66F400E0001A76F71EC0AF0A5C0B6F07F
:10258000A6C0B7F0A7C0B8F0B6C06FF0B7C070F083
:10259000B8C071F00001BA51010D2E0EF324D96EAE
:1025A000000EF420DA6EDF50EFEC15F068C06CF02E
:1025B00069C06DF06AC06EF0FFEC0BF06CC07BF090
:1025C0006DC07CF06EC07DF0EEEC0DF000017B5133
:1025D0000001B9270001BA2BB7D70001B95100D0CB
:1025E0001200000E0001936F8E0E0001926F000129
:1025F0008DAF16D000018D1F8C1F8B1F8A6D000EB2
:102600008B238C238D23010E0001936F09D00001D1
:10261000D8908D338C338B338A330001922B00D0CA
:10262000000E00018A1500018E6F000E00018B154F
:1026300000018F6F000E00018C150001906FFF0EDE
:1026400000018D150001916F00018E5100018F1165
:102650000001901100019111D8A4D9D78AC060F06F
:102660008BC061F08CC062F092C063F093C064F0E4
:1026700087EC0EF060C08AF061C08BF062C08CF015
:1026800000D01200000E916E050E9BEC10F045EC90
:1026900017F000D02AEC17F00009D8A4FBD7E0EC23
:1026A00016F060C035F061C036F0B6EC16F000D020
:1026B00005EC17F00009D8A4FBD710EC14F0000EBD
:1026C0000001686F040E0001686501D02AD0000186
:1026D0006851020DCB0EF324D96E000EF420DA6E91
:1026E0003550DE5CDE50800A0001676F3650800A8C
:1026F00000016759D8B012D068C065F0010E000122
:10270000666F0001652B03D00001D8906637000189
:10271000652FFAD700016651911200D00001682B95
:10272000D1D712008E0E0001706F09D00001D89031
:102730006B336A33693368330001702B00D0000EAD
:102740000001681500016C6F000E000169150001A1
:102750006D6F000E00016A1500016E6FFF0E000123
:102760006B1500016F6F00016C5100016D110001CC
:102770006E1100016F11D8A4D9D768C060F069C08C
:1027800061F06AC062F070C063F0000E0001646F17
:1027900087EC0EF060C068F061C069F062C06AF05A
:1027A00000D012000001646F000EC26E000EC06EF9
:1027B0000001D89060313C0BC26E60C062F0000135
:1027C000623BF00E6217300E00016217000161518A
:1027D0000F0B00016211C16E64C062F00001D8905D
:1027E00062370001D8906237380E0001621764C06A
:1027F00063F00001633B0F0E6317070E00016317C0
:1028000000016451800B0001631100016211C06E70
:10281000000160AF03D09E9C9D8CF28CC2801200A0
:10282000000E0001646F040E0001646501D032D017
:1028300000016451020DC10EF324D96E000EF42084
:10284000DA6EDECF60F0DDCF61F000016451020D81
:102850003C0EF324D96E000EF420DA6EDECF62F067
:10286000DDCF63F00001605100016227000161517A
:102870000001632300016451020DCB0EF324D96ED5
:10288000000EF420DA6E62C0DEFF63C0DDFF0001DF
:10289000642BC9D712000600EACF1DF0E1CF1EF06D
:1028A000E2CF1FF0D9CF20F0DACF21F0F3CF22F022
:1028B000F4CF23F0F6CF24F0F7CF25F0F8CF26F0B1
:1028C000F5CF27F0F2A404D0F294F3EC16F000D088
:1028D00027C0F5FF26C0F8FF25C0F7FF24C0F6FF8C
:1028E00023C0F4FF22C0F3FF21C0DAFF20C0D9FFCC
:1028F0001FC0E2FF1EC0E1FF1DC0EAFF1CC0E9FFD0
:102900001BC0FBFF1AC0FAFF1100B6EC16F000D096
:1029100005EC17F00009D8A4FBD7000E0001656F85
:10292000040E0001656501D028D000016551020D3B
:102930003C0EF324D96E000EF420DA6EDECF63F085
:10294000DDCF64F00001631F641F634B642B4050B4
:102950000001632741500001642300016551020D0D
:10296000C10EF324D96E000EF420DA6E63C0DEFFD0
:1029700064C0DDFF0001652BD3D71200000E0001FB
:10298000636F040E0001636501D02FD00001635115
:10299000020DCB0EF324D96E000EF420DA6E355002
:1029A000DE5CDE50800A0001626F3650800A000152
:1029B0006259D8B00BD000016351010D2E0EF324E3
:1029C000D96E000EF420DA6E010E0AD000016351B8
:1029D000010D2E0EF324D96E000EF420DA6E000ED7
:1029E000DF6E00D00001632BCCD71200000169AF6D
:1029F0001DD068C06AF069C06BF000016A1F6B1FD0
:102A00006A4B6B2BA90E00016A250001666F010E4F
:102A100000016B210001676F1CEC17F0010E000133
:102A2000676FA90E666F15EC17F014D0010E000148
:102A3000676FA90E666F1CEC17F0A90E00016825E0
:102A40000001666F010E000169210001676F15EC3E
:102A500017F000D0120000018A5100018B11000113
:102A60008C11D8B40AD0000E00018A1B000E0001A0
:102A70008B1B800E00018C1B00D087C07BF088C0B0
:102A80007CF089C07DF08AC07EF08BC07FF08CC066
:102A900080F01EEC08F07BC087F07CC088F07DC021
:102AA00089F000D01200000E00016B6F000169AFC9
:102AB00009D00001686D691FD8B0692B010E0001B3
:102AC0006B6F00D068C060F069C061F00001626B9C
:102AD0008E0E0001636F6BC064F087EC0EF060C077
:102AE00068F061C069F062C06AF000D0120060C096
:102AF00062F061C063F0060ED89000016237633760
:102B0000E82EFAD762C064F063C065F065C074FF58
:102B100064C062F00001D89062330001D890623343
:102B2000300E000162177350CF0B00016211736EFB
:102B3000120060C062F061C063F0060ED890000120
:102B400062376337E82EFAD762C064F063C065F07D
:102B500065C071FF64C062F00001D890623300016B
:102B6000D8906233300E000162177050CF0B000115
:102B70006211706E12000001605100016203F3CF18
:102B800064F0F4CF65F00001605100016303F3507D
:102B9000000165270001615100016203F35000014B
:102BA000652764C060F065C061F000D012000001CC
:102BB00060510001611100016211D8B409D0000E0A
:102BC0000001601B000E0001611B800E0001621BF2
:102BD00060C060F061C061F062C062F0120000018C
:102BE0006B6F00016B510001606F616B626B8E0E49
:102BF0000001636F000E0001646F87EC0EF060C08F
:102C000068F061C069F062C06AF000D01200000E86
:102C1000916E1F0E916E7D0E74EC16F0000E916E8B
:102C20007D0E74EC16F01F0E916E7D0E74EC16F096
:102C3000000E916E12000001606F000160517F0B69
:102C4000D56E000ED76E000ED66EF294000160AF06
:102C500002D0F28A01D0F29AD58E12000001606F84
:102C60000C0E706EB1ACB1B605D0CA9460C0CBFF8B
:102C7000CA8405D0769460C077FF768400D0989897
:102C800012000001606F0C0E736E9896B1ACB1B675
:102C900005D0CA9460C0CBFFCA8405D0769460C0CA
:102CA00077FF768400D012000001606F0001605150
:102CB000FB0BCA6E000ECC6E9E92000160AF02D07C
:102CC0009D8201D09D92CA84120000EEC1F0200EB8
:102CD000EE6AE806FDE100EE28F01E0EEE6AE80658
:102CE000FDE100013EEF0BF00001616F0D0E0001F0
:102CF000606FFC0EE82EFED7602FFCD70001612F1D
:102D0000F5D700D012000001616FC2CF60F0C30E92
:102D1000000160170001D89061313C0B0001601187
:102D2000C26E120092689368BF0E946EE00E956EAC
:102D3000800E966EE70E986E000E9A6E1200F60EDA
:102D40000001616F3C0E606FEAEC16F0000E346E0D
:102D5000000E336E12009F0E1BEC16F0F60E0001F3
:102D6000616F3C0E606FEAEC16F01200000E3A6ED6
:102D7000000E396E3A509BEC10F045EC17F09D8C2C
:102D80001200026EC2CF01F0C30E0116D8900230BD
:102D90003C0B0110C26E1200F28EF28CD08EF28AC1
:102DA000F294F1849D9C9E9C9F9C1200040E000155
:102DB000606F090E0001616F950ED2EC13F01200E6
:102DC000C4500001626FC3500001606F62C061F0C7
:102DD00000D0120060C062F061C063F063C0D7FF32
:102DE00062C0D6FF1200F60E176E3C0E166EFCEC9B
:102DF00016F0334A342A120016C018F017C019F022
:102E000019C0D7FF18C0D6FF12003950D8A402D07D
:102E1000010E02D0000E00D01200C450036EC35049
:102E2000016E03C002F000D0120066C060F067C0FF
:102E300061F077EC15F0120066C060F067C061F0D9
:102E400099EC15F01200820E41EC16F0820E2EEC79
:102E500016F01200C2A202D0010E02D0000E00D065
:102E6000120033C060F034C061F01200040E54EC64
:102E700016F012008C948C9012008C828C861200BA
:102E80001F0E8D6E12008C881200C2821200C28248
:022E900012002E
:020000040020DA
:08000000FFFFFFFFFFFFFFFF00
:020000040030CA
:0E000000FF02011EF38180FFFFC0FFE0FF4002
:00000001FF
