:040000004BEFFEF0D4
:020000040001F9
:10FC96000001D2EFFEF09D92CA92CA90CA84820EEB
:10FCA600CB6E120073867384739273907086708421
:10FCB600709270901200026E0D0E016EFC0EE82E10
:10FCC600FED7012EFCD7022EF7D7120001C003F093
:10FCD60002C004F0060ED89003360436E82EFBD791
:10FCE60003C005F004C006F006C074FF05C003F0AB
:10FCF600D8900332D8900332300E03167350CF0BD0
:10FD06000310736E120001C003F002C004F0060E69
:10FD1600D89003360436E82EFBD703C005F004C09E
:10FD260006F006C071FF05C003F0D8900332D890E4
:10FD36000332300E03167050CF0B0310706E120094
:10FD4600056E000EC26E000EC06ED89001303C0BE0
:10FD5600C26E01C003F0033AF00E0316300E03160E
:10FD660002500F0B0310C16E05C003F0D890033686
:10FD7600D8900336380E031605C004F0043A0F0E69
:10FD86000416070E04160550800B04100310C06EEF
:10FD960001AE03D09E9C9D8CF28CC2801200E00EB8
:10FDA600956E98969898000E976EEF0E926EFC0ED2
:10FDB600996E9468BF0E9A6E000E8E6E899890802A
:10FDC60090828C988988060E016E0E0E026E910E38
:10FDD600A3ECFEF04EECFEF055ECFEF0CA82CA80B3
:10FDE600010E026E870E016E69ECFEF0010E026EC8
:10FDF600870E016E86ECFEF0030E0A6E200E096E6B
:10FE060087AE02D08C8801D08C988C8082A602D0D6
:10FE16008C8201D08C928C8487A802D08C8601D0EB
:10FE26008C9682CF07F0D8900732D89007320F0E03
:10FE360007168750F00B07108E6E030E0A6E200E03
:10FE4600096E610E095C090E0A58D8B0D9D787D059
:10FE5600C20ECB6E010E026E870E016E69ECFEF0CD
:10FE6600010E026E870E016E86ECFEF0BBD09B0E75
:10FE7600CB6E010E026E380E016E69ECFEF0010EBD
:10FE8600026E380E016E86ECFEF0ACD0810ECB6EA3
:10FE9600010E026E040E016E69ECFEF0010E026E9A
:10FEA600040E016E86ECFEF09DD06E0ECB6E000E3B
:10FEB600026EDF0E016E69ECFEF0000E026EDF0EC2
:10FEC600016E86ECFEF08ED0610ECB6E000E026ED9
:10FED600C30E016E69ECFEF0000E026EC30E016EDB
:10FEE60086ECFEF07FD0560ECB6E000E026EAE0E86
:10FEF600016E69ECFEF0000E026EAE0E016E86EC2F
:10FF0600FEF070D04D0ECB6E000E026E9C0E016E92
:10FF160069ECFEF0000E026E9C0E016E86ECFEF0A1
:10FF260061D0460ECB6E000E026E8E0E016E69EC2F
:10FF3600FEF0000E026E8E0E016E86ECFEF052D0C2
:10FF4600400ECB6E000E026E820E016E69ECFEF064
:10FF5600000E026E820E016E86ECFEF043D009C0E2
:10FF660007F00AC008F00850030AD8B413D0070AED
:10FF7600D8B418D0010AD8B41AD0030AD8B41CD001
:10FF8600010AD8B41ED00F0AD8B423D0010AD8B4B7
:10FF960025D028D00750200AD8B45AD7C80AD8B4D2
:10FFA60066D720D00750B00AD8B470D71BD00750F8
:10FFB600780AD8B47AD716D00750400AD8B484D76E
:10FFC60011D00750080AD8B48ED7D80AD8B49AD711
:10FFD60009D00750980AD8B4A4D704D00750600AAD
:10FFE600D8B4AED7FA0E5EECFEF0FA0E5EECFEF07A
:0AFFF600C80E0926000E0A2224D7C7
:020000040020DA
:08000000FFFFFFFFFFFFFFFF00
:020000040030CA
:0E000000FF02191EF38281FFFFC0FFE0FF40E8
:00000001FF
