:040000000CEF00F011
:10000800FACF05F0FBCF06F0E9CF07F071ED8CF0E1
:040018000BEF90F06A
:10FEE60000010000000A00000064000000E80300B2
:10FEF6000010270000A086010040420F008096985F
:10FF06000000E1F50500CA9A3B00803FCDCC3DD705
:10FF1600233C12833AB7D138C62737388635C0D640
:10FF260033CC2B32708930E7DB2EE53C1E42A20D26
:10FF360000803F00204100C842007A44401C4650E1
:10FF4600C34724744997184BBCBE4C6B6E4E0315C1
:10FF56005079AD60F349714553502047726F757003
:10FF66002031360D0A546563682044656D6F203371
:10FF760020546573742050726F6772616D0D0A00AC
:10FF86004D6F64653A20554C545241534F4E494388
:10FF96002044495354414E43450D0A0044495354A5
:10FFA600414E43452028434D2909544D5230205691
:10FFB600414C55450D0A004D6F64653A204C494E3B
:10FFC600452053454E53494E470D0A00555341525D
:10FFD6005420436F6E666967757265640D0A002565
:10FFE6002E326620636D0925640D0A005448524579
:0AFFF60053484F4C440D0A00000070
:020000040001F9
:100000006A0E0001786F000E0001796FE4EF84F052
:10001000250E00018B19D8B40BD066C0D9FF67C07C
:10002000DAFF8BC0DFFF0001664B672BE4EF84F043
:10003000000E00017B6F000E7A6F68C0F6FF69C08A
:10004000F7FF000EF86E0800F5502E0AD8A43AD03B
:1000500000017B8D0001684B692B000E0001876F4A
:10006000000E866F21D086C021F087C022F0000EDE
:10007000246E0A0E236E5EEC8FF068C0F6FF69C036
:10008000F7FF000EF86E0800F5502126000E222220
:10009000D00E21240001866FFF0E22200001876F01
:1000A0000001684B692B00D068C0F6FF69C0F7FFFC
:1000B000000EF86E0800F550BFEC8FF0D8A012D0FB
:1000C000D2D710D0000E0001876F000E866F00019E
:1000D0007B8908D0F7EF84F000017B851FD0E4EF27
:1000E00084F01CD068C0F6FF69C0F7FF0001684BC0
:1000F000692B000EF86E0800F5CF8BF000018B51D4
:10010000000AD8B4F7EF84F0640AD8B407D0020A22
:10011000D8B4E2D70F0AD8A4E4EF84F0070E0001A8
:100120007B15D8B44FD300017BA906D0000E000187
:10013000876F060E866F00D078C0D9FF79C0DAFFCE
:10014000DECF88F0DECF89F0DDCF8AF0030E00012C
:100150007827000E792300018AAF12D088C013F0EF
:1001600089C014F08AC015F0ADEC8FF013C088F090
:1001700014C089F015C08AF0030E00017A1300D074
:10018000000E00017D6F000E7C6F000188510001A0
:10019000891100018A11D8B493D0820E00016F6FCB
:1001A000FF0E0001706F88C071F089C072F08AC0C4
:1001B00073F08BC074F0100E06D00001D890743329
:1001C000733372337133E82EF8D700017151000197
:1001D0006F2500017C6F000E0001702100017D6F12
:1001E00000017C07D8A07D077CC021F07DC022F0F3
:1001F000000E246E030E236E5EEC8FF021C07CF0A7
:1002000022C07DF07CC019F07DC01AF0000E1C6E7B
:100210000A0E1B6EC9EC8CF019C07CF01AC07DF080
:1002200000017DAF05D000017C07D8A07D0700D07C
:1002300000017C510008FFEC84F036C07EF037C02E
:100240007FF038C080F07EC027F07FC028F080C0EB
:1002500029F088C02AF089C02BF08AC02CF01FEC4E
:100260008BF027C07EF028C07FF029C080F07EC0D0
:1002700013F07FC014F080C015F0000E166E800ED3
:10028000176E3F0E186E14EC8DF0D8B005D000013B
:100290007C07D8A07D0714D07EC013F07FC014F077
:1002A00080C015F0000E166E200E176E410E186EEF
:1002B00014EC8DF0D8A004D000017C4B7D2B00D035
:1002C000000187BF08D0000187511EE10D0E00011B
:1002D000865DD8B019D088C040F089C041F08AC08E
:1002E00042F00001865110EC87F036C043F037C071
:1002F00044F038C045F030EC89F040C088F041C08F
:1003000089F042C08AF000D000017DBF08D0000112
:100310007D5128E10A0E00017C5DD8B023D0000198
:1003200088510001891100018A11D8B477D088C0A2
:1003300036F089C037F08AC038F09BEC8BF036502D
:10034000371038103910D8A469D000017DBF66D0AD
:1003500000017D5107E1020E00017C5DD8B002D0A2
:100360005DD000D07EC013F07FC014F080C015F0C7
:10037000700E166E890E176E400E186E14EC8DF00E
:10038000D8B003D00001F70E02D00001F80E7C2790
:10039000FF0E7D2300D000017C51FFEC84F036C0BD
:1003A0007EF037C07FF038C080F017D088C013F0DF
:1003B00089C014F08AC015F07EC016F07FC017F017
:1003C00080C018F09AEC8AF013C082F014C083F059
:1003D00015C084F016C085F017D088C013F089C00E
:1003E00014F08AC015F07EC016F07FC017F080C0F0
:1003F00018F012EC8AF013C082F014C083F015C01C
:1004000084F016C085F000D0000E0001886F000E49
:100410000001896F000E00018A6F34D088C036F069
:1004200089C037F08AC038F09BEC8BF036C082F080
:1004300037C083F038C084F039C085F088C060F0E0
:1004400089C061F08AC062F082C01BF083C01CF0DA
:1004500084C01DF085C01EF09DEC8EF01BC063F0C3
:100460001CC064F01DC065F0FCEC8EF060C088F02C
:1004700061C089F062C08AF0000E00017D6F000E3D
:100480007C6F00D0010E00018B6F0A0E00018B19EA
:10049000D8B425D001D023D000018B51040DE70E34
:1004A000F324F66EFE0EF420F76EF86A000EF822C2
:1004B0000900F5500001825D0900F55000018359E3
:1004C0000900F550000184590900F55000018559D3
:1004D000D8A005D001D003D000018B2BD6D7030EB6
:1004E00000017A1500016F6F000E00017B150001FD
:1004F000706F00016F5100017011D8B457D066C001
:10050000D9FF67C0DAFF2D0E4FD00001664B672B75
:100510004DD082C013F083C014F084C015F085C0A4
:1005200016F000018B51040DE70EF324F66EFE0E5B
:10053000F420F76EF86A000EF8220900F5CF17F0E4
:100540000900F5CF18F00900F5CF19F00A00F5CF32
:100550001AF05FEC8DF013C07EF014C07FF015C070
:1005600080F016C081F07EC020F07FC021F080C0F6
:1005700022F081C023F00A0E246E000E256E000EBC
:10058000266E000E276E65EC8EF020C07EF021C036
:100590007FF022C080F023C081F000017E51300F37
:1005A00066C0D9FF67C0DAFFDF6EAFD700018B07E7
:1005B00000018B29D8B410D0ACD70ED066C0D9FFBB
:1005C00067C0DAFF300EDF6E0001664B672B00015B
:1005D0007C07D8A07D0700D000017DBF07D00001B7
:1005E0007D51ECE100017C05D8B0E8D7000187BF60
:1005F0000CD00001875105E1090E0001865DD8A0ED
:1006000004D0080E00018B6F03D086C08BF000D0A1
:1006100000018B510001865F000E00018BBFFF0EB1
:100620000001875B00018B510001D8B40AD066C07D
:10063000D9FF67C0DAFF2E0EDF6E0001664B672B15
:1006400000D000018B51FFEC84F036C075F037C04C
:1006500076F038C077F088C02AF089C02BF08AC0C5
:100660002CF075C027F076C028F077C029F01FEC79
:100670008BF027C036F028C037F029C038F09BEC4B
:100680008BF036C082F037C083F038C084F039C0B8
:1006900085F07AD082C013F083C014F084C015F0C6
:1006A00085C016F000018B51040DE70EF324F66EA1
:1006B000FE0EF420F76EF86A000EF8220900F5CF5E
:1006C00017F00900F5CF18F00900F5CF19F00A006E
:1006D000F5CF1AF05FEC8DF013C07EF014C07FF000
:1006E00015C080F016C081F07EC020F07FC021F0E0
:1006F00080C022F081C023F00A0E246E000E256E09
:10070000000E266E000E276E65EC8EF020C07EF087
:1007100021C07FF022C080F023C081F000017E5113
:10072000300F66C0D9FF67C0DAFFDF6E0001664B8D
:10073000672B82C020F083C021F084C022F085C0E6
:1007400023F000018B51040DE70EF324F66EFE0E2C
:10075000F420F76EF86A000EF8220900F5CF24F0B5
:100760000900F5CF25F00900F5CF26F00A00F5CFF6
:1007700027F065EC8EF020C082F021C083F022C00B
:1007800084F023C085F000D000018B0700018B2985
:10079000D8B410D07FD70ED066C0D9FF67C0DAFFBB
:1007A000300EDF6E0001664B672B00018607D8A074
:1007B000870700D00001865100018711D8B404D109
:1007C000EBD702D178C0D9FF79C0DAFFDECF82F053
:1007D000DDCF83F00001000E83BFFF0E846F856FB5
:1007E000020E00017827000E7923000185AF0DD09D
:1007F000030E00017A130001851F841F831F826D81
:10080000000E83238423852300D00001865100013C
:100810008711D8A40ED0000182510001831100017C
:10082000841100018511D8A404D00001864B872BC8
:1008300000D0010E00018B6F0A0E00018B19D8B495
:1008400025D001D023D000018B51040DE70EF324F5
:10085000F66EFE0EF420F76EF86A000EF82209001C
:10086000F5500001825D0900F5500001835909002F
:10087000F550000184590900F55000018559D8A0B0
:1008800005D001D003D000018B2BD6D7800E0001FC
:100890008BBF7F0E00016F6F0001865100018B5DE1
:1008A00000018751800A00016F59D8B003D086C07B
:1008B0008BF019D000018751800A00016F6F000191
:1008C0008B510001865D800E00018BBF7F0E000101
:1008D0006F59D8B008D000018B510001866F876B2B
:1008E00086BF870700D0030E00017A1500016F6FE5
:1008F000000E00017B150001706F00016F510001B7
:100900007011D8B454D066C0D9FF67C0DAFF2D0E7D
:10091000DF6E49D04CD086C06FF087C070F0000108
:10092000D8906F3770370001D8906F377037E70E67
:1009300000016F25F66EFE0E7021F76EF86A000E4C
:10094000F8220900F5CF17F00900F5CF18F00900DB
:10095000F5CF19F00A00F5CF1AF082C013F083C06A
:1009600014F084C015F085C016F05FEC8DF013C054
:1009700020F014C021F015C022F016C023F00A0E9A
:10098000246E000E256E000E266E000E276E65EC9E
:100990008EF02050300F00018B6F66C0D9FF67C00A
:1009A000DAFF8BC0DFFF0001664B672B00D0000130
:1009B0008607D8A0870700018629ADE100018729B5
:1009C000D8B402D0A8D700D068C0F6FF69C0F7FF3E
:1009D0000001684B692B000EF86E0800F5CF8BF014
:1009E00000018B51D8B403D008EF80F000D066C06E
:1009F000D9FF67C0DAFF000EDF6E00D012003C6E38
:100A00003CAEFED03C6C3C50800A120FD8A096D071
:100A1000000E246E030E236E000E1C6E0A0E1B6E5B
:100A2000000E166E640E156E3C50136E146A13BEE3
:100A30001406EBEC8DF013C019F014C01AF0C9ECD9
:100A40008CF0090E1924216E000E1A20226E5EEC25
:100A50008FF00F0E2124F66EFF0E2220F76EF86A3B
:100A6000000EF8220900F5CF2AF00900F5CF2BF08F
:100A70000A00F5CF2CF0000E1C6E640E1B6E3C506D
:100A8000196E1A6A19BE1A06C9EC8CF0120E1924D6
:100A9000216E000E1A20226E000E246E030E236EAD
:100AA0005EEC8FF00F0E2124F66EFF0E2220F76E03
:100AB000F86A000EF8220900F5CF27F00900F5CFFB
:100AC00028F00A00F5CF29F01FEC8BF027C039F091
:100AD00028C03AF029C03BF039C027F03AC028F0CE
:100AE0003BC029F0000E246E030E236E000E166E1E
:100AF0000A0E156E3C50136E146A13BE1406EBEC0E
:100B00008DF013C021F014C022F05EEC8FF00F0EB8
:100B10002124F66EFF0E2220F76EF86A000EF822EE
:100B20000900F5CF2AF00900F5CF2BF00A00F5CF28
:100B30002CF01FEC8BF056D172D15AD03C50800A69
:100B4000750FD8A055D0000E1C6E0A0E1B6E3C50BF
:100B5000196E1A6A19BE1A06C9EC8CF0090E19240E
:100B6000216E000E1A20226E000E246E030E236EDC
:100B70005EEC8FF00F0E2124F66EFF0E2220F76E32
:100B8000F86A000EF8220900F5CF27F00900F5CF2A
:100B900028F00A00F5CF29F0000E246E030E236E14
:100BA000000E166E0A0E156E3C50136E146A13BEBC
:100BB0001406EBEC8DF013C021F014C022F05EECB3
:100BC0008FF00F0E2124F66EFF0E2220F76EF86ACA
:100BD000000EF8220900F5CF2AF00900F5CF2BF01E
:100BE0000A00F5CF2CF01FEC8BF0FCD018D100D010
:100BF0003C50030D0F0EF324F66EFF0E01D10FD102
:100C00003C50800A120FD8A096D0000E246E030E1E
:100C1000236E000E1C6E0A0E1B6E000E166E640E06
:100C2000156E3C50136E146A13BE1406EBEC8DF077
:100C300013C019F014C01AF0C9EC8CF0090E192475
:100C4000216E000E1A20226E5EEC8FF0360E2124EB
:100C5000F66EFF0E2220F76EF86A000EF8220900E9
:100C6000F5CF2AF00900F5CF2BF00A00F5CF2CF0D4
:100C7000000E1C6E640E1B6E3C50196E1A6A19BE73
:100C80001A06C9EC8CF0120E1924216E000E1A20DF
:100C9000226E000E246E030E236E5EEC8FF0360E75
:100CA0002124F66EFF0E2220F76EF86A000EF8225D
:100CB0000900F5CF27F00900F5CF28F00A00F5CF9D
:100CC00029F01FEC8BF027C039F028C03AF029C07A
:100CD0003BF039C027F03AC028F03BC029F0000EA5
:100CE000246E030E236E000E166E0A0E156E3C5017
:100CF000136E146A13BE1406EBEC8DF013C021F0D2
:100D000014C022F05EEC8FF0360E2124F66EFF0E3A
:100D10002220F76EF86A000EF8220900F5CF2AF0BB
:100D20000900F5CF2BF00A00F5CF2CF01FEC8BF06B
:100D300059D075D05FD03C50800A750FD8A05AD0DA
:100D4000000E1C6E0A0E1B6E3C50196E1A6A19BEFC
:100D50001A06C9EC8CF0090E1924216E000E1A2017
:100D6000226E000E246E030E236E5EEC8FF0360EA4
:100D70002124F66EFF0E2220F76EF86A000EF8228C
:100D80000900F5CF27F00900F5CF28F00A00F5CFCC
:100D900029F0000E246E030E236E000E166E0A0E4E
:100DA000156E3C50136E146A13BE1406EBEC8DF0F6
:100DB00013C021F014C022F05EEC8FF0360E212417
:100DC000F66EFF0E2220F76EF86A000EF822090078
:100DD000F5CF2AF00900F5CF2BF00A00F5CF2CF063
:100DE0001FEC8BF027C036F028C037F029C038F050
:100DF00016D000D03C50030D360EF324F66EFF0ED5
:100E0000F420F76EF86A000EF8220900F5CF36F0EC
:100E10000900F5CF37F00A00F5CF38F000D0120006
:100E20003F6E6D0E3F64A4D0000E246E030E236E41
:100E3000000E1C6E0A0E1B6E000E166E640E156EF2
:100E40003FC013F0146AEBEC8DF013C019F014C01E
:100E50001AF0C9EC8CF0090E1924216E000E1A202C
:100E6000226E5EEC8FF00F0E2124F66EFF0E222014
:100E7000F76EF86A000EF8220900F5CF2AF0090093
:100E8000F5CF2BF00A00F5CF2CF0000E1C6E640E8F
:100E90001B6E3FC019F01A6AC9EC8CF0120E1924AF
:100EA000216E000E1A20226E000E246E030E236E99
:100EB0005EEC8FF00F0E2124F66EFF0E2220F76EEF
:100EC000F86A000EF8220900F5CF27F00900F5CFE7
:100ED00028F00A00F5CF29F01FEC8BF027C03CF07A
:100EE00028C03DF029C03EF0000E246E030E236E94
:100EF000000E166E0A0E156E3FC013F0146AEBEC6E
:100F00008DF013C021F014C022F05EEC8FF00F0EB4
:100F10002124F66EFF0E2220F76EF86A000EF822EA
:100F20000900F5CF2AF00900F5CF2BF00A00F5CF24
:100F30002CF03CC027F03DC028F03EC029F01FEC4B
:100F40008BF027C039F028C03AF029C03BF039C0F7
:100F500027F03AC028F03BC029F0000E2A6E000EA0
:100F60002B6E3F0E2C6E1FEC8BF086D08CD068D091
:100F70000A0E3F6465D0000E246E030E236E000E31
:100F8000166E0A0E156E3FC013F0146AEBEC8DF06E
:100F900013C021F014C022F05EEC8FF00F0E21245C
:100FA000F66EFF0E2220F76EF86A000EF822090096
:100FB000F5CF2AF00900F5CF2BF00A00F5CF2CF081
:100FC000000E1C6E0A0E1B6E3FC019F01A6AC9ECA7
:100FD0008CF0090E1924216E000E1A20226E000ECC
:100FE000246E030E236E5EEC8FF00F0E2124F66E3E
:100FF000FF0E2220F76EF86A000EF8220900F5CFE6
:1010000027F00900F5CF28F00A00F5CF29F01FECF2
:101010008BF027C03CF028C03DF029C03EF03CC01A
:1010200027F03DC028F03EC029F0000E2A6E000EC9
:101030002B6E3F0E2C6E1FEC8BF01ED024D000D0F8
:101040003F50030D0F0EF324F66EFF0EF420F76EE3
:10105000F86A000EF8220900F5CF27F00900F5CF55
:1010600028F00A00F5CF29F0000E2A6E000E2B6E34
:101070003F0E2C6E1FEC8BF027C036F028C037F0E7
:1010800029C038F000D0120000EC90F05CEC90F039
:1010900028EC90F0D0EC8FF054EC90F05D0E146ED4
:1010A000FF0E156E43EC8FF000D0BD0E146EFF0ED8
:1010B000156E43EC8FF0F20E146EFF0E156E43ECBE
:1010C0008FF0000E00019F6F67D0000E916E8D684B
:1010D000000E00019E6F050E00019E6501D05CD0E0
:1010E000050E00019E6127D000019E51A5EC8DF0F8
:1010F00000019E51020D8E0EF324D96E000EF420D5
:10110000DA6E17C0DEFF18C0DDFF00019E51020D30
:101110008E0EF324D96E000EF420DA6EDE5000013C
:101120009B5DDE5000019C59D8B00DD000019E514E
:1011300024EC8FF008D0050EA5EC8DF017C09BF0C5
:1011400018C09CF000D00A0E1FEC90F06D0E00014C
:101150009F651CD0000E00019F6FA10E0001666FFD
:10116000000E0001676FED0E0001686FFF0E0001B9
:10117000696F9BC06AF09CC06BF000EC80F0A10E20
:10118000146E000E156E72EC8FF002D000019F2BD2
:1011900000019E2BA0D700D00001A051D8B495D754
:1011A00086EC8FF0860E146EFF0E156E43EC8FF0FA
:1011B000A20E146EFF0E156E43EC8FF048D015ECA6
:1011C00090F09180640E1FEC90F0919000D000019F
:1011D0009D05D8A4FCD7B1C01BF0B2C01CF09AEC9E
:1011E0008FF01BC027F01CC028F01DC029F0760E20
:1011F0002A6E600E2B6E3C0E2C6E1FEC8BF027C0FF
:1012000098F028C099F029C09AF0A10E0001666FED
:10121000000E0001676FE50E0001686FFF0E000110
:10122000696F98C06AF099C06BF09AC06CF0B1C059
:101230006DF0B2C06EF000EC80F0A10E146E000EE6
:10124000156E72EC8FF0640EDEEC8FF000D00001B2
:10125000A005D8B4B4D786EC8FF027D70CEF00F0F8
:1012600042C046F0476A486A4134463601E3478047
:1012700046504B6E45C046F0476A486A443446368D
:1012800001E3478046504A6E4B50D8B40BD04A50C9
:101290004B5CD8B00ED04B5000084A24466E180E56
:1012A000466407D043C040F044C041F045C042F01E
:1012B000B8D04A50D8B40BD04B504A5CD8B00ED0FE
:1012C0004A5000084B24466E180E466407D040C0B2
:1012D00040F041C041F042C042F0A3D0060E496E3A
:1012E00042AE02D0498E00D045BE498C418EFF0EE1
:1012F0004016FF0E4116000E4216448EFF0E431696
:10130000FF0E4416000E45164A504B5CD8B01ED056
:10131000D8904336443645364A064B504A18D8B41E
:101320000FD0490649C046F0070E4616D8B408D07B
:10133000EFD706D0D8904232413240324B2A00D00B
:101340004A504B18D8B424D0F5D722D04B504A5C21
:10135000D8B01ED0D8904036413642364B064B505E
:101360004A18D8B40FD0490649C046F0070E4616B1
:10137000D8B408D0EFD706D0D890453244324332A3
:101380004A2A00D04A504B18D8B402D0F5D700D022
:1013900049AE0CD0FF0E401AFF0E411AFF0E421A42
:1013A000010E4026000E4122000E422249AC0DD013
:1013B000FF0E431AFF0E441AFF0E451A010E432674
:1013C000000E4422000E452200D0000E496E40500F
:1013D0004326415044224250452245AE0FD0FF0ED5
:1013E000431AFF0E441AFF0E451A010E4326000E43
:1013F0004422000E4522010E496E00D043C013F076
:1014000044C014F045C015F04BC016F049C017F0A9
:101410000EEC8CF013C040F014C041F015C042F047
:1014200000D0120015C019F01A6A1B6A143419365C
:1014300001E31A801950216E2150D8A402D05DD04A
:1014400078D018C019F01A6A1B6A1734193601E3EC
:101450001A801950206E2050D8A402D04ED069D0E6
:10146000148EFF0E1316FF0E1416000E1516178E8F
:10147000FF0E1616FF0E1716000E1816000E1C6E25
:10148000000E1D6E000E1E6E000E1F6E7F0E215E82
:101490002050980F215E180E206ED8901C361D36F5
:1014A0001E361F361650135C175014581850155816
:1014B000D8A007D01650135E1750145A1850155A5A
:1014C0001C80D890133614361536202EE6D700D05F
:1014D00021AE10D02150800A970FD8B003D00DD084
:1014E00028D000D0D8901F321E321D321C32213E2F
:1014F000F9D717D0170E216411D0000E136E000E0D
:10150000146E000E156E000E166E13D007D0D89014
:101510001C361D361E361F36210600D02150D8A499
:10152000F6D71CC013F01DC014F01EC015F01FC06C
:1015300016F01200153416341E6E1E50D8A402D0B8
:1015400061D07CD0183419341D6E1D50D8A402D03F
:1015500059D074D0158EFF0E1316FF0E1416FF0E01
:101560001516000E1616188EFF0E1616FF0E1716FD
:10157000FF0E1816000E1916000E196E000E1A6EC8
:10158000000E1B6E000E1C6E7F0E1E5E1D50A00F07
:101590001E5E200E1D6E00D0D89019361A361B36EE
:1015A0001C361650135C1750145818501558195003
:1015B0001658D8A00AD01650135E1750145A185057
:1015C000155A1950165A198000D0D890133614366F
:1015D000153616361D2EE0D700D01EAE10D01E5088
:1015E000800A9F0FD8B003D00DD028D000D0D8905B
:1015F0001C321B321A3219321E3EF9D717D01F0E79
:101600001E6411D0000E136E000E146E000E156EC7
:10161000000E166E13D007D0D89019361A361B3626
:101620001C361E0600D01E50D8A4F6D719C013F0E1
:101630001AC014F01BC015F01CC016F0120029C00F
:101640002DF02E6A2F6A28342D3601E32E802D507E
:10165000306E3050D8A402D00ED06CD02CC02DF0FB
:101660002E6A2F6A2B342D3601E32E802D50356ED5
:101670003550D8A407D0000E276E000E286E000E3D
:10168000296E58D035507B0F302629C035F02C50AC
:10169000351A800E3516288E2B8EFF0E2A16FF0E59
:1016A0002B16000E2C16000E316E000E326E000E40
:1016B000336E070E346E00D027A007D02A50312693
:1016C0002B5032222C50332200D0D890293228328D
:1016D0002732D8902A362B362C36342EEDD700D030
:1016E000090E346E00D027A007D02A5031262B5087
:1016F00032222C50332200D0D8902932283227327F
:10170000D890333232323132342EEDD700D031C05E
:1017100013F032C014F033C015F030C016F035C0ED
:1017200017F00EEC8CF013C027F014C028F015C091
:1017300029F000D0120038C03AF03B6A3C6A3734D6
:101740003A3601E33B803A50446E4450D8A402D06C
:1017500039D063D0170E3A6E36C03BF037C03CF03C
:1017600038C03DF03A283E6E04D0D8903D323C322D
:101770003B323E2EFAD73B503F6E378EFF0E361669
:10178000FF0E3716000E38163650406E3750416E39
:101790003850426E436A8E0E445E44AE10D04450C0
:1017A000800A8F0FD8B003D00DD037D000D0D8909A
:1017B0004332423241324032443EF9D719D0170EFB
:1017C000446411D0000E366E000E376E000E386E77
:1017D000000E396E22D007D0D890403641364236BE
:1017E0004336440600D04450D8B402D0F5D700D0D8
:1017F0003F50D8B409D0431E421E411E406C000E1B
:1018000041224222432200D040C036F041C037F08E
:1018100042C038F043C039F000D012001650D8B49E
:1018200005D0135014101510D8A40ED0000E136E4E
:10183000000E146E000E156E53D006D0162AD890E6
:1018400015321432133200D0000E1314186E000E2D
:101850001414196EFE0E15141A6E185019101A1061
:10186000D8B40ED0EBD70CD0162A010E1326000EDA
:101870001422000E1522D89015321432133200D0E3
:10188000000E1314186E000E1414196EFF0E1514AA
:101890001A6E185019101A10D8B408D0E5D706D00F
:1018A0001606D89013361436153600D014BE04D060
:1018B000020E1660F5D700D016B002D0149E00D0EC
:1018C000D8901632165015121750D8B402D0158E73
:1018D00000D013C013F014C014F015C015F000D0E0
:1018E00012000600EACF08F0E1CF09F0E2CF0AF0DB
:1018F000D9CF0BF0DACF0CF0F3CF0DF0F4CF0EF020
:10190000F6CF0FF0F7CF10F0F8CF11F0F5CF12F0BF
:10191000F0A005D0F090010E0001A01B00D0F2A0B5
:101920001BD0F29681A808D0D58E000E026E000E54
:10193000016E3AEC90F000D081B80BD0D59E43EC0C
:1019400090F001C0B1F002C0B2F0010E00019D6F35
:1019500000D0F286F29000D012C0F5FF11C0F8FF5F
:1019600010C0F7FF0FC0F6FF0EC0F4FF0DC0F3FF6D
:101970000CC0DAFF0BC0D9FF0AC0E2FF09C0E1FFCB
:1019800008C0EAFF07C0E9FF06C0FBFF05C0FAFF79
:101990001100000E1E6E1CAE07D01B6C1C1ED8B0B2
:1019A0001C2A010E1E6E00D01AAE07D0196C1A1E2A
:1019B000D8B01A2A010E1E1A00D0000E206E000E9A
:1019C0001F6E1B501C10D8B421D0010E1D6E05D007
:1019D000D8901B361C361D2A00D01CBE02D0F8D76A
:1019E00000D0D8901F3620361B50195C1C501A5856
:1019F000D8A006D01B50195E1C501A5A1F8000D068
:101A0000D8901C321B321D2EECD700D01E50D8B4FB
:101A100005D01F6C201ED8B0202A00D01FC019F09E
:101A200020C01AF000D0120015AE17D013C019F064
:101A300014C01AF015C01BF0191E1A1E1B1E192AFD
:101A4000000E1A221B22000E1924136E000E1A20FB
:101A5000146E800E1B20156E00D018AE17D016C065
:101A600019F017C01AF018C01BF0191E1A1E1B1E01
:101A7000192A000E1A221B22000E1924166E000EBF
:101A80001A20176E800E1B20186E00D0000E131A3D
:101A9000000E141A800E151A000E161A000E171AD0
:101AA000800E181A1650135C1750145818501558F9
:101AB000D8B002D0D89002D0D88000D01200000E4A
:101AC0001B6E000E1C6E000E1D6E000E1E6E17505B
:101AD000181019101A10D8B42FD0010E1F6E07D08D
:101AE000D8901736183619361A361F2A00D01ABE63
:101AF00002D0F6D700D0D8901B361C361D361E36C5
:101B00001750135C18501458195015581A5016587D
:101B1000D8A00AD01750135E1850145A1950155AED
:101B20001A50165A1B8000D0D8901A321932183227
:101B300017321F2EE0D700D01BC013F01CC014F0CA
:101B40001DC015F01EC016F01200196E1ED0870EB3
:101B5000EAEC8FF02ED08F0EEAEC8FF02AD0970EA1
:101B6000EAEC8FF026D09F0EEAEC8FF022D0A70E81
:101B7000EAEC8FF01ED0AF0EEAEC8FF01AD0000E18
:101B8000186E000E176E26D014D01950000AD8B463
:101B9000DED7010AD8B4DFD7030AD8B4E0D7010AE8
:101BA000D8B4E1D7070AD8B4E2D7010AD8B4E3D74A
:101BB000E6D771EC90F000D064EC90F00009D8A466
:101BC000FBD74CEC90F0FF0E1314176E030E141499
:101BD000186E00D01200000E186E14AE07D0136CF1
:101BE000141ED8B0142A010E186E00D016AE05D0FF
:101BF000156C161ED8B0162A00D015501610D8B481
:101C00001DD0010E176E05D0D89015361636172A3E
:101C100000D016BE02D0F8D700D01550135C165075
:101C20001458D8A005D01550135E1650145A00D081
:101C3000D89016321532172EF0D700D01850D8B4DD
:101C400005D0136C141ED8B0142A00D013C013F0A2
:101C500014C014F000D01200156E000EAC6E000E11
:101C6000AB6E15A002D0AC8800D015A203D0AC8C0E
:101C7000AB8C00D015A402D0AC8E00D015A602D03B
:101C8000AB8802D0AB8A00D015A802D0AC8400D0BB
:101C900015AA02D0AB8600D015AC02D09D8A02D026
:101CA0009D9A00D015AE02D09D8801D09D9813C09A
:101CB000AFFF14507F6EAC8AAB8E949C948EACB800
:101CC000ACBE02D0948C00D01200245025102610F7
:101CD0002710D8B429D0010E286E07D0D89024360A
:101CE000253626362736282A00D027BE02D0F6D73A
:101CF00000D02450205C25502158265022582750CF
:101D00002358D8A009D02450205E2550215A2650AF
:101D1000225A2750235A00D0D89027322632253213
:101D20002432282EE6D700D020C020F021C021F098
:101D300022C022F023C023F012008E0E236E07D0A3
:101D4000D8901E321D321C321B32232A00D0000EC6
:101D50001B141F6E000E1C14206E000E1D14216E2D
:101D6000FF0E1E14226E1F50201021102210D8A426
:101D7000E7D71BC013F01CC014F01DC015F023C022
:101D800016F0000E176E0EEC8CF013C01BF014C092
:101D90001CF015C01DF000D01200176E000EC26EB0
:101DA000000EC06ED89013303C0BC26E13C015F0FD
:101DB000153AF00E1516300E151614500F0B15109F
:101DC000C16E17C015F0D8901536D8901536380E5C
:101DD000151617C016F0163A0F0E1616070E161621
:101DE0001750800B16101510C06E13AE03D09E9CBA
:101DF0009D8CF28CC28012000001635100016411BD
:101E000000016511D8B40AD0000E0001631B000E5A
:101E10000001641B800E0001651B00D060C040F013
:101E200061C041F062C042F063C043F064C044F05E
:101E300065C045F030EC89F040C060F041C061F011
:101E400042C062F000D01200136E0BD0010E07D01A
:101E5000020E05D0040E03D0080E01D0100E916EB4
:101E600011D01350000AD8B4F1D7010AD8B4F0D772
:101E7000030AD8B4EFD7010AD8B4EED7070AD8B40A
:101E8000EDD700D0120000D0ACA2FED714C0F6FFF0
:101E900015C0F7FF000EF86E0800F550F5EC8FF056
:101EA00014C0F6FF15C0F7FF144A152A000EF86E8D
:101EB0000800F5500009D8A4E7D7120021502302EA
:101EC000F3CF25F0F4CF26F021502402F35026263C
:101ED00022502302F350262625C021F026C022F0EE
:101EE00000D0120000D0ACA2FED714C0D9FF15C09C
:101EF000DAFFDF50F5EC8FF014C0D9FF15C0DAFF20
:101F0000144A152ADF50D8A4EED71200000E916EA5
:101F10001F0E916E7D0EDEEC8FF0000E916E7D0E29
:101F2000DEEC8FF01F0E916E7D0EDEEC8FF0000E5A
:101F3000916E12001BC013F01CC014F0156A8E0EB7
:101F4000166E000E176E0EEC8CF013C01BF014C052
:101F50001CF015C01DF000D0120013501410151005
:101F6000D8B406D0000E131A000E141A800E151ADB
:101F700013C013F014C014F015C015F01200156E44
:101F8000000E146E3A0E156006D02F0E156403D0A5
:101F9000010E146E00D014C013F0133000D01200E4
:101FA000000E146E400E136E3C0E2CEC8EF0D20E12
:101FB000146EFF0E156E43EC8FF01200146E0D0EB2
:101FC000136EFC0EE82EFED7132EFCD7142EF7D777
:101FD00000D01200146EC2CF13F0C30E1316D890A7
:101FE00014303C0B1310C26E1200136EACAC05D053
:101FF000AC904CA202D0AC8000D013C0ADFF120058
:10200000C00E966E000E8D6E92689368000E9A6EEA
:10201000000E916E120000EE8EF0250EEE6AE806BC
:10202000FDE14C6A000144EF88F08D8A190E6BECDB
:1020300090F08D9AF286000E00019D6F1200136ED3
:10204000FA0E00F0E82EFDD7132EFAD700D01200BA
:10205000000ED56E000E146E000E136E31EC90F073
:10206000120013C015F014C016F016C0D7FF15C02B
:10207000D6FF120001C003F002C004F004C0D7FF75
:1020800003C0D6FF1200D6CF03F0D7CF04F003C0B1
:1020900001F004C002F01200C450156EC350136E5C
:1020A00015C014F000D01200D09EF28EF296F08689
:1020B000F18AF090F2901200040E136E0A0E146E64
:1020C000DB0ECDEC8EF01200C2A202D0010E02D0C7
:1020D000000E00D01200136E00F0132EFDD700D0BA
:0620E0001200C282120092
:020000040020DA
:08000000FFFFFFFFFFFFFFFF00
:020000040030CA
:0E000000FF02011EF38180FFFFC0FFE0FF4002
:00000001FF
