:0400000052EFFEF0CD
:020000040001F9
:10FCA4000001B2EFFEF09D92CA92CA90CA84820EFD
:10FCB400CB6E1200016EFA0E00F0E82EFDD7012E75
:10FCC400FAD712007386738473927390708670846B
:10FCD400709270901200026E0D0E016EFC0EE82EF2
:10FCE400FED7012EFCD7022EF7D7120001C003F075
:10FCF40002C004F0060ED89003360436E82EFBD773
:10FD040003C005F004C006F006C074FF05C003F08C
:10FD1400D8900332D8900332300E03167350CF0BB1
:10FD24000310736E120001C003F002C004F0060E4B
:10FD3400D89003360436E82EFBD703C005F004C080
:10FD440006F006C071FF05C003F0D8900332D890C6
:10FD54000332300E03167050CF0B0310706E120076
:10FD6400000E086E000E076EE00E956E9896989839
:10FD7400000E976EEF0E926EFC0E996E9468BF0E95
:10FD84009A6E000E8E6E8998908090828C988988E5
:10FD940055ECFEF064ECFEF0020E026E0E0E016EE7
:10FDA40078ECFEF0020E026E0E0E016E95ECFEF083
:10FDB4008C888C908C9488BAFED78C828C86010EA9
:10FDC400086EF40E076E080E075C010E0858D8A0E2
:10FDD40013D007C001F008C002F078ECFEF007C0B1
:10FDE40001F008C002F095ECFEF0140E5CECFEF09D
:10FDF4000706D8A00806E7D7FA0E6DECFEF0FA0E57
:10FE04006DECFEF0020E026E0E0E016E78ECFEF04A
:10FE1400020E026E0E0E016E95ECFEF0FA0E6DEC03
:10FE2400FEF08C928C96010E086EF40E076E080E8E
:10FE3400075C010E0858D8A013D007C001F008C011
:10FE440002F078ECFEF007C001F008C002F095EC77
:10FE5400FEF0140E5CECFEF00706D8A00806E7D707
:10FE6400FA0E6DECFEF0FA0E6DECFEF0020E026E70
:10FE74000E0E016E78ECFEF0020E026E0E0E016E96
:10FE840095ECFEF0FA0E6DECFEF08C828C96010E71
:10FE9400086EF40E076E080E075C010E0858D8A011
:10FEA40013D007C001F008C002F078ECFEF007C0E0
:10FEB40001F008C002F095ECFEF0140E5CECFEF0CC
:10FEC4000706D8A00806E7D7FA0E6DECFEF0FA0E86
:10FED4006DECFEF0020E026E0E0E016E78ECFEF07A
:10FEE400020E026E0E0E016E95ECFEF0FA0E6DEC33
:10FEF400FEF08C928C86010E086EF40E076E080ECE
:10FF0400075C010E0858D8A013D007C001F008C040
:10FF140002F078ECFEF007C001F008C002F095ECA6
:10FF2400FEF0140E5CECFEF00706D8A00806E7D736
:10FF3400FA0E6DECFEF0FA0E6DECFEF0020E026E9F
:10FF44000E0E016E78ECFEF0020E026E0E0E016EC5
:10FF540095ECFEF0FA0E6DECFEF08C828C96010EA0
:10FF6400086EF40E076E080E075C010E0858D8A040
:10FF74000DD007C001F008C002F078ECFEF0140EBA
:10FF84005CECFEF00706D8A00806EDD7FA0E6DEC7F
:10FF9400FEF0FA0E6DECFEF0020E026E0E0E016E15
:10FFA40078ECFEF0FA0E6DECFEF08C928C86010E6D
:10FFB400086EF40E076E080E075C010E0858D8A0F0
:10FFC4000DD007C001F008C002F095ECFEF0140E4D
:10FFD4005CECFEF00706D8A00806EDD7FA0E6DEC2F
:10FFE400FEF0FA0E6DECFEF0020E026E0E0E016EC5
:0CFFF40095ECFEF0FA0E6DECFEF0DDD690
:020000040020DA
:08000000FFFFFFFFFFFFFFFF00
:020000040030CA
:0E000000FF02191EF38281FFFFC0FFE0FF40E8
:00000001FF
