:0400000076EF00F0A7
:10000800FACF62F0FBCF63F0E9CF64F0DFED1AF0CE
:10001800D8CF33F0E8CF34F0E0CF35F0FACF36F070
:10002800FBCF37F0E9CF38F0EACF39F0E1CF3AF03B
:10003800E2CF3BF0D9CF3CF0DACF3DF0F3CF3EF042
:10004800F4CF3FF0F6CF40F0F7CF41F0F8CF42F0D1
:10005800F5CF43F09EAC1DD09E9C050E216015D0B7
:10006800A2EC22F02150020DCB0EF324D96E000E23
:10007800F420DA6E2BC0DEFF2CC0DDFF212A2150D0
:10008800E2EC16F00FEC23F00AD0010E206E9D9CD6
:1000980006D09EA804D09E9874EC21F000D043C0EE
:1000A800F5FF42C0F8FF41C0F7FF40C0F6FF3FC070
:1000B800F4FF3EC0F3FF3DC0DAFF3CC0D9FF3BC0B0
:1000C800E2FF3AC0E1FF39C0EAFF38C0E9FF37C0B4
:1000D800FBFF36C0FAFF35C0E0FF34C0E8FF33C08D
:0800E800D8FF1000D7EF20F053
:101000000000803F72313FFE753E58633D951D3CA8
:10101000C5AE3A79213994803793A73556153400F7
:10102000000000803FF0FFBEE2A93E8376BEAE2BFB
:101030003E3CC3BDD2133D78D3BB0000000E01017E
:10104000446F670E01014D6F010E01014E6F2A0EB4
:1010500001014F6F000E0101506F550E0101516FDC
:10106000010E0101526F4B0E0101406F010E010193
:10107000416F470E0101426F010E0101436F280EBF
:101080000001EB6F000E0001EC6F760E0001746F33
:10109000600E0001756F3C0E0001766F2F0E00018F
:1010A000776F5D0E0001786F3D0E0001796F00ECE7
:1010B00021F0D4EC21F014EC21F005EC22F0EEEC60
:1010C00021F0F8EC22F0C6EC22F03AEC22F0C5EC6C
:1010D00021F00DEC23F0640EA7EC21F0A8EC1CF03D
:1010E00073C055F174C056F1000E3EEC1FF051C1B3
:1010F00078F052C179F0DDEC1CF01F0E916E010EFC
:101100003EEC1FF000D06FEC1DF0E806D8A403D031
:10111000000E07D0F8D711EC1DF0E806D8A4F3D7DD
:10112000010E2A6E01D0EFD74FC178F050C179F08F
:1011300003EC1FF0ECEC20F002EC23F00F0E916EAC
:10114000020E3EEC1FF000D06FEC1DF0E806D8A4B4
:1011500006D0ECEC20F0D5EC12F00CD0F5D711EC69
:101160001DF0E806D8A4F0D7ECEC20F0E9EC0EF086
:1011700001D0EAD7ECEC20F0030E916E050E3EECA8
:101180001FF0000E0001796F140E786F000E000141
:101190007B6F000E7A6F000E00017D6F000E7C6F7A
:1011A0003EEC1CF0000E0001736F110E726F40ECEC
:1011B0001DF072C05FF173C060F1000E0001736F2B
:1011C000130E726F40EC1DF072C061F173C062F1DA
:1011D000000E0001736F150E726F40EC1DF072C0AF
:1011E00063F173C064F15FC178F060C179F061C1EF
:1011F0007AF062C17BF063C17CF064C17DF009ECE0
:101200001CF000D06FEC1DF0E806D8A408D0ECEC80
:1012100020F0030E916E5AEC10F00ED0F3D711ECC3
:101220001DF0E806D8A4EED7ECEC20F0030E916E8A
:10123000FEEC14F001D0E6D7E9C078F0EAC079F00E
:10124000D5C07AF0D6C07BF0D7C07CF0D8C07DF096
:1012500073EC1CF000D0ECEC20F0010E916E080E47
:101260003EEC1FF000D06FEC1DF0E806D8B40FD0B4
:1012700001D00DD0B8EC22F0E806D8A4F4D7F4ECF5
:1012800022F0020AD8B403D0EED701D0ECD7000E7A
:101290000001DA6F000ED96F000E0001DC6F000E46
:1012A000DB6F000E0101586F000E576F000E010139
:1012B000666F000E656FE9C03CF1EAC03DF10101C7
:1012C000D8903C373D370101D8903C373D3701017C
:1012D000D8903C373D373CC15AF13DC15BF1E9C084
:1012E0003CF1EAC03DF10101D8903C373D370101A6
:1012F000D8903C373D370101D8903C373D3701014C
:101300003C1F3D1F3C4B3D2B3CC15CF13DC15DF1A1
:10131000000E0101596F000E0101466F000E010120
:10132000536F000E0101546F000E0101456F30EC48
:1013300022F0000E916EECEC20F0090E3EEC1FF056
:1013400095EC20F0D2EC22F0CDEC22F0FCEC22F077
:1013500098EC21F0FFEC22F00BEC23F000D0CDEC68
:1013600022F0FAEC21F000D08AEC22F00009D8A497
:10137000FBD75DEC1BF0F4EC15F026EC19F0010145
:10138000676F4DC170F04EC171F0BEEC17F070C0C8
:10139000D9F071C0DAF0E9C070F0EAC071F0D9C0DC
:1013A00072F0DAC073F093EC1FF070C03CF171C0C2
:1013B0003DF1D9C03EF1DAC03FF101013E1F3F1FB0
:1013C0003E4B3F2B0101575101013E250001706F3B
:1013D0000101585101013F210001716FD5C072F028
:1013E000D6C073F093EC1FF00001705101013C274F
:1013F0000001715101013D23D7C070F0D8C071F0D8
:1014000065C172F066C173F093EC1FF0000170517A
:1014100001013C250001DB6F0001715101013D21FB
:101420000001DC6FD9C057F1DAC058F10001D95181
:10143000010165270001DA510101662301015A51BA
:101440000101655D01016651800A01013C6F0101E6
:101450005B51800A01013C59D8A009D0EC0E010172
:101460005A250101656FFF0E01015B2118D00101B2
:10147000655101015C5D01015D51800A01013C6F14
:1014800001016651800A01013C59D8A00BD0140E0D
:1014900001015C250101656F000E01015D21010163
:1014A000666F00D0DBC078F0DCC079F01AEC18F081
:1014B000230E0001706F000E0001716FC6EC1DF06D
:1014C0009AEC22F00009D8A48CD0010154510101FA
:1014D000D8A487D0DCEC22F00001715105E13C0E6C
:1014E0000001705DD8A07DD0D2EC22F0E1EC22F0BA
:1014F000D00E0001705D040E00017159D8B06ED09D
:10150000010E0101546F0DEC23F0000E0001DA6FA3
:10151000000ED96F000E0001DC6F000EDB6F000EB5
:101520000101586F000E576F000E0101666F000E2B
:10153000656F07EC23F005EC23F0000E0001776FD8
:10154000FA0E766FB1EC22F0010E0001776F540EA7
:10155000766FAAEC22F00BEC23F0000E0101676F0E
:10156000D2EC22F000D0DCEC22F02C0E0001705DF9
:10157000010E00017159D8B01BD0F5D719D0FAEC83
:1015800021F000D08AEC22F00009D8A4FBD75DEC52
:101590001BF0F4EC15F026EC19F00101676F230E37
:1015A0000001706F000E0001716FC6EC1DF000D0DD
:1015B000010167510101D8B4E2D7020E0001776F33
:1015C0000E0E766FB1EC22F0020E0001776F0E0E58
:1015D000766FAAEC22F0FFEC22F070D030EC22F013
:1015E0006DD0010167510101D8A42DD001015351E3
:1015F0000101D8A428D0E6EC22F000D0EBEC22F0D8
:101600000001715107E1650E0001705DD8B002D094
:10161000F5D700D0FAEC21F000D08AEC22F00009D6
:10162000D8A4FBD75DEC1BF0F4EC15F026EC19F018
:101630000101676F010167510101D8A43FD098EC07
:1016400021F04BD03BD0B8EC22F0E806D8A414D05F
:10165000F4EC22F001015E6F030E01015E19D8A4C3
:1016600004D0010E0101466F29D0040E01015E195C
:10167000D8A424D017D022D011EC1DF0E806D8A4AD
:1016800002D0010E01D0000E01013C6F6FEC1DF085
:10169000E806D8A402D0010E01D0000E01013C11D1
:1016A000E8A004D0010E0101596F08D001015905CD
:1016B000D8A404D098EC21F010D000D0D7EC22F0C0
:1016C0000001715107E1190E0001705DD8B002D020
:1016D000F5D700D0000E916E42D6030E916E050E26
:1016E0003EEC1FF0000E0001796F140E786F000EB3
:1016F00000017B6F000E7A6F000E00017D6F000EFF
:101700007C6F3EEC1CF0000E0001736F110E726FC7
:1017100040EC1DF072C05FF173C060F1000E00017B
:10172000736F130E726F40EC1DF072C061F173C0E5
:1017300062F1000E0001736F150E726F40EC1DF028
:1017400072C063F173C064F15FC178F060C179F079
:1017500061C17AF062C17BF063C17CF064C17DF04D
:1017600009EC1CF0ECEC20F0030E916E5AEC10F03A
:10177000E9C078F0EAC079F0D5C07AF0D6C07BF045
:10178000D7C07CF0D8C07DF073EC1CF064D576EF48
:1017900000F08DC091F00001926B936B00018C35CD
:1017A0000001913701E39281000191510001966F90
:1017B00090C091F00001926B936B00018F35000196
:1017C000913701E39281000191510001956F000171
:1017D00096510001D8B411D0000195510001965DD9
:1017E000D8B012D0000196510008000195250001E3
:1017F000916F180E0001916507D08EC08BF08FC0DD
:101800008CF090C08DF003D1000195510001D8B447
:1018100011D0000196510001955DD8B012D00001A1
:1018200095510008000196250001916F180E0001E6
:10183000916507D08BC08BF08CC08CF08DC08DF083
:10184000E6D0060E0001946F00018DAF03D00001B9
:10185000948F00D0000190AF02D00001948D000160
:101860008C8FFF0E00018B17FF0E00018C17000EEE
:1018700000018D1700018F8FFF0E00018E17FF0EE4
:1018800000018F17000E0001901700019551000113
:10189000965DD8B028D00001D8908E378F3790371A
:1018A000000195070001965100019519D8B413D095
:1018B0000001940794C091F0070E00019117D8B46D
:1018C0000AD0E9D708D00001D8908D338C338B3300
:1018D0000001962B00D00001955100019619D8B453
:1018E00030D0F1D72ED0000196510001955DD8B0CF
:1018F00028D00001D8908B378C378D3700019607A0
:101900000001965100019519D8B413D00001940735
:1019100094C091F0070E00019117D8B40AD0E9D70E
:1019200008D00001D89090338F338E330001952B6F
:1019300000D00001955100019619D8B402D0F1D71A
:1019400000D0000194AF12D0FF0E00018B1BFF0EE0
:1019500000018C1BFF0E00018D1B010E00018B2767
:10196000000E00018C23000E00018D23000194ADB8
:1019700013D0FF0E00018E1BFF0E00018F1BFF0E08
:101980000001901B010E00018E27000E00018F2325
:10199000000E0001902300D0000E0001946F0001A2
:1019A0008B5100018E2700018C5100018F23000113
:1019B0008D5100019023000190AF16D0FF0E000161
:1019C0008E1BFF0E00018F1BFF0E0001901B010EEE
:1019D00000018E27000E00018F23000E00019023CE
:1019E000010E0001946F00D08EC070F08FC071F0B6
:1019F00090C072F096C073F094C074F065EC13F070
:101A000070C08BF071C08CF072C08DF000D01200ED
:101A10000001AC510001AD110001AE11D8A409D0F4
:101A2000000E0001AC6F800E0001AD6F3F0E3DD087
:101A300002D1720E0001706F310E0001716F440E01
:101A40000001726FACC073F0ADC074F0AEC075F041
:101A500057EC17F00001D8B00ED0000E0001DE6F79
:101A6000220EDD6FFF0E0001AC6F7F0E0001AD6F27
:101A70007F0E1BD0E0D0ACC070F0ADC071F0AEC036
:101A800072F0490E0001736F3A0E0001746FC40EBC
:101A90000001756F57EC17F00001D8B009D0000EA7
:101AA0000001DE6F220EDD6F9FD00001AE6FC3D04C
:101AB0000001AEAF02D0010E01D0000E0001B46FE4
:101AC0000001B4510001D8B40ED0ACC070F0ADC06C
:101AD00071F0AEC072F065EC20F070C0ACF071C077
:101AE000ADF072C0AEF0ACC07CF0ADC07DF0AEC069
:101AF0007EF0AA0E00017F6FB80E0001806F3F0ECE
:101B00000001816FACEC0FF07CC0ACF07DC0ADF09B
:101B10007EC0AEF0ACC0A4F0ADC0A5F0AEC0A6F0E3
:101B200080EC14F0A4C0AFF0A5C0B0F0A6C0B1F036
:101B3000AFC08BF0B0C08CF0B1C08DF03CEC12F0B7
:101B40008BC0B2F08CC0B3F0ACC097F0ADC098F0D1
:101B5000AEC099F0B2C078F0B3C079F016EC1EF0C8
:101B600078C09AF079C09BF07AC09CF0EEEC1DF042
:101B700097C0ACF098C0ADF099C0AEF0ACC097F093
:101B8000ADC098F0AEC099F0010E00019A6F100E32
:101B900000019B6F000E00019D6F090E9C6F79EC98
:101BA00015F097C0A3F098C0A4F099C0A5F0B2C0FA
:101BB000A6F0B3C0A7F0F5EC13F0A3C0ACF0A4C03E
:101BC000ADF0A5C0AEF00001B4510001D8B42DD0E5
:101BD0000001AC2912E17F0E0001AD190EE17F0E6C
:101BE0000001AE19D8A409D0000E0001AC6F000EA0
:101BF0000001AD6F000E59D71ED0000E0001786FA6
:101C0000800E0001796F3F0E00017A6FACC07BF04F
:101C1000ADC07CF0AEC07DF0FBEC10F078C0ACF055
:101C200079C0ADF07AC0AEF006D0ACC0ACF0ADC0BB
:101C3000ADF0AEC0AEF01200000E0001C16F0001A9
:101C4000B5510001B6110001B711D8A416D0000E8D
:101C50000001706F000E0001716F000E0001726FC5
:101C6000B8C073F0B9C074F0BAC075F057EC17F093
:101C70000001D8A045D03FD0ABD00001B851000141
:101C8000B9110001BA11D8A409D0000E0001B56F36
:101C9000800E0001B66F3F0E3AD09AD00001B7AF68
:101CA0004DD0B8C08BF0B9C08CF0BAC08DF03CEC10
:101CB00012F08BC0C2F08CC0C3F08DC0C4F08EC0D7
:101CC000C5F0C2C078F0C3C079F0C4C07AF0C5C016
:101CD0007BF09FEC1AF00001B851000178190BE17C
:101CE0000001B9510001791906E10001BA51000162
:101CF0007A19D8B40FD0000E0001DE6F210EDD6F0F
:101D0000000E0001B56F000E0001B66F000E00015D
:101D1000B76F5ED00001C251010B0001C16FB5C0A9
:101D200070F0B6C071F0B7C072F065EC20F070C012
:101D3000B5F071C0B6F072C0B7F000D0B5C0A3F076
:101D4000B6C0A4F0B7C0A5F09CEC11F0A3C0BBF0E6
:101D5000A4C0BCF0A5C0BDF0BBC07CF0BCC07DF091
:101D6000BDC07EF0B8C07FF0B9C080F0BAC081F0CD
:101D7000ACEC0FF07CC0BEF07DC0BFF07EC0C0F008
:101D8000BEC0ACF0BFC0ADF0C0C0AEF008EC0DF00E
:101D9000ACC0B5F0ADC0B6F0AEC0B7F00001C151F7
:101DA0000001D8B40FD0B5C070F0B6C071F0B7C0A4
:101DB00072F065EC20F070C0B5F071C0B6F072C082
:101DC000B7F006D0B5C0B5F0B6C0B6F0B7C0B7F042
:101DD00012002A50D8A40FD0000E0001736F000E1D
:101DE000726F7AEC22F0FF0AD8A405D0ECEC20F058
:101DF000D5EC12F0A2D02A50D8A445D0000E000194
:101E0000736F000E726F7AEC22F0E806D8A43BD014
:101E1000000E0001736F020E726F40EC1DF072C075
:101E200028F073C029F0000E0001826F040E00013B
:101E3000826501D082D0000182510001806F816BE8
:101E4000D890000180378137060E000180250001FF
:101E5000726F000E000181210001736F40EC1DF0D4
:101E600000018251020DDF0EF324D96E000EF42022
:101E7000DA6E000172C0DEFF000173C0DDFF0001F9
:101E8000822BD4D75AD02A04D8A40FD0000E000138
:101E9000736F010E726F7AEC22F0FF0AD8A405D09E
:101EA000ECEC20F0D5EC12F048D02A04D8A445D0B0
:101EB000000E0001736F010E726F7AEC22F0E806DB
:101EC000D8A43BD0000E0001736F040E726F40EC7B
:101ED0001DF072C028F073C029F0000E0001826F5F
:101EE000040E0001826501D028D00001825100015A
:101EF000806F816BD890000180378137060E00011A
:101F000080250001726F000E000181210001736FB6
:101F100040EC1DF000018251020DDF0EF324D96E5A
:101F2000000EF420DA6E000172C0DEFF000173C003
:101F3000DDFF0001822BD4D700D0DF0E0001786FC7
:101F4000000E0001796F79EC19F0EBC078F0ECC06D
:101F500079F0D3EC1BF012007EC082F00001836B9D
:101F6000846B00017D350001823701E3838100012C
:101F700082510001856F00018551D8A402D014D090
:101F800098D081C082F00001836B846B00018035A2
:101F90000001823701E383810001825100018A6FD1
:101FA00000018A51D8A40AD0000E00017C6F000EF7
:101FB00000017D6F000E00017E6F7BD000018A5111
:101FC0007B0F000185277EC08AF00001815100014E
:101FD0008A1B800E00018A1700017D8F0001808F0F
:101FE000FF0E00017F17FF0E00018017000E000199
:101FF0008117000E0001866F000E0001876F000E32
:102000000001886F070E0001896F00D000017CA1DC
:102010000DD000017F510001862700018051000191
:102020008723000181510001882300D00001D8904E
:102030007E337D337C330001D8907F378037813702
:102040000001892FE3D700D0090E0001896F00D06D
:1020500000017CA10DD000017F5100018627000105
:10206000805100018723000181510001882300D0A5
:102070000001D8907E337D337C330001D8908833C3
:10208000873386330001892FE3D700D086C070F0F4
:1020900087C071F088C072F085C073F08AC074F098
:1020A00065EC13F070C07CF071C07DF072C07EF002
:1020B00000D01200070E3EEC1FF0E6EC1FF0000E01
:1020C00000017C6F080E00017C6502D00BD000D0AF
:1020D0009EAAFED728EC21F0A1EC1EF000017C2B7B
:1020E000F1D700D03AEC1EF0AA0AD8B402D0FAD741
:1020F00000D03AEC1EF0E806D8A4FBD73AEC1EF06C
:102100000001796F0001795100017B6F7A6B000E3D
:1021100000017A150001E96FFF0E00017B15000137
:10212000EA6F3AEC1EF00001796F0001795100016D
:10213000E9133AEC1EF00001796F000179510001BA
:102140007B6F7A6B000E00017A150001D56FFF0ED0
:1021500000017B150001D66F3AEC1EF00001796F8B
:10216000000179510001D5133AEC1EF00001796F9E
:102170000001795100017B6F7A6B000E00017A1526
:102180000001D76FFF0E00017B150001D86F3AECFC
:102190001EF00001796F000179510001D713000E84
:1021A0000001746F110E736FE9C075F0EAC076F02C
:1021B0001BEC20F0000E0001746F130E736FD5C07E
:1021C00075F0D6C076F01BEC20F0000E0001746FA5
:1021D000150E736FD7C075F0D8C076F01BEC20F0E9
:1021E000000E0001746F100E736F010E0001756F09
:1021F00044EC22F012007AC07EF000017F6B806B0D
:102200000001793500017E3701E37F8100017E51B5
:102210000001856F00018551D8A402D014D08BD065
:102220007DC07EF000017F6B806B00017C3500017A
:102230007E3701E37F8100017E510001866F00013E
:102240008651D8A40AD0000E0001786F000E00015C
:10225000796F000E00017A6F6ED0000E0001826F60
:10226000000E0001836F000E0001846F0001865193
:10227000890F0001855F7AC086F000017D51000161
:10228000861B800E000186170001798FFF0E00016A
:102290007817FF0E00017917000E00017A17000170
:1022A0007C8FFF0E00017B17FF0E00017C17000ED4
:1022B00000017D17180E0001816F00D00001D89039
:1022C00082378337843700017B510001785D00013C
:1022D0007C510001795900017D5100017A59D8A043
:1022E0000ED000017B510001785F00017C5100019C
:1022F000795B00017D5100017A5B00018281000160
:10230000D890783779377A370001812FD7D700D026
:1023100082C070F083C071F084C072F085C073F029
:1023200086C074F065EC13F070C078F071C079F07D
:1023300072C07AF000D012000001A5AF06D0000EE6
:102340000001DE6F210E0DD096D00001A3510001D7
:10235000A4110001A511D8A40FD0000E0001DE6F5A
:10236000220EDD6F000E0001A36F000E0001A46FAE
:10237000000E0001A56F7FD0000E00017F6F000EE0
:102380000001806F400E0001816FA60E0001736F87
:10239000000E0001746FA3C070F0A4C071F0A5C05E
:1023A00072F0CFEC18F070C07CF071C07DF072C09C
:1023B0007EF0ACEC0FF07CC08BF07DC08CF07EC06A
:1023C0008DF0000E00018E6F800E00018F6FBF0E2A
:1023D0000001906FC9EC0BF08BC0A3F08CC0A4F08F
:1023E0008DC0A5F00001A607D8A0A707A3C097F04D
:1023F000A4C098F0A5C099F01F0E00019A6F100EAE
:1024000000019B6F000E00019D6F080E9C6F79EC20
:1024100015F097C0A3F098C0A4F099C0A5F0720E73
:1024200000017F6F310E0001806F3F0E0001816F50
:10243000A6C078F0A7C079F016EC1EF078C07CF04A
:1024400079C07DF07AC07EF0ACEC0FF07CC08BF0F0
:102450007DC08CF07EC08DF0A3C08EF0A4C08FF044
:10246000A5C090F0C9EC0BF08BC0A3F08CC0A4F019
:102470008DC0A5F000D012008DC08FF00001906BD0
:10248000916B00018C3500018F3701E390810001D1
:102490008F510001996F00019951D8A402D051D0F9
:1024A00083D0170E00018F6F8BC090F08CC091F01D
:1024B0008DC092F000018F290001936F05D00001BB
:1024C000D8909233913390330001932FF8D70001C5
:1024D00090510001946F00018C8FFF0E00018B174B
:1024E000FF0E00018C17000E00018D1700018B51AB
:1024F0000001956F00018C510001966F00018D5114
:102500000001976F0001986B8E0E0001995F00012A
:1025100099AF13D000019951800A8F0FD8B003D022
:1025200010D042D000D00001D89098339733963322
:1025300095330001993FF7D71FD0170E0001996519
:1025400014D0000E00018B6F000E8C6F000E8D6F8B
:10255000000E8E6F29D009D00001D890953796379C
:10256000973798370001990700D000019951000171
:10257000D8B402D0F1D700D0000194510001D8B4F2
:102580000AD00001981F971F961F956D000E962385
:102590009723982300D095C08BF096C08CF097C0FD
:1025A0008DF098C08EF000D01200030E3EEC1FF0AC
:1025B000070E916E06D098EC1BF00A0EA7EC21F0E6
:1025C00000D06FEC1DF00009D8B4F5D7000E000163
:1025D0007F6F040E00017F6501D025D000017F517F
:1025E00000017D6F7E6BD89000017D377E37060E2F
:1025F00000017D250001736F000E00017E210001A6
:10260000746F00017F51020DDF0EF324D96E000EAE
:10261000F420DA6EDECF75F0DDCF76F01BEC20F023
:1026200000017F2BD6D7DF0E0001786F000E00016E
:10263000796F79EC19F0ECEC20F0040E3EEC1FF011
:1026400006D09EEC1DF00A0EA7EC21F000D06FEC36
:102650001DF00009D8B4F5D72A50D8A416D0000E22
:102660000001746F020E736F28C075F029C076F0F8
:102670001BEC20F0000E0001746F000E736F010E52
:102680000001756F44EC22F019D02A04D8A416D0AA
:10269000000E0001746F040E736F28C075F029C01E
:1026A00076F01BEC20F0000E0001746F010E736FCA
:1026B000010E0001756F44EC22F000D0EBC078F001
:1026C000ECC079F0D3EC1BF0120000017351000153
:1026D000D8B408D0000170510001711100017211CD
:1026E000D8A413D0000E0001706F000E0001716FAE
:1026F000000E0001726F78D008D00001732B00012A
:10270000D89072337133703300D0000E0001701511
:102710000001756F000E000171150001766FFE0E4D
:10272000000172150001776F0001755100017611EB
:1027300000017711D8B413D0E0D711D00001732B6A
:10274000010E00017027000E00017123000E000130
:1027500072230001D89072337133703300D0000EB1
:10276000000170150001756F000E00017115000168
:10277000766FFF0E000172150001776F0001755131
:102780000001761100017711D8B40AD0D7D708D04C
:10279000000173070001D89070377137723700D08D
:1027A000000171BF05D0020E00017361F1D700D0A6
:1027B000000173B103D00001719F00D00001D890D7
:1027C0007333000173510001721300017451000151
:1027D000D8B403D00001728F00D070C070F071C007
:1027E00071F072C072F000D012000001A35100011C
:1027F000A4110001A511D8A402D02AD080D00001D4
:10280000A5517F0B0001A86FA96BD8900001A837D4
:10281000A9370001A8510001A6270001A951000114
:10282000A7230001A4AF04D00001A86BA82B02D0FD
:102830000001A86B0001A8510001A627000EA723E4
:102840000001A7AF0FD0000E0001DE6F220EDD6F7A
:10285000000E0001A36F000E0001A46F000E22D035
:102860004ED046D00001A7BF21D00001A705D8A0B7
:102870001DD0000E0001DE6F220EDD6F0001A5AF3E
:102880000AD0FF0E0001A36F7F0E0001A46FFF0EA0
:1028900009D035D02DD0FF0E0001A36F7F0E0001AF
:1028A000A46F7F0E0001A56F2AD022D00001A735AA
:1028B000A7310001A96F0001A6310001A86F000136
:1028C000A5510001A819800BA8190001A56FA6C089
:1028D000A8F0010E0001A8170001A833A8330001D9
:1028E000A4510001A8197F0BA8190001A46F00D002
:1028F000A3C0A3F0A4C0A4F0A5C0A5F000D012000E
:10290000A4C070F0A5C071F0A6C072F0AA0E0001BC
:10291000736F000E0001746FCFEC18F00001ABAFC5
:1029200016D00001A6AF09D0000E0001A46F800EE2
:102930000001A56FBF0E08D060D0000E0001A46F8B
:10294000000E0001A56F000E0001A66F56D0000119
:10295000AB5105E1150E0001AA5DD8A007D0A4C0B7
:10296000A4F0A5C0A5F0A6C0A6F047D0A4C08BF0E7
:10297000A5C08CF0A6C08DF03CEC12F08BC09AF094
:102980008CC09BF08DC09CF08EC09DF0CAEC19F0FD
:102990009AC0A7F09BC0A8F09CC0A9F0A4C070F09A
:1029A000A5C071F0A6C072F0A7C073F0A8C074F003
:1029B000A9C075F057EC17F00001D8B018D0A7C027
:1029C0008BF0A8C08CF0A9C08DF0000E00018E6FB6
:1029D000800E00018F6FBF0E0001906FC9EC0BF0ED
:1029E0008BC0A4F08CC0A5F08DC0A6F006D0A7C007
:1029F000A4F0A8C0A5F0A9C0A6F01200060E3EECF7
:102A00001FF000D06FEC1DF0E806D8A43CD0000EFB
:102A10000001EA6F140EE96F000E0001D66F000E80
:102A2000D56F000E0001D86F000ED76F000E0001A9
:102A3000746F110E736FE9C075F0EAC076F01BEC8D
:102A400020F0000E0001746F130E736FD5C075F087
:102A5000D6C076F01BEC20F0000E0001746F150E4E
:102A6000736FD7C075F0D8C076F01BEC20F0000E65
:102A70000001746F100E736F010E0001756F44EC4E
:102A800022F036D0BFD711EC1DF0E806D8A4BAD793
:102A9000000E0001736F100E726F7AEC22F0FF0AC5
:102AA000D8A403D05AEC10F023D0000E0001736FAD
:102AB000110E726F40EC1DF072C0E9F073C0EAF0C5
:102AC000000E0001736F130E726F40EC1DF072C0A8
:102AD000D5F073C0D6F0000E0001736F150E726F43
:102AE00040EC1DF072C0D7F073C0D8F001D08AD787
:102AF00012009CC070F09DC071F0000E0001736F59
:102B0000030E726F93EC1FF09AC09EF09BC09FF073
:102B10000001705100019E270001715100019F23A7
:102B20009EC0F6FF9FC0F7FF000EF86E0900F5CFBC
:102B3000A0F00900F5CFA1F00A00F5CFA2F047D030
:102B4000A0C07FF0A1C080F0A2C081F097C07CF04F
:102B500098C07DF099C07EF0ACEC0FF07CC08BF09B
:102B60007DC08CF07EC08DF0000E0001736F030EEF
:102B7000726F00019C07D8A09D079CC070F09DC09B
:102B800071F093EC1FF09AC09EF09BC09FF0000183
:102B9000705100019E270001715100019F239EC0CA
:102BA000F6FF9FC0F7FF000EF86E0900F5CF8EF01C
:102BB0000900F5CF8FF00A00F5CF90F0C9EC0BF0CB
:102BC0008BC0A0F08CC0A1F08DC0A2F000D000019D
:102BD0009C5100019D11D8A4B3D7A0C097F0A1C00B
:102BE00098F0A2C099F012002A04D8A438D0000EA0
:102BF0000001736F040E0001736501D06BD00001FA
:102C00007351020D320EF324D96E010EF420DA6EE8
:102C1000DE50285C2950800A0001726FDE50800A65
:102C200000017259D8B00BD000017351010D230E71
:102C3000F324D96E000EF420DA6E010E0AD00001E2
:102C40007351010D230EF324D96E000EF420DA6EB9
:102C5000000EDF6E00D00001732BCCD73BD02A5082
:102C6000D8A438D0000E0001736F040E0001736504
:102C700001D030D000017351020D320EF324D96E11
:102C8000010EF420DA6E2850DE5CDE50800A00016E
:102C9000726F2950800A00017259D8B00BD0000120
:102CA0007351010D230EF324D96E000EF420DA6E59
:102CB000010E0AD000017351010D230EF324D96EC9
:102CC000000EF420DA6E000EDF6E00D00001732BD0
:102CD000CCD700D012000001726F40D0870EB6EC46
:102CE00021F06FD08F0EB6EC21F06BD0970EB6ECC2
:102CF00021F067D09F0EB6EC21F063D0A70EB6ECA2
:102D000021F05FD0AF0EB6EC21F05BD0B70EB6EC81
:102D100021F057D0BF0EB6EC21F053D0C70EB6EC61
:102D200021F04FD0CF0EB6EC21F04BD0D70EB6EC41
:102D300021F047D0DF0EB6EC21F043D0E70EB6EC21
:102D400021F03FD0EF0EB6EC21F03BD0F70EB6EC01
:102D500021F037D0FF0EB6EC21F033D000017251D4
:102D6000000AD8B4BBD7010AD8B4BCD7030AD8B478
:102D7000BDD7010AD8B4BED7070AD8B4BFD7010A55
:102D8000D8B4C0D7030AD8B4C1D7010AD8B4C2D7BF
:102D90000F0AD8B4C3D7010AD8B4C4D7030AD8B429
:102DA000C5D7010AD8B4C6D7070AD8B4C7D7010A0D
:102DB000D8B4C8D7030AD8B4C9D7010AD8B4CAD777
:102DC00000D012002D6E40D0870E10EC22F06ED095
:102DD0008F0E10EC22F06AD0970E10EC22F066D025
:102DE0009F0E10EC22F062D0A70E10EC22F05ED005
:102DF000AF0E10EC22F05AD0B70E10EC22F056D0E5
:102E0000BF0E10EC22F052D0C70E10EC22F04ED0C4
:102E1000CF0E10EC22F04AD0D70E10EC22F046D0A4
:102E2000DF0E10EC22F042D0E70E10EC22F03ED084
:102E3000EF0E10EC22F03AD0F70E10EC22F036D064
:102E4000FF0E10EC22F032D02D50000AD8B4BCD7BF
:102E5000010AD8B4BDD7030AD8B4BED7010AD8B482
:102E6000BFD7070AD8B4C0D7010AD8B4C1D7030A5C
:102E7000D8B4C2D7010AD8B4C3D70F0AD8B4C4D7BC
:102E8000010AD8B4C5D7030AD8B4C6D7010AD8B442
:102E9000C7D7070AD8B4C8D7010AD8B4C9D7030A14
:102EA000D8B4CAD7010AD8B4CBD700D012000001D9
:102EB00072AF1ED070C076F071C077F072C078F03B
:102EC0000001761F771F781F762B000E772378235B
:102ED000000E000176250001706F000E00017721C1
:102EE0000001716F800E000178210001726F00D027
:102EF000000175AF1ED073C076F074C077F075C056
:102F000078F00001761F771F781F762B000E77234D
:102F10007823000E000176250001736F000E00017A
:102F200077210001746F800E000178210001756F18
:102F300000D0000E0001701B000E0001711B800EFE
:102F40000001721B000E0001731B000E0001741BB8
:102F5000800E0001751B000173510001705D0001BE
:102F60007451000171590001755100017259D8B0B6
:102F700002D0D89002D0D88000D0120033D0000EFA
:102F80000001716F080E53D054D0000E0001716F14
:102F9000060E4DD04ED0000E0001716F040E47D0CA
:102FA00048D0000E0001716F020E41D042D03BD0DC
:102FB00040D0FF0E0001716FFE0E39D03AD0FF0EE7
:102FC0000001716FFC0E33D034D0FF0E0001716F21
:102FD000FA0E2DD02ED0FF0E0001716FF80E27D003
:102FE00028D021D070C0D9FF71C0DAFFDF50010AAC
:102FF000D8B4F1D7030AD8B4E2D7010AD8B4E5D7D8
:10300000070AD8B410D0020AD8B4D3D70E0AD8B45D
:10301000C2D7040AD8B4C5D71C0AD8B4B0D7080A96
:10302000D8B4B3D700D0000E0001716F000E706FDE
:1030300000D01200000179BF07D00001795121E1D1
:1030400000017805D8B01DD078C07AF079C07BF047
:1030500000017A1F7B1F7A4B7B2BF00E00017A2533
:103060000001766F000E00017B210001776FB1EC4B
:1030700022F0000E0001776FF00E766FAAEC22F0BE
:1030800033D0000179BF1BD00001795104E1000168
:103090007805D8A014D0000E0001776FF00E766F7F
:1030A000B1EC22F0F00E000178250001766F000EE1
:1030B000000179210001776FAAEC22F015D0000100
:1030C000785100017911D8A40FD0000E0001776F5C
:1030D000F00E766FB1EC22F0000E0001776FF00E6B
:1030E000766FAAEC22F000D01200000E0001756F7E
:1030F000000171AF09D00001706D711FD8B0712B44
:10310000010E0001756F00D0000173AF06D0000101
:10311000726D731FD8B0732B00D000017251000183
:103120007311D8B42BD0010E0001746F07D00001C9
:10313000D890723773370001742B00D0000173BF31
:1031400002D0F5D700D0000172510001705D00017E
:10315000735100017159D8A009D0000172510001CA
:10316000705F000173510001715B00D00001D890C5
:10317000733372330001742FE6D700D0000175510C
:103180000001D8B406D00001706D711FD8B0712B4A
:1031900000D070C070F071C071F000D0120000015A
:1031A00070510001711100017211D8A412D073C0C6
:1031B000D9FF74C0DAFF000EDE6E000EDD6E000E69
:1031C0000001706F000E0001716F000E0001726F40
:1031D0003CD0000172517F0B0001756F766BD89067
:1031E00000017537763773C0D9FF74C0DAFF75C038
:1031F000DEFF76C0DDFF000171AF04D00001756B0A
:10320000752B02D00001756B0001755173C0D9FF99
:1032100074C0DAFFDE12000EDD1273C0D9FF74C075
:10322000DAFF820EDE26FF0EDD2272817283728546
:1032300072877289728B729D0001719F70C070F0ED
:1032400071C071F072C072F000D01200000E000167
:10325000C96F000E0001CA6F040E0001CA6501D0DB
:1032600044D00001CA517DEC20F078C0B8F079C09C
:10327000B9F07AC0BAF0000E0001B56F000E00017F
:10328000B66F400E0001B76F1CEC0EF0B5C0C6F073
:10329000B6C0C7F0B7C0C8F0C6C07FF0C7C080F0E6
:1032A000C8C081F00001CA51010D230EF324D96E6C
:1032B000000EF420DA6EDF507DEC20F078C07CF058
:1032C00079C07DF07AC07EF0ACEC0FF07CC08BF062
:1032D0007DC08CF07EC08DF03CEC12F000018B5173
:1032E0000001C9270001CA2BB7D70001C95100D07E
:1032F000120000D082EC22F00009D8A4FBD7CBEC5E
:103300001FF0AA0EC2EC1EF0210EC2EC1EF0000E41
:1033100000017C6F040E00017C6501D02CD00001FF
:103320007C51020DF35000017825D96EF450000154
:103330007921DA6EDECF7AF0DDCF7BF07BC07AF0D8
:1033400000017B6B7ABF7B6900017A51C2EC1EF0F1
:1033500000017C51020DF35000017825D96EF45024
:1033600000017921DA6EDF50FF0DF350C2EC1EF040
:1033700000017C2BCFD70D0EC2EC1EF00A0EC2EC62
:103380001EF000D082EC22F00009D8A4FBD7F0ECAC
:1033900022F01200000E0001A36F8E0E0001A26F3A
:1033A00000019DAF16D000019D1F9C1F9B1F9A6DB1
:1033B000000E9B239C239D23010E0001A36F09D0C7
:1033C0000001D8909D339C339B339A330001A22B8C
:1033D00000D0000E00019A1500019E6F000E000142
:1033E0009B1500019F6F000E00019C150001A06F4E
:1033F000FF0E00019D150001A16F00019E5100010B
:103400009F110001A0110001A111D8A4D9D79AC021
:1034100070F09BC071F09CC072F0A2C073F0A3C0AA
:1034200074F065EC13F070C09AF071C09BF072C03C
:103430009CF000D012000001726F000EAC6E000E06
:10344000AB6E000172A102D0AC8800D0000172A363
:1034500003D0AC8CAB8C00D0000172A502D0AC8E36
:1034600000D0000172A702D0AB8802D0AB8A00D096
:10347000000172A902D0AC8400D0000172AB02D06E
:10348000AB8600D0000172AD02D09D8A02D09D9A19
:1034900000D0000172AF02D09D8801D09D9870C00D
:1034A000AFFF000171517F6EAC8AAB8E949C948EFD
:1034B000ACB8ACBE02D0948C00D01200000E306EBE
:1034C0002CAE07D02B6C2C1ED8B02C2A010E306EDF
:1034D00000D02EAE05D02D6C2E1ED8B02E2A00D0D6
:1034E0002D502E10D8B41DD0010E2F6E05D0D890BF
:1034F0002D362E362F2A00D02EBE02D0F8D700D07F
:103500002D502B5C2E502C58D8A005D02D502B5E62
:103510002E502C5A00D0D8902E322D322F2EF0D78C
:1035200000D03050D8B405D02B6C2C1ED8B02C2A2B
:1035300000D02BC02BF02CC02CF000D012008E0E2F
:103540000001806F09D00001D8907B337A33793342
:1035500078330001802B00D0000E000178150001A7
:103560007C6F000E0001791500017D6F000E0001D7
:103570007A1500017E6FFF0E00017B1500017F6F41
:1035800000017C5100017D1100017E1100017F11BD
:10359000D8A4D9D778C070F079C071F07AC072F031
:1035A00080C073F0000E0001746F65EC13F070C002
:1035B00078F071C079F072C07AF000D01200060085
:1035C000EACF65F0E1CF66F0E2CF67F0D9CF68F0DF
:1035D000DACF69F0F3CF6AF0F4CF6BF0F6CF6CF08E
:1035E000F7CF6DF0F8CF6EF0F5CF6FF0F2A404D006
:1035F000F294E1EC21F006D0F0A404D0F09434EC85
:1036000020F000D06FC0F5FF6EC0F8FF6DC0F7FF6F
:103610006CC0F6FF6BC0F4FF6AC0F3FF69C0DAFF4D
:1036200068C0D9FF67C0E2FF66C0E1FF65C0EAFF7E
:1036300064C0E9FF63C0FBFF62C0FAFF1100000134
:10364000746F000EC26E000EC06E0001D890703113
:103650003C0BC26E70C072F00001723BF00E72172C
:10366000300E00017217000171510F0B0001721131
:10367000C16E74C072F00001D89072370001D8900A
:103680007237380E0001721774C073F00001733B7B
:103690000F0E7317070E0001731700017451800B92
:1036A0000001731100017211C06E000170AF03D0F0
:1036B0009E9C9D8CF28CC2801200000E0001746FE3
:1036C000040E0001746501D032D000017451020D66
:1036D000DF0EF324D96E000EF420DA6EDECF70F028
:1036E000DDCF71F000017451020DCB0EF324D96EC1
:1036F000000EF420DA6EDECF72F0DDCF73F0000141
:103700007051000172270001715100017323000103
:103710007451020D320EF324D96E010EF420DA6ECC
:1037200072C0DEFF73C0DDFF0001742BC9D7120029
:10373000FAEC21F000D08AEC22F00009D8A4FBD7E3
:10374000000E0001756F040E0001756501D02AD0CE
:1037500000017551020DCB0EF324D96E000EF4203A
:10376000DA6EDECF73F0DDCF74F00001731F741FCB
:10377000734B742B0001CF51000173270001D0510E
:103780000001742300017551020DDF0EF324D96E80
:10379000000EF420DA6E73C0DEFF74C0DDFF00019E
:1037A000752BD1D7120000D082EC22F00009D8A4EA
:1037B000FBD7CBEC1FF0AA0EC2EC1EF0310EC2EC10
:1037C0001EF078C0D9FF79C0DAFFDECF7AF0DDCF06
:1037D0007BF07BC07AF000017B6B7ABF7B690001D4
:1037E0007A51C2EC1EF078C0D9FF79C0DAFFDF5001
:1037F000C2EC1EF00D0EC2EC1EF00A0EC2EC1EF062
:1038000000D082EC22F00009D8A4FBD7F0EC22F023
:10381000120000D082EC22F00009D8A4FBD7CBEC38
:103820001FF0AA0EC2EC1EF0420EC2EC1EF0000108
:103830007951C2EC1EF000017851C2EC1EF000017B
:103840007B51C2EC1EF000017A51C2EC1EF0000167
:103850007D51C2EC1EF000017C51C2EC1EF00D0E39
:10386000C2EC1EF00A0EC2EC1EF000D082EC22F078
:103870000009D8A4FBD7F0EC22F0120000D082ECB3
:1038800022F00009D8A4FBD7CBEC1FF0AA0EC2ECA3
:103890001EF0410EC2EC1EF000017951C2EC1EF088
:1038A00000017851C2EC1EF000017B51C2EC1EF009
:1038B00000017A51C2EC1EF000017D51C2EC1EF0F5
:1038C00000017C51C2EC1EF00D0EC2EC1EF00A0E7F
:1038D000C2EC1EF000D082EC22F00009D8A4FBD785
:1038E000F0EC22F0120000D082EC22F00009D8A403
:1038F000FBD7CBEC1FF0AA0EC2EC1EF0430EC2ECBD
:103900001EF000017951C2EC1EF000017851C2ECAA
:103910001EF000017B51C2EC1EF000017A51C2EC96
:103920001EF000017D51C2EC1EF000017C51C2EC82
:103930001EF00D0EC2EC1EF00A0EC2EC1EF000D0FE
:1039400082EC22F00009D8A4FBD7F0EC22F01200A0
:10395000000E0001796F000E786F5BEC1FF0E80637
:10396000D8A417D0CC0EABEC20F0690EABEC20F055
:103970000C0EABEC20F077EC1FF00001796F786B48
:1039800077EC1FF00001756F00017551000178138D
:1039900000D078C075F079C076F0050E0001776F21
:1039A0000001D890763375330001772FF9D775C0B1
:1039B00073F076C074F000D0120000D082EC22F0D8
:1039C0000009D8A4FBD7CBEC1FF0AA0EC2EC1EF066
:1039D000060EC2EC1EF078C0D9FF79C0DAFFDECF48
:1039E0007AF0DDCF7BF07BC07AF000017B6B0001C9
:1039F0007A51C2EC1EF078C0D9FF79C0DAFFDF50EF
:103A0000C2EC1EF00D0EC2EC1EF00A0EC2EC1EF04F
:103A100000D082EC22F00009D8A4FBD7F0EC22F011
:103A20001200B8EC22F0E806D8A40BD0F4EC22F097
:103A3000060AD8A41FD01BD022D01FD01BD01FD065
:103A40001CD081B403D016D01AD017D081A415D0C1
:103A5000E6EC22F000D0EBEC22F00001715105E120
:103A60000A0E0001705DD8A0F6D781A403D0010E24
:103A700006D003D0000E03D000D0000E00D01200FC
:103A800072C070F073C071F0C1EC20F00001746F6F
:103A9000000174510001766F756B000E0001751501
:103AA0000001776FFF0E000176150001786F010E9F
:103AB000000172250001706F000E000173210001EA
:103AC000716FC1EC20F00001746F000174510001AE
:103AD000771377C072F078C073F000D01200B8ECA2
:103AE00022F0E806D8A40BD0F4EC22F0050AD8A402
:103AF0001FD01BD022D01FD01BD01FD01CD081B212
:103B000003D016D01AD017D081A215D0E6EC22F03F
:103B100000D0EBEC22F00001715105E10A0E00012A
:103B2000705DD8A0F6D781A203D0010E06D003D0D5
:103B3000000E03D000D0000E00D01200000E916ED7
:103B4000050E6BEC16F009EC23F000D0BFEC22F070
:103B50000009D8A4FBD726EC22F070C028F071C071
:103B600029F0FAEC21F000D08AEC22F00009D8A468
:103B7000FBD75DEC1BF0F4EC15F0230E0001706F29
:103B8000000E0001716FC6EC1DF01200000E000166
:103B9000746F040E0001746501D01FD074C072F000
:103BA00000017451010DF35000017025D96EF450DD
:103BB00000017121DA6EDF500001736F0001722B7A
:103BC00003D00001D89073370001722FFAD700019B
:103BD0007351911A0001742BDCD7120000019A5125
:103BE00000019B1100019C11D8B40AD0000E000105
:103BF0009A1B000E00019B1B800E00019C1B00D035
:103C000097C08BF098C08CF099C08DF09AC08EF060
:103C10009BC08FF09CC090F0C9EC0BF08BC097F06C
:103C20008CC098F08DC099F000D01200000E0001F9
:103C30007B6F000179AF09D00001786D791FD8B092
:103C4000792B010E00017B6F00D078C070F079C035
:103C500071F00001726B8E0E0001736F7BC074F007
:103C600065EC13F070C078F071C079F072C07AF032
:103C700000D012001B50010D000EF324D96E010E6E
:103C8000F420DA6EDF500001776F1BC076F0010E72
:103C900000017627000176510001706F716B000EF4
:103CA0000001736F190E726F75EC18F000017051FE
:103CB0001B6E0001775100D0120070C072F071C00D
:103CC00073F0060ED890000172377337E82EFAD7DA
:103CD00072C074F073C075F075C074FF74C072F078
:103CE0000001D89072330001D8907233300E000179
:103CF00072177350CF0B00017211736E120070C0F7
:103D000072F071C073F0060ED890000172377337ED
:103D1000E82EFAD772C074F073C075F075C071FFE9
:103D200074C072F00001D89072330001D8907233E1
:103D3000300E000172177050CF0B00017211706EBF
:103D400012000001776F1D50010D000EF324D96E93
:103D5000010EF420DA6E77C0DFFF1DC076F0010E91
:103D600000017627000176510001706F716B000E23
:103D70000001736F190E726F75EC18F0000170512D
:103D80001D6E12000001776F1E50010D190EF324F5
:103D9000D96E010EF420DA6E77C0DFFF1EC076F018
:103DA000010E00017627000176510001706F716BE2
:103DB000000E0001736F190E726F75EC18F00001A0
:103DC00070511E6E1200040E0001715DD8B01AD041
:103DD00001D018D070C0A9FF00017151030BAA6E69
:103DE00072C0A8FFA69EA69CA684F29E550EA76E42
:103DF000AA0EA76EA68200D0A6B2FED7A694F28E17
:103E0000A65000D0120000D082EC22F00009D8A405
:103E1000FBD7CBEC1FF0AA0EC2EC1EF0110EC2ECC9
:103E20001EF078C0D9FF79C0DAFFDF50C2EC1EF077
:103E30000D0EC2EC1EF00A0EC2EC1EF0F0EC22F0E9
:103E400012000001706F000170510001D8B40AD057
:103E500090969996040EE82EFED79986350EE82E98
:103E6000FED709D090969996320EE82EFED7998605
:103E7000080EE82EFED700F000D012000001786F87
:103E800000D082EC22F00009D8A4FBD7CBEC1FF0C5
:103E9000AA0EC2EC1EF0010EC2EC1EF00001785119
:103EA000C2EC1EF00D0EC2EC1EF00A0EC2EC1EF0AB
:103EB000F0EC22F01200000E0001706F90969996BF
:103EC000F00E00D0E82EFDD79986380EE82EFED7EA
:103ED00000D090B604D0010E0001706F00D0FD0E2E
:103EE00000F0E82EFDD70001705100D01200000E46
:103EF0000001716F000E0001726F070E0001726504
:103F000001D00DD00001D89071334DEC20F00009A4
:103F1000D8B402D00001718F0001722BEED70001DE
:103F2000715100D012000001705100017203F3CFF3
:103F300074F0F4CF75F00001705100017303F35079
:103F4000000175270001715100017203F350000157
:103F5000752774C070F075C071F000D012001C504D
:103F6000010D190EF324D96E010EF420DA6EDF5024
:103F7000326E1CC031F0010E312631502B6E2C6A8E
:103F8000000E2E6E190E2D6E5EEC1AF02B501C6E6C
:103F9000325000D01200000E0001706F180E0001A8
:103FA000706501D00ED000017051010D190EF3247F
:103FB000D96E010EF420DA6E000EDF6E0001702B58
:103FC000EDD7000E1E6E000E1C6E1200000E0001DA
:103FD000706F180E0001706501D00ED00001705195
:103FE000010D000EF324D96E010EF420DA6E000EDE
:103FF000DF6E0001702BEDD7000E1D6E000E1B6EE4
:1040000012000001706F000170517E0BCD6E000137
:1040100070AD02D0CD8E02D0CD9E00D0000ECF6EFE
:10402000000ECE6E9E90000170AF02D09D8001D038
:104030009D90CD80120073C070F074C071F00001CB
:1040400076510001726FE3EC1EF0010E0001732542
:104050000001706F000E000174210001716F75C0C6
:1040600072F0E3EC1EF01200F09ACDB009D0CD80D2
:10407000000E456E000E446E5FEC22F0F1960AD001
:10408000CD9068EC22F044C00BF045C00CF0010E5E
:104090001A6E00D0F094F08A120090969996040E51
:1040A000E82EFED79986080EE82EFED700F0000E07
:1040B00087B6010E0001706F2D0EE82EFED700D0DE
:1040C00000017051010B00D012000001705100017D
:1040D000711100017211D8B409D0000E0001701BDB
:1040E000000E0001711B800E0001721B70C070F089
:1040F00071C071F072C072F0120000017B6F00019C
:104100007B510001706F716B726B8E0E0001736FCB
:10411000000E0001746F65EC13F070C078F071C090
:1041200079F072C07AF000D012005BEC1FF0E80664
:10413000D8A410D0CC0EABEC20F06C0EABEC20F081
:10414000100EABEC20F0000EABEC20F0000EABEC50
:1041500020F000D012000001716F000E0001726F9C
:10416000070E0001726501D00BD000017151010BE7
:1041700021EC1FF00001D89071330001722BF0D7B1
:104180001200040E0001715DD8A002D0000E0ED006
:1041900070C0A9FF00017151030BAA6EA69EA69CD8
:1041A000A68000D0A6B0FED7A85000D0120001EE25
:1041B00000F03C0EEE6AE806FDE100EECBF0200ECA
:1041C000EE6AE806FDE100EE01F02A0EEE6AE8066E
:1041D000FDE100011EEF08F0000E916E1F0E916EC2
:1041E0004B0EA7EC21F0000E916E4B0EA7EC21F0C8
:1041F0001F0E916E4B0EA7EC21F0000E916E120077
:1042000074C068F175C069F176C06AF177C06BF16E
:1042100078C06CF179C06DF1000E0001716F000E75
:10422000706F4DEC22F01200F28EF28CD08EF09A6C
:10423000F094F186F182F28AF294F1849D9C9E9C26
:104240009F9C9D9A9D989E9A9E989F9A9F981200D7
:10425000F20E1916ABAC05D01990ABA002D01980A4
:1042600000D0ABB41984ABB21986AECF70F00001A8
:10427000705100D012000001706F000170517F0B6F
:10428000D56E000ED76E000ED66EF294000170AFA0
:1042900002D0F28A01D0F29AD58E12000001706F1E
:1042A0000C0E706EB1ACB1B605D0CA9470C0CBFF25
:1042B000CA8405D0769470C077FF768400D0989831
:1042C00012000001706F0C0E736E9896B1ACB1B60F
:1042D00005D0CA9470C0CBFFCA8405D0769470C054
:1042E00077FF768400D01200AFEC1FF0176E0A0E35
:1042F0001718D8A407D017501BEC22F0010E186E27
:104300009D9804D017501BEC22F000D01200000141
:10431000706F00017051FB0BCA6E000ECC6E9E9246
:10432000000170AF02D09D8201D09D92CA8412001C
:10433000020E0001776F0E0E766FAAEC22F0020ECD
:104340000001776F0E0E766FB1EC22F012000001C3
:10435000716F0D0E0001706FFC0EE82EFED7702FEE
:10436000FCD70001712FF5D700D012000001716F4A
:10437000C2CF70F0C30E000170170001D8907131E8
:104380003C0B00017011C26E1200000E0001716F33
:10439000400E706F3C0E1BEC1AF0CBEC1FF0E6ECFD
:1043A0001FF0010E186E1200926893689F0E946EB3
:1043B000E00E956E000E966EE70E986E000E9A6EE9
:1043C0001200F60E456E3C0E446E71EC22F00D4A62
:1043D0000E2A0F4A102A114A122A1200550E01EC19
:1043E00020F0CD90000E0001716F000E706F4DEC4B
:1043F00022F01200000E216E000E206E21506BEC98
:1044000016F009EC23F09D8C12009F0E3BEC21F07E
:10441000F60E0001716F3C0E706F56EC22F0120028
:104420002C6EC2CF2BF0C30E2B16D8902C303C0B29
:104430002B10C26E12002B6EACAC05D0AC9019A242
:1044400002D0AC8000D02BC0ADFF1200C4500001E0
:10445000726FC3500001706F72C071F000D0120013
:104460008D8A190E92EC22F08D9AF186F08A000E58
:104470001A6E1200040E0001706F090E0001716FB8
:10448000950E1FEC1BF0120073C070F074C071F039
:1044900075C072F0E3EC1EF0120070C072F071C0D3
:1044A00073F073C0CFFF72C0CEFF120070C072F005
:1044B00071C073F073C0D7FF72C0D6FF120044C042
:1044C00060F045C061F061C0CFFF60C0CEFF120058
:1044D000CECF60F0CFCF61F060C044F061C045F056
:1044E000120044C060F045C061F061C0D7FF60C0F9
:1044F000D6FF120072C070F073C071F0C1EC20F0F2
:1045000000D012001850D8A402D0010E02D0000E24
:1045100000D012002050D8A402D0010E02D0000E0C
:1045200000D012000001706F00F00001702FFCD766
:1045300000D012001A50D8A402D0010E02D0000EF2
:1045400000D01200C4502D6EC3502B6E2DC02CF025
:1045500000D0120076C070F077C071F05DEC1EF0F4
:10456000120076C070F077C071F07FEC1EF0120080
:104570009EAA02D0010E02D0000E00D01200C2A2EC
:1045800002D0010E02D0000E00D01200820E61ECAB
:1045900021F0820E4EEC21F01200000E106E000E83
:1045A0000F6E1200000E0E6E000E0D6E12000FC088
:1045B00070F010C071F012000DC070F00EC071F0FC
:1045C00012000BC070F00CC071F01200000E126EE1
:1045D000000E116E120011C070F012C071F01200C6
:1045E000000E186E9D88120028EC21F000D01200F9
:1045F000040E87EC21F012008C908C9412008C86B3
:104600008C8212001F0E8D6E12008C9612008C820E
:104610001200C28212008C8812008C981200C28292
:02462000120086
:020000040020DA
:08000000FFFFFFFFFFFFFFFF00
:020000040030CA
:0E000000FF02011EF38180FFFFC0FFE0FF4002
:00000001FF
