:0400000070EF00F0AD
:10000800FACF60F0FBCF61F0E9CF62F03CED14F07D
:10001800D8CF29F0E8CF2AF0E0CF2BF0FACF2CF098
:10002800FBCF2DF0E9CF2EF0EACF2FF0E1CF30F063
:10003800E2CF31F0D9CF32F0DACF33F0F3CF34F06A
:10004800F4CF35F0F6CF36F0F7CF37F0F8CF38F0F9
:10005800F5CF39F09EAC1DD09E9C050E1E6015D0C4
:100068008BEC17F01E50020D010EF324D96E000E12
:10007800F420DA6E25C0DEFF26C0DDFF1E2A1E50E2
:10008800DAEC10F0E1EC17F004D0010E1D6E9D9C27
:1000980000D039C0F5FF38C0F8FF37C0F7FF36C0C9
:1000A800F6FF35C0F4FF34C0F3FF33C0DAFF32C0C7
:1000B800D9FF31C0E2FF30C0E1FF2FC0EAFF2EC0F8
:1000C800E9FF2DC0FBFF2CC0FAFF2BC0E0FF2AC0C0
:0C00D800E8FF29C0D8FF10009BEF16F0D5
:101000000000803F72313FFE753E58633D951D3CA8
:10101000C5AE3A79213994803793A73556153400F7
:10102000000000803FF0FFBEE2A93E8376BEAE2BFB
:101030003E3CC3BDD2133D78D3BB000083C087F0D4
:101040000001886B896B000182350001873701E35D
:1010500088810001875100018C6F86C087F00001F4
:10106000886B896B000185350001873701E3888132
:101070000001875100018B6F00018C510001D8B431
:1010800011D000018B5100018C5DD8B012D000014D
:101090008C51000800018B250001876F180E00019C
:1010A000876507D084C081F085C082F086C083F058
:1010B00003D100018B510001D8B411D000018C5133
:1010C00000018B5DD8B012D000018B5100080001E7
:1010D0008C250001876F180E0001876507D081C03D
:1010E00081F082C082F083C083F0E6D0060E00015A
:1010F0008A6F000183AF03D000018A8F00D0000106
:1011000086AF02D000018A8D0001828FFF0E0001A0
:101110008117FF0E00018217000E000183170001E6
:10112000858FFF0E00018417FF0E00018517000E4A
:101130000001861700018B5100018C5DD8B028D0CA
:101140000001D89084378537863700018B0700016E
:101150008C5100018B19D8B413D000018A078AC0C2
:1011600087F0070E00018717D8B40AD0E9D708D056
:101170000001D89083338233813300018C2B00D05F
:1011800000018B5100018C19D8B430D0F1D72ED08A
:1011900000018C5100018B5DD8B028D00001D8909F
:1011A00081378237833700018C0700018C510001A1
:1011B0008B19D8B413D000018A078AC087F0070EB4
:1011C00000018717D8B40AD0E9D708D00001D89019
:1011D00086338533843300018B2B00D000018B5183
:1011E00000018C19D8B402D0F1D700D000018AAF29
:1011F00012D0FF0E0001811BFF0E0001821BFF0EAB
:101200000001831B010E00018127000E00018223D3
:10121000000E0001832300018AAD13D0FF0E0001F0
:10122000841BFF0E0001851BFF0E0001861B010EB3
:1012300000018427000E00018523000E0001862393
:1012400000D0000E00018A6F000181510001842747
:101250000001825100018523000183510001862392
:10126000000186AF16D0FF0E0001841BFF0E0001A7
:10127000851BFF0E0001861B010E00018427000E56
:1012800000018523000E00018623010E00018A6FF4
:1012900000D084C03EF085C03FF086C040F08CC0D6
:1012A00041F08AC042F0B6EC11F03EC081F03FC080
:1012B00082F040C083F000D01200C30E0001C16F65
:1012C000000E0001C26F760E00016E6F600E00010D
:1012D0006F6F3C0E0001706F2F0E0001716F5D0E7D
:1012E0000001726F3D0E0001736F03EC16F0D2EC3B
:1012F00016F0C5EC16F022EC17F0F6EC16F0C6EC82
:1013000017F0A8EC17F06BEC17F0D0EC17F0010E0B
:101310001B6E000E0001DD6F000EDC6F000E000181
:10132000D96F000ED86F000E916EEBEC16F011D055
:101330007BEC14F00A0EDFEC16F0BCEC17F03F501B
:1013400004E1640E3E5CD8A004D09170EBEC16F082
:1013500000D081A2EDD72DEC16F0EBEC16F006D004
:1013600034EC15F00A0EDFEC16F000D081B20ED08E
:10137000F7D70CD0BCEC17F03F5004E1640E3E5C94
:10138000D8A004D09170EBEC16F000D081A2F2D777
:101390002DEC16F0CAEC17F0B8EC16F0DBEC17F0F9
:1013A000CDEC17F02CEC17F000D001EC17F000D0CA
:1013B0007BEC17F00009D8A4FBD7ACEC14F04FEC91
:1013C00011F06CEC12F00001C36FC1C03EF0C2C05E
:1013D0003FF063EC13F03EC0DCF03FC0DDF0DCC05A
:1013E0003EF0DDC03FF0000E416E0C0E406E41EC51
:1013F00016F03EC0D8F03FC0D9F0D8C06EF0D9C0CA
:101400006FF019EC12F0200E3E6E000E3F6EB6EC3F
:1014100015F083EC17F00009D8A46FD0C1EC17F0D9
:10142000D10E3E5C040E3F58D8B064D0DDEC17F00E
:101430000001D9AF05D0D7EC17F0D5EC17F000D0EC
:101440000001D9BF0CD00001D95104E10001D80539
:10145000D8A005D0D9EC17F0D3EC17F000D0010ECE
:10146000456E900E446E9AEC17F0010E456E900E8C
:10147000446E93EC17F0DBEC17F0EBEC16F000D0B9
:10148000BCEC17F03F5006E11E0E3E5CD8B002D017
:10149000F7D700D0000E0001C36F17D001EC17F092
:1014A00000D07BEC17F00009D8A4FBD7ACEC14F00B
:1014B0004FEC11F06CEC12F00001C36F200E3E6E89
:1014C000000E3F6EB6EC15F000D00001C3510001D4
:1014D000D8B4E4D7A1EC17F0DDEC17F0CDEC17F0A1
:1014E000DBEC17F0000E0001DD6F000EDC6F2CEC62
:1014F00017F003D02CEC17F000D0EBEC16F000D076
:10150000BCEC17F03F5006E1050E3E5CD8B002D0AF
:10151000F7D700D0000E916E48D770EF00F00001B1
:10152000A2510001A3110001A411D8A409D0000EFA
:101530000001A26F800E0001A36F3F0E35D0FAD0DC
:10154000720E3E6E310E3F6E440E406EA2C041F0F0
:10155000A3C042F0A4C043F0BFEC12F0D8B00ED04C
:10156000000E0001DB6F220EDA6FFF0E0001A26F8A
:101570007F0E0001A36F7F0E17D0DCD0A2C03EF01B
:10158000A3C03FF0A4C040F0490E416E3A0E426E37
:10159000C40E436EBFEC12F0D8B009D0000E0001AB
:1015A000DB6F220EDA6F9FD00001A46FC3D0000161
:1015B000A4AF02D0010E01D0000E0001AA6F0001FD
:1015C000AA510001D8B40ED0A2C03EF0A3C03FF093
:1015D000A4C040F079EC16F03EC0A2F03FC0A3F0EA
:1015E00040C0A4F0A2C072F0A3C073F0A4C074F015
:1015F000AA0E0001756FB80E0001766F3F0E000154
:10160000776F64EC0CF072C0A2F073C0A3F074C0EA
:10161000A4F0A2C09AF0A3C09BF0A4C09CF075EC0B
:101620000FF09AC0A5F09BC0A6F09CC0A7F0A5C083
:1016300081F0A6C082F0A7C083F051EC0EF081C00B
:10164000A8F082C0A9F0A2C08DF0A3C08EF0A4C003
:101650008FF0A8C06EF0A9C06FF05AEC15F06EC004
:1016600090F06FC091F070C092F00CEC15F08DC04E
:10167000A2F08EC0A3F08FC0A4F0A2C08DF0A3C0D2
:101680008EF0A4C08FF0010E0001906F100E0001CB
:10169000916F000E0001936F090E926F65EC10F0D0
:1016A0008DC099F08EC09AF08FC09BF0A8C09CF0BE
:1016B000A9C09DF0EAEC0EF099C0A2F09AC0A3F088
:1016C0009BC0A4F00001AA510001D8B42DD00001A4
:1016D000A22912E17F0E0001A3190EE17F0E000185
:1016E000A419D8A409D0000E0001A26F000E0001B9
:1016F000A36F000E59D71ED0000E00016E6F800E32
:1017000000016F6F3F0E0001706FA2C071F0A3C0A7
:1017100072F0A4C073F012EC0DF06EC0A2F06FC0B6
:10172000A3F070C0A4F006D0A2C0A2F0A3C0A3F0A2
:10173000A4C0A4F01200000E0001B76F0001AB516D
:101740000001AC110001AD11D8A412D0000E3E6E04
:10175000000E3F6E000E406EAEC041F0AFC042F0D2
:10176000B0C043F0BFEC12F0D8A045D03FD0ABD012
:101770000001AE510001AF110001B011D8A409D091
:10178000000E0001AB6F800E0001AC6F3F0E3AD02F
:101790009AD00001ADAF4DD0AEC081F0AFC082F0A5
:1017A000B0C083F051EC0EF081C0B8F082C0B9F047
:1017B00083C0BAF084C0BBF0B8C06EF0B9C06FF09F
:1017C000BAC070F0BBC071F0FDEC13F00001AE5177
:1017D00000016E190BE10001AF5100016F1906E124
:1017E0000001B05100017019D8B40FD0000E0001F3
:1017F000DB6F210EDA6F000E0001AB6F000E0001EF
:10180000AC6F000E0001AD6F5ED00001B851010B4E
:101810000001B76FABC03EF0ACC03FF0ADC040F0D0
:1018200079EC16F03EC0ABF03FC0ACF040C0ADF07C
:1018300000D0ABC099F0ACC09AF0ADC09BF0B3EC57
:101840000DF099C0B1F09AC0B2F09BC0B3F0B1C036
:1018500072F0B2C073F0B3C074F0AEC075F0AFC038
:1018600076F0B0C077F064EC0CF072C0B4F073C0E6
:10187000B5F074C0B6F0B4C0A2F0B5C0A3F0B6C065
:10188000A4F08FEC0AF0A2C0ABF0A3C0ACF0A4C0EF
:10189000ADF00001B7510001D8B40FD0ABC03EF09D
:1018A000ACC03FF0ADC040F079EC16F03EC0ABF0FC
:1018B0003FC0ACF040C0ADF006D0ABC0ABF0ACC0A8
:1018C000ACF0ADC0ADF0120074C078F00001796BDF
:1018D0007A6B000173350001783701E379810001EB
:1018E000785100017B6F00017B51D8A402D014D045
:1018F00098D077C078F00001796B7A6B000176356B
:101900000001783701E37981000178510001806F8F
:1019100000018051D8A40AD0000E0001726F000EA1
:101920000001736F000E0001746F7BD000018051C5
:101930007B0F00017B2774C080F00001775100010C
:10194000801B800E000180170001738F0001768FCD
:10195000FF0E00017517FF0E00017617000E000143
:101960007717000E00017C6F000E00017D6F000EE6
:1019700000017E6F070E00017F6F00D0000172A191
:101980000DD00001755100017C2700017651000146
:101990007D230001775100017E2300D00001D89003
:1019A0007433733372330001D890753776377737D5
:1019B00000017F2FE3D700D0090E00017F6F00D018
:1019C000000172A10DD00001755100017C270001BA
:1019D000765100017D230001775100017E2300D064
:1019E0000001D8907433733372330001D8907E3382
:1019F0007D337C3300017F2FE3D700D07CC03EF0E5
:101A00007DC03FF07EC040F07BC041F080C042F01E
:101A1000B6EC11F03EC072F03FC073F040C074F0FD
:101A200000D0120070C074F00001756B766B00017D
:101A30006F350001743701E37581000174510001B5
:101A40007B6F00017B51D8A402D014D08BD073C01F
:101A500074F00001756B766B00017235000174370C
:101A600001E375810001745100017C6F00017C511C
:101A7000D8A40AD0000E00016E6F000E00016F6F37
:101A8000000E0001706F6ED0000E0001786F000E26
:101A90000001796F000E00017A6F00017C51890FFF
:101AA00000017B5F70C07CF00001735100017C1B62
:101AB000800E00017C1700016F8FFF0E00016E1772
:101AC000FF0E00016F17000E000170170001728FEA
:101AD000FF0E00017117FF0E00017217000E0001CA
:101AE0007317180E0001776F00D00001D890783777
:101AF00079377A370001715100016E5D0001725132
:101B000000016F590001735100017059D8A00ED027
:101B10000001715100016E5F0001725100016F5BA5
:101B2000000173510001705B000178810001D890C1
:101B30006E376F3770370001772FD7D700D078C056
:101B40003EF079C03FF07AC040F07BC041F07CC0ED
:101B500042F0B6EC11F03EC06EF03FC06FF040C0F6
:101B600070F000D0120000019BAF06D0000E000103
:101B7000DB6F210E0DD094D00001995100019A1114
:101B800000019B11D8A40FD0000E0001DB6F220EC4
:101B9000DA6F000E0001996F000E00019A6F000EBF
:101BA00000019B6F7DD0000E0001756F000E0001DB
:101BB000766F400E0001776F9C0E416E000E426EF4
:101BC00099C03EF09AC03FF09BC040F0B4EC13F0D7
:101BD0003EC072F03FC073F040C074F064EC0CF093
:101BE00072C081F073C082F074C083F0000E0001F7
:101BF000846F800E0001856FBF0E0001866F1EECA2
:101C000008F081C099F082C09AF083C09BF0000177
:101C10009C07D8A09D0799C08DF09AC08EF09BC0FC
:101C20008FF01F0E0001906F100E0001916F000EDB
:101C30000001936F080E926F65EC10F08DC099F063
:101C40008EC09AF08FC09BF0720E0001756F310E3E
:101C50000001766F3F0E0001776F9CC06EF09DC053
:101C60006FF05AEC15F06EC072F06FC073F070C078
:101C700074F064EC0CF072C081F073C082F074C038
:101C800083F099C084F09AC085F09BC086F01EEC6A
:101C900008F081C099F082C09AF083C09BF000D018
:101CA000120083C085F00001866B876B00018235CE
:101CB0000001853701E386810001855100018F6FA6
:101CC00000018F51D8A402D051D083D0170E00014B
:101CD000856F81C086F082C087F083C088F00001E4
:101CE00085290001896F05D00001D890883387339A
:101CF00086330001892FF8D70001865100018A6FD1
:101D00000001828FFF0E00018117FF0E0001821774
:101D1000000E000183170001815100018B6F00014B
:101D2000825100018C6F0001835100018D6F000111
:101D30008E6B8E0E00018F5F00018FAF13D00001FC
:101D40008F51800A8F0FD8B003D010D042D000D06E
:101D50000001D8908E338D338C338B3300018F3F4D
:101D6000F7D71FD0170E00018F6514D0000E0001A9
:101D7000816F000E826F000E836F000E846F29D07A
:101D800009D00001D8908B378C378D378E37000102
:101D90008F0700D000018F510001D8B402D0F1D7D5
:101DA00000D000018A510001D8B40AD000018E1F72
:101DB0008D1F8C1F8B6D000E8C238D238E2300D0E6
:101DC0008BC081F08CC082F08DC083F08EC084F017
:101DD00000D012000001995100019A1100019B11DD
:101DE000D8A402D02AD080D000019B517F0B0001E3
:101DF0009E6F9F6BD89000019E379F3700019E51C8
:101E000000019C2700019F5100019D2300019AAF12
:101E100004D000019E6B9E2B02D000019E6B00013E
:101E20009E5100019C27000E9D2300019DAF0FD005
:101E3000000E0001DB6F220EDA6F000E0001996FB9
:101E4000000E00019A6F000E22D04ED046D0000145
:101E50009DBF21D000019D05D8A01DD0000E00011E
:101E6000DB6F220EDA6F00019BAF0AD0FF0E00017C
:101E7000996F7F0E00019A6FFF0E09D035D02DD0DB
:101E8000FF0E0001996F7F0E00019A6F7F0E000117
:101E90009B6F2AD022D000019D359D3100019F6F9C
:101EA00000019C3100019E6F00019B5100019E19B1
:101EB000800B9E1900019B6F9CC09EF0010E0001DB
:101EC0009E1700019E339E3300019A5100019E1916
:101ED0007F0B9E1900019A6F00D099C099F09AC0AB
:101EE0009AF09BC09BF000D012009AC03EF09BC0BD
:101EF0003FF09CC040F0A00E416E000E426EB4EC6C
:101F000013F00001A1AF16D000019CAF09D0000E64
:101F100000019A6F800E00019B6FBF0E08D05FD04A
:101F2000000E00019A6F000E00019B6F000E000171
:101F30009C6F55D00001A15105E1150E0001A05D77
:101F4000D8A007D09AC09AF09BC09BF09CC09CF090
:101F500046D09AC081F09BC082F09CC083F051ECC7
:101F60000EF081C090F082C091F083C092F084C0E6
:101F700093F012EC13F090C09DF091C09EF092C0CF
:101F80009FF09AC03EF09BC03FF09CC040F09DC0C7
:101F900041F09EC042F09FC043F0BFEC12F0D8B0B9
:101FA00018D09DC081F09EC082F09FC083F0000ECB
:101FB0000001846F800E0001856FBF0E0001866FE7
:101FC0001EEC08F081C09AF082C09BF083C09CF0A8
:101FD00006D09DC09AF09EC09BF09FC09CF012005E
:101FE000406E40D0870E0CEC17F06ED08F0E0CECCC
:101FF00017F06AD0970E0CEC17F066D09F0E0CEC21
:1020000017F062D0A70E0CEC17F05ED0AF0E0CEC00
:1020100017F05AD0B70E0CEC17F056D0BF0E0CECE0
:1020200017F052D0C70E0CEC17F04ED0CF0E0CECC0
:1020300017F04AD0D70E0CEC17F046D0DF0E0CECA0
:1020400017F042D0E70E0CEC17F03ED0EF0E0CEC80
:1020500017F03AD0F70E0CEC17F036D0FF0E0CEC60
:1020600017F032D04050000AD8B4BCD7010AD8B417
:10207000BDD7030AD8B4BED7010AD8B4BFD7070A60
:10208000D8B4C0D7010AD8B4C1D7030AD8B4C2D7CC
:10209000010AD8B4C3D70F0AD8B4C4D7010AD8B438
:1020A000C5D7030AD8B4C6D7010AD8B4C7D7070A18
:1020B000D8B4C8D7010AD8B4C9D7030AD8B4CAD784
:1020C000010AD8B4CBD700D0120092C03EF093C022
:1020D0003FF0000E416E030E406E41EC16F090C0D2
:1020E00094F091C095F03E50000194273F500001BC
:1020F000952394C0F6FF95C0F7FF000EF86E090017
:10210000F5CF96F00900F5CF97F00A00F5CF98F0DB
:1021100044D096C075F097C076F098C077F08DC027
:1021200072F08EC073F08FC074F064EC0CF072C06B
:1021300081F073C082F074C083F0000E416E030E14
:10214000406E00019207D8A0930792C03EF093C062
:102150003FF041EC16F090C094F091C095F03E50E5
:10216000000194273F500001952394C0F6FF95C0CD
:10217000F7FF000EF86E0900F5CF84F00900F5CFE7
:1021800085F00A00F5CF86F01EEC08F081C096F0CD
:1021900082C097F083C098F000D0000192510001F6
:1021A0009311D8A4B6D796C08DF097C08EF098C082
:1021B0008FF01200276E40D0870E17EC17F06ED00C
:1021C0008F0E17EC17F06AD0970E17EC17F066D049
:1021D0009F0E17EC17F062D0A70E17EC17F05ED029
:1021E000AF0E17EC17F05AD0B70E17EC17F056D009
:1021F000BF0E17EC17F052D0C70E17EC17F04ED0E9
:10220000CF0E17EC17F04AD0D70E17EC17F046D0C8
:10221000DF0E17EC17F042D0E70E17EC17F03ED0A8
:10222000EF0E17EC17F03AD0F70E17EC17F036D088
:10223000FF0E17EC17F032D02750000AD8B4BCD7E5
:10224000010AD8B4BDD7030AD8B4BED7010AD8B49E
:10225000BFD7070AD8B4C0D7010AD8B4C1D7030A78
:10226000D8B4C2D7010AD8B4C3D70F0AD8B4C4D7D8
:10227000010AD8B4C5D7030AD8B4C6D7010AD8B45E
:10228000C7D7070AD8B4C8D7010AD8B4C9D7030A30
:10229000D8B4CAD7010AD8B4CBD700D012001B04D7
:1022A000D8A430D0000E416E040E416401D05DD040
:1022B0004150020DCE0EF324D96E000EF420DA6EDA
:1022C000DE50195C1A50800A406EDE50800A405879
:1022D000D8B00AD04150010D200EF324D96E000E63
:1022E000F420DA6E010E09D04150010D200EF324C6
:1022F000D96E000EF420DA6E000EDF6E00D0412A97
:10230000D3D733D01B50D8A430D0000E416E040E6A
:10231000416401D02AD04150020DCE0EF324D96E73
:10232000000EF420DA6E1950DE5CDE50800A406E3A
:102330001A50800A4058D8B00AD04150010D200EE2
:10234000F324D96E000EF420DA6E010E09D041504C
:10235000010D200EF324D96E000EF420DA6E000E6B
:10236000DF6E00D0412AD3D700D012004150D8B43C
:1023700005D03E503F104010D8A40ED0000E3E6E47
:10238000000E3F6E000E406E53D006D0412AD8900A
:1023900040323F323E3200D0000E3E14436E000EFB
:1023A0003F14446EFE0E4014456E435044104510D9
:1023B000D8B40ED0EBD70CD0412A010E3E26000E29
:1023C0003F22000E4022D89040323F323E3200D0B1
:1023D000000E3E14436E000E3F14446EFF0E401478
:1023E000456E435044104510D8B408D0E5D706D008
:1023F0004106D8903E363F36403600D03FBE04D02E
:10240000020E4160F5D700D041B002D03F9E00D00F
:10241000D8904132415040124250D8B402D0408E40
:1024200000D03EC03EF03FC03FF040C040F000D082
:10243000120000016FBF07D000016F511EE10001C3
:102440006E05D8B01AD06EC070F06FC071F0000188
:10245000701F711F704B712B980E00017025446E18
:10246000010E00017121456E9AEC17F0010E456EC8
:10247000980E446E93EC17F02ED000016FBF18D069
:1024800000016F5104E100016E05D8A011D0010ECA
:10249000456E980E446E9AEC17F0980E00016E256A
:1024A000446E010E00016F21456E93EC17F013D0BE
:1024B00000016E5100016F11D8A40DD0010E456EC0
:1024C000980E446E9AEC17F0010E456E980E446E0D
:1024D00093EC17F000D01200000E0001BF6F000E49
:1024E0000001C06F040E0001C06501D044D000019E
:1024F000C05118EC16F06EC0AEF06FC0AFF070C0F7
:10250000B0F0000E0001AB6F000E0001AC6F400E8A
:102510000001AD6F9BEC0BF0ABC0BCF0ACC0BDF0EC
:10252000ADC0BEF0BCC075F0BDC076F0BEC077F0E7
:102530000001C051010D200EF324D96E000EF420CD
:10254000DA6EDF5018EC16F06EC072F06FC073F0E8
:1025500070C074F064EC0CF072C081F073C082F053
:1025600074C083F051EC0EF0000181510001BF27CF
:102570000001C02BB7D70001BF5100D0120040AE00
:102580001BD03EC06EF03FC06FF040C070F0000145
:102590006E1F6F1F701F6E2B000E6F237023000EB7
:1025A00000016E253E6E000E00016F213F6E800E11
:1025B00000017021406E00D043AE1BD041C06EF0D0
:1025C00042C06FF043C070F000016E1F6F1F701F9C
:1025D0006E2B000E6F237023000E00016E25416EDE
:1025E000000E00016F21426E800E00017021436ECB
:1025F00000D0000E3E1A000E3F1A800E401A000E48
:10260000411A000E421A800E431A41503E5C42505D
:102610003F5843504058D8B002D0D89002D0D8800C
:1026200000D01200000E0001996F8E0E0001986F0D
:10263000000193AF16D00001931F921F911F906D60
:10264000000E912392239323010E0001996F09D06C
:102650000001D89093339233913390330001982B3B
:1026600000D0000E000190150001946F000E0001D3
:1026700091150001956F000E000192150001966FF3
:10268000FF0E000193150001976F000194510001A6
:1026900095110001961100019711D8A4D9D790C0C7
:1026A0003EF091C03FF092C040F098C041F099C018
:1026B00042F0B6EC11F03EC090F03FC091F040C047
:1026C00092F000D0120029D0000E3F6E400E49D08B
:1026D0004AD0000E3F6E1B0E44D045D0000E3F6E18
:1026E000080E3FD040D0000E3F6E010E3AD03BD0D6
:1026F00035D039D03E683F6836D0FF0E3F6EF80EB9
:1027000030D031D0FF0E3F6EE50E2BD02CD0FF0E17
:102710003F6EC00E26D027D021D03EC0D9FF3FC08B
:10272000DAFFDF50010AD8B4F2D7030AD8B4E5D7EC
:10273000010AD8B4E7D7070AD8B410D0020AD8B42F
:10274000D9D70E0AD8B4CAD7040AD8B4CCD71C0A31
:10275000D8B4BAD7080AD8B4BCD700D0000E3F6EA0
:10276000000E3E6E00D012003E503F104010D8A424
:102770000FD041C0D9FF42C0DAFF000EDE6E000E5E
:10278000DD6E000E3E6E000E3F6E000E406E34D0C9
:1027900040507F0B436E446AD8904336443641C064
:1027A000D9FF42C0DAFF43C0DEFF44C0DDFF3FAEC9
:1027B00003D0436A432A01D0436A435041C0D9FF42
:1027C00042C0DAFFDE12000EDD1241C0D9FF42C066
:1027D000DAFF820EDE26FF0EDD224080408240843A
:1027E00040864088408A409C3F9E3EC03EF03FC0AD
:1027F0003FF040C040F000D012008E0E0001766F16
:1028000009D00001D890713370336F336E330001FB
:10281000762B00D0000E00016E150001726F000EC5
:1028200000016F150001736F000E000170150001AB
:10283000746FFF0E000171150001756F0001725178
:10284000000173110001741100017511D8A4D9D7CA
:102850006EC03EF06FC03FF070C040F076C041F0F7
:10286000000E426EB6EC11F03EC06EF03FC06FF04D
:1028700040C070F000D012000600EACF63F0E1CF54
:1028800064F0E2CF65F0D9CF66F0DACF67F0F3CF2E
:1028900068F0F4CF69F0F6CF6AF0F7CF6BF0F8CFBD
:1028A0006CF0F5CF6DF0F2A404D0F29459EC17F06F
:1028B00000D0F2A003D0D3EC15F000D06DC0F5FF2E
:1028C0006CC0F8FF6BC0F7FF6AC0F6FF69C0F4FF89
:1028D00068C0F3FF67C0DAFF66C0D9FF65C0E2FFDA
:1028E00064C0E1FF63C0EAFF62C0E9FF61C0FBFFB3
:1028F00060C0FAFF110001EC17F000D07BEC17F07C
:102900000009D8A4FBD7000E436E040E436401D027
:1029100022D04350020D010EF324D96E000EF42094
:10292000DA6EDECF41F0DDCF42F0411E421E414A59
:10293000422A05504126065042224350020DC40E41
:10294000F324D96E000EF420DA6E41C0DEFF42C0DF
:10295000DDFF432ADAD71200000E426E040E4264F5
:1029600001D02AD04250020DC40EF324D96E000EBD
:10297000F420DA6EDECF3EF0DDCF3FF04250020DA4
:10298000010EF324D96E000EF420DA6EDECF40F093
:10299000DDCF41F03E5040263F5041224250020DD3
:1029A000CE0EF324D96E000EF420DA6E40C0DEFFA6
:1029B00041C0DDFF422AD2D71200426E000EC26E25
:1029C000000EC06ED8903E303C0BC26E3EC040F050
:1029D000403AF00E4016300E40163F500F0B40109C
:1029E000C16E42C040F0D8904036D8904036380E84
:1029F000401642C041F0413A0F0E4116070E4116F3
:102A00004250800B41104010C06E3EAE03D09E9CE1
:102A10009D8CF28CC2801200000190510001911136
:102A200000019211D8B40AD0000E0001901B000ED4
:102A30000001911B800E0001921B00D08DC081F01F
:102A40008EC082F08FC083F090C084F091C085F07A
:102A500092C086F01EEC08F081C08DF082C08EF02E
:102A600083C08FF000D01200000E916E050EF0ECC6
:102A70000FF0DFEC17F000D0AFEC17F00009D8A48E
:102A8000FBD773EC17F03EC019F03FC01AF001EC11
:102A900017F000D07BEC17F00009D8A4FBD7ACEC02
:102AA00014F04FEC11F0200E3E6E000E3F6EB6ECAF
:102AB00015F01200000E0001716F00016FAF09D018
:102AC00000016E6D6F1FD8B06F2B010E0001716F8A
:102AD00000D06EC03EF06FC03FF0406A8E0E416E77
:102AE00071C042F0B6EC11F03EC06EF03FC06FF026
:102AF00040C070F000D012003EC040F03FC041F036
:102B0000060ED89040364136E82EFBD740C042F042
:102B100041C043F043C074FF42C040F0D8904032FF
:102B2000D8904032300E40167350CF0B4010736E69
:102B300012003EC040F03FC041F0060ED890403633
:102B40004136E82EFBD740C042F041C043F043C0BD
:102B500071FF42C040F0D8904032D8904032300EE1
:102B600040167050CF0B4010706E1200000E426E77
:102B7000040E426401D016D042C040F04250010D14
:102B8000F3503E24D96EF4503F20DA6EDF50416E90
:102B9000402A02D0D8904136402EFCD74150911A9D
:102BA000422AE6D71200F29681A808D0CD80000E06
:102BB0003B6E000E3A6E47EC17F000D081B80AD099
:102BC000CD9050EC17F03AC015F03BC016F0010E56
:102BD000466E00D0F286F29012003E6E3E507E0BA2
:102BE000CD6E3EAC02D0CD8E02D0CD9E00D0000E78
:102BF000CF6E000ECE6E9E903EAE02D09D8001D074
:102C00009D90CD8012006EC0DEF06FC0DFF070C00E
:102C1000E0F071C0E1F072C0E2F073C0E3F0010EC9
:102C2000466E000E3F6E000E3E6E35EC17F0120041
:102C30000001716F000171513E6E3F6A406A8E0E55
:102C4000416E000E426EB6EC11F03EC06EF03FC019
:102C50006FF040C070F000D01200000E916E1F0E99
:102C6000916E7D0EDFEC16F0000E916E7D0EDFECA6
:102C700016F01F0E916E7D0EDFEC16F0000E916EB9
:102C800012003E504002F3CF42F0F4CF43F03E50EA
:102C90004102F35043263F504002F350432642C0C6
:102CA0003EF043C03FF000D012003E6E0C0E706E3E
:102CB000B1ACB1B605D0CA943EC0CBFFCA8405D032
:102CC00076943EC077FF768400D0989812003E6ECE
:102CD0000C0E736E9896B1ACB1B605D0CA943EC0D6
:102CE000CBFFCA8405D076943EC077FF768400D0AF
:102CF00012003E503F104010D8B406D0000E3E1ACD
:102D0000000E3F1A800E401A3EC03EF03FC03FF01A
:102D100040C040F012003E6E3E507F0BD56E000E5C
:102D2000D76E000ED66EF2943EAE02D0F28A01D07B
:102D3000F29AD58E120000EEC4F01A0EEE6AE80682
:102D4000FDE100EE01F0240EEE6AE806FDE100016F
:102D50005DEF09F03E6E3E50FB0BCA6E000ECC6E6E
:102D60009E923EAE02D09D8201D09D92CA841200F6
:102D7000020E456E0E0E446E93EC17F0020E456E79
:102D80000E0E446E9AEC17F01200F28EF28CD08E7A
:102D9000F296F290F180F28AF294F1849D9C9E9CCE
:102DA0009F9C120092689368BF0E946EE00E956E21
:102DB000800E966EE70E986E000E9A6E12003F6EB1
:102DC0000D0E3E6EFC0EE82EFED73E2EFCD73F2E9B
:102DD000F7D700D01200F60E3F6E3C0E3E6E3EEC72
:102DE00017F0000E186E000E176E1200550EEDEC67
:102DF00015F0CD90000E3F6E000E3E6E35EC17F0D4
:102E00001200000E1E6E000E1D6E1E50F0EC0FF034
:102E1000DFEC17F09D8C12003F6EC2CF3EF0C30E68
:102E20003E16D8903F303C0B3E10C26E1200266E0C
:102E3000C2CF25F0C30E2516D89026303C0B2510A6
:102E4000C26E12009F0E8BEC16F0F60E3F6E3C0E1B
:102E50003E6E3EEC17F012008D8A190EB6EC17F09C
:102E60008D9AF286000E466E12003EC040F03FC0C2
:102E700041F041C0CFFF40C0CEFF12003EC040F045
:102E80003FC041F041C0D7FF40C0D6FF12003AC05A
:102E90003CF03BC03DF03DC0CFFF3CC0CEFF120038
:102EA000CECF3CF0CFCF3DF03CC03AF03DC03BF040
:102EB0001200F60E3B6E3C0E3A6E62EC17F0174AAB
:102EC000182A12003AC03CF03BC03DF03DC0D7FF8D
:102ED0003CC0D6FF1200040E3E6E090E3F6E950EEA
:102EE000DDEC14F01200C450406EC3503E6E40C082
:102EF0003FF000D012001D50D8A402D0010E02D025
:102F0000000E00D012004650D8A402D0010E02D00C
:102F1000000E00D01200C450276EC350256E27C08B
:102F200026F000D0120044C03EF045C03FF07CECDB
:102F300015F0120044C03EF045C03FF099EC15F08A
:102F40001200000E166E000E156E000E466E120078
:102F5000820E67EC16F0820E55EC16F01200C2A23B
:102F600002D0010E02D0000E00D012003E6E00F022
:102F70003E2EFDD700D0120017C03EF018C03FF023
:102F8000120015C03EF016C03FF01200040EAAEC6D
:102F900016F012008C908C9412008C868C82120099
:102FA0001F0E8D6E12008C9212008C9612008C8275
:102FB00012008C8612008C8812008C981200C2823B
:062FC0001200C2821200A3
:020000040020DA
:08000000FFFFFFFFFFFFFFFF00
:020000040030CA
:0E000000FF02011EF38180FFFFC0FFE0FF4002
:00000001FF
