:0400000092EFFEF08D
:020000040001F9
:10FD2000C282120000011BEFFFF0C2A202D0010E3E
:10FD30001200000E1200C450036EC350016E03C0C7
:10FD400002F012009D92CA92CA90CA84820ECB6EB3
:10FD500012007386738473927390708670847092AD
:10FD60007090120001C003F002C004F0060ED8909B
:10FD700003360436E82EFBD703C005F004C006F0B6
:10FD800006C074FF05C003F0D8900332D890033248
:10FD9000300E03167350CF0B0310736E120001C0A8
:10FDA00003F002C004F0060ED89003360436E82EA5
:10FDB000FBD703C005F004C006F006C071FF05C004
:10FDC00003F0D8900332D8900332300E03167050EF
:10FDD000CF0B0310706E1200056E000EC26E000E87
:10FDE000C06ED89001303C0BC26E01C003F0033AE4
:10FDF000F00E0316300E031602500F0B0310C16EE7
:10FE000005C003F0D8900336D8900336380E031699
:10FE100005C004F0043A0F0E0416070E0416055030
:10FE2000800B04100310C06E01AE03D09E9C9D8C0D
:10FE3000F28CC2801200E00E956E98969898000E93
:10FE4000976EEF0E926EFC0E996E9468BF0E9A6ECE
:10FE5000000E8E6E8998908090828C988988060E0C
:10FE6000016E0E0E026E910EECECFEF0A2ECFEF0B6
:10FE7000A9ECFEF0CA82CA80020E026E000E016E6C
:10FE8000B2ECFEF0020E026E000E016ECFECFEF040
:10FE9000030E0E6E200E0D6E87AE02D08C8801D040
:10FEA0008C988C8082A602D08C8201D08C928C841B
:10FEB00087A802D08C8601D08C9682CF07F0D8908C
:10FEC0000732D89007320F0E07168750F00B071035
:10FED0008E6E81B00BD0600E0D5C090E0E58D8B03E
:10FEE00025D0C80E0D26000E0E2220D088BA1ED0B6
:10FEF000210E0D5C030E0E58D8A018D0C80E0D5E52
:10FF0000000E0E5A13D0C20E0FD09B0E0DD0810ED4
:10FF10000BD06E0E09D0610E07D0560E05D04D0ED7
:10FF200003D0460E01D0400ECB6E43D00DC007F07B
:10FF30000EC008F00850030AD8B413D0070AD8B48A
:10FF400018D0010AD8B41AD0030AD8B41CD0010AB8
:10FF5000D8B41ED00F0AD8B423D0010AD8B425D003
:10FF600028D00750200AD8B4CED7C80AD8B4CDD7E5
:10FF700020D00750B00AD8B4CAD71BD00750780A8F
:10FF8000D8B4C7D716D00750400AD8B4C4D711D0B8
:10FF90000750080AD8B4C1D7D80AD8B4C0D709D0F6
:10FFA0000750980AD8B4BDD704D00750600AD8B417
:10FFB000BAD790ECFEF095ECFEF00009D8A4FBD780
:10FFC0009BECFEF0FF0E0114096E030E02140A6E84
:10FFD000D8900A30086E0930076EFF0E07140B6EBA
:10FFE000030E08140C6E0BC001F00CC002F0B2EC52
:10FFF000FEF00BC001F00CC002F0CFECFEF04CD7CD
:020000040020DA
:08000000FFFFFFFFFFFFFFFF00
:020000040030CA
:0E000000FF02191EF38281FFFFC0FFE0FF40E8
:00000001FF
