:0400000076EF00F0A7
:10000800FACF60F0FBCF61F0E9CF62F05AED16F05D
:10001800D8CF2DF0E8CF2EF0E0CF2FF0FACF30F088
:10002800FBCF31F0E9CF32F0EACF33F0E1CF34F053
:10003800E2CF35F0D9CF36F0DACF37F0F3CF38F05A
:10004800F4CF39F0F6CF3AF0F7CF3BF0F8CF3CF0E9
:10005800F5CF3DF09EAC1DD09E9C050E1B6015D0C3
:100068004EEC1CF01B50020DD00EF324D96E000E7E
:10007800F420DA6E25C0DEFF26C0DDFF1B2A1B50E8
:10008800B9EC11F0ACEC1CF00AD0010E1A6E9D9C74
:1000980006D09EA804D09E9809EC1BF000D03DC065
:1000A800F5FF3CC0F8FF3BC0F7FF3AC0F6FF39C088
:1000B800F4FF38C0F3FF37C0DAFF36C0D9FF35C0C8
:1000C800E2FF34C0E1FF33C0EAFF32C0E9FF31C0CC
:1000D800FBFF30C0FAFF2FC0E0FF2EC0E8FF2DC0A5
:0800E800D8FF100092EF1AF09E
:101000000000803F72313FFE753E58633D951D3CA8
:10101000C5AE3A79213994803793A73556153400F7
:10102000000000803FF0FFBEE2A93E8376BEAE2BFB
:101030003E3CC3BDD2133D78D3BB0000000E01017E
:10104000166F1D0E0101196F010E01011A6F240E9A
:1010500001011B6F000E01011C6F220E0001F06FD9
:10106000000E0001F16F760E0001726F600E00013C
:10107000736F3C0E0001746F2F0E0001756F5D0ED3
:101080000001766F3D0E0001776FBBEC1AF088EC23
:101090001BF0CFEC1AF0B9EC1BF0A2EC1BF095ECB6
:1010A0001CF06BEC1CF0EEEC1BF0E3EC1AF0AAEC7D
:1010B0001CF0640E5FEC1BF0000E98EC19F00F0EA4
:1010C000916E010E98EC19F000D05BEC19F0E80677
:1010D000D8A403D0000E07D0F8D71DEC19F0E8060D
:1010E000D8A4F3D7010E246E01D0EFD71BC175F041
:1010F0001CC176F07AEC19F0A7EC1AF09FEC1CF00A
:10110000070E916E020E98EC19F000D05BEC19F00E
:10111000E806D8A406D0A7EC1AF02EEC12F01AD0EC
:10112000F5D71DEC19F0E806D8A4F0D7A7EC1AF013
:10113000CEEC15F0DE0E0001756F000E0001766F2B
:101140002CEC15F0F0C075F0F1C076F089EC17F0DA
:1011500001D0DCD7A7EC1AF0010E916E060E98ECC8
:1011600019F000D05BEC19F00009D8B4FBD7000EE1
:101170000001E96F000EE86F000E0001DB6F000E4A
:10118000DA6F000E916E78EC1CF0A7EC1AF0070EE7
:1011900098EC19F099EC1CF050EC1BF09CEC1CF056
:1011A000A8EC1CF000D0AEEC1BF000D03EEC1CF024
:1011B0000009D8A4FBD7BFEC17F0A1EC12F0D9ECD2
:1011C00014F001011D6F19C16EF01AC16FF028EC07
:1011D00014F06EC0E8F06FC0E9F0E8C06EF0E9C04E
:1011E0006FF0000E0001716F0D0E706FB5EC19F00D
:1011F0006EC0DAF06FC0DBF0DAC076F0DBC077F0FB
:1012000073EC13F01D0E00016E6F000E00016F6F86
:1012100073EC18F046EC1CF00009D8A461D082EC05
:101220001CF06EC017F16FC018F1D00E0101175DF0
:10123000040E01011859D8B050D0AAEC1CF0A4EC4F
:101240001CF0A2EC1CF0010E0001756F960E746F7D
:101250005DEC1CF0010E0001756F860E746F56EC8C
:101260001CF0A8EC1CF078EC1CF000D07DEC1CF01D
:1012700000016F5107E11E0E00016E5DD8B002D073
:10128000F5D700D0000E01011D6F19D0AEEC1BF098
:1012900000D03EEC1CF00009D8A4FBD7BFEC17F03F
:1012A000A1EC12F0D9EC14F001011D6F1D0E00012C
:1012B0006E6F000E00016F6F73EC18F000D001012B
:1012C0001D510101D8B4E2D7AAEC1CF09CEC1CF033
:1012D000A8EC1CF0E4EC1BF003D0E4EC1BF000D015
:1012E00078EC1CF000D07DEC1CF000016F5107E1A0
:1012F000050E00016E5DD8B002D0F5D700D0000E0B
:10130000916E0101162B4FD776EF00F08AC08EF058
:1013100000018F6B906B0001893500018E3701E36E
:101320008F8100018E510001936F8DC08EF00001FE
:101330008F6B906B00018C3500018E3701E38F813C
:1013400000018E510001926F000193510001D8B449
:1013500011D0000192510001935DD8B012D000016C
:10136000935100080001922500018E6F180E0001B4
:101370008E6507D08BC088F08CC089F08DC08AF054
:1013800003D1000192510001D8B411D00001935152
:101390000001925DD8B012D0000192510008000106
:1013A000932500018E6F180E00018E6507D088C04E
:1013B00088F089C089F08AC08AF0E6D0060E000164
:1013C000916F00018AAF03D00001918F00D000011E
:1013D0008DAF02D00001918D0001898FFF0E0001B9
:1013E0008817FF0E00018917000E00018A170001FF
:1013F0008C8FFF0E00018B17FF0E00018C17000E63
:1014000000018D17000192510001935DD8B028D0E2
:101410000001D8908B378C378D370001920700017F
:10142000935100019219D8B413D00001910791C0D3
:101430008EF0070E00018E17D8B40AD0E9D708D075
:101440000001D8908A33893388330001932B00D070
:101450000001925100019319D8B430D0F1D72ED0A9
:10146000000193510001925DD8B028D00001D890BE
:10147000883789378A3700019307000193510001AB
:101480009219D8B413D00001910791C08EF0070EC5
:1014900000018E17D8B40AD0E9D708D00001D8903F
:1014A0008D338C338B330001922B00D0000192518D
:1014B00000019319D8B402D0F1D700D0000191AF48
:1014C00012D0FF0E0001881BFF0E0001891BFF0ECA
:1014D00000018A1B010E00018827000E00018923EC
:1014E000000E00018A23000191AD13D0FF0E000110
:1014F0008B1BFF0E00018C1BFF0E00018D1B010ECC
:1015000000018B27000E00018C23000E00018D23AB
:1015100000D0000E0001916F0001885100018B275F
:101520000001895100018C2300018A5100018D23A3
:1015300000018DAF16D0FF0E00018B1BFF0E0001C6
:101540008C1BFF0E00018D1B010E00018B27000E6E
:1015500000018C23000E00018D23010E0001916F0C
:1015600000D08BC06EF08CC06FF08DC070F093C057
:1015700071F091C072F02EEC0FF06EC088F06FC069
:1015800089F070C08AF000D012000001A95100015A
:10159000AA110001AB11D8A409D0000E0001A96F57
:1015A000800E0001AA6F3F0E3DD002D1720E0001E5
:1015B0006E6F310E00016F6F440E0001706FA9C095
:1015C00071F0AAC072F0ABC073F00CEC13F0000124
:1015D000D8B00ED0000E0001DD6F220EDC6FFF0EC2
:1015E0000001A96F7F0E0001AA6F7F0E1BD0E0D013
:1015F000A9C06EF0AAC06FF0ABC070F0490E000138
:10160000716F3A0E0001726FC40E0001736F0CEC23
:1016100013F00001D8B009D0000E0001DD6F220EDA
:10162000DC6F9FD00001AB6FC3D00001ABAF02D025
:10163000010E01D0000E0001B16F0001B151000197
:10164000D8B40ED0A9C06EF0AAC06FF0ABC070F0D5
:1016500037EC1AF06EC0A9F06FC0AAF070C0ABF002
:10166000A9C079F0AAC07AF0ABC07BF0AA0E000145
:101670007C6FB80E00017D6F3F0E00017E6FA6ECFF
:101680000CF079C0A9F07AC0AAF07BC0ABF0A9C079
:10169000A1F0AAC0A2F0ABC0A3F049EC10F0A1C029
:1016A000ACF0A2C0ADF0A3C0AEF0ACC088F0ADC04D
:1016B00089F0AEC08AF095EC0EF088C0AFF089C01A
:1016C000B0F0A9C094F0AAC095F0ABC096F0AFC03E
:1016D00076F0B0C077F0DBEC18F076C097F077C00A
:1016E00098F078C099F04BEC18F094C0A9F095C030
:1016F000AAF096C0ABF0A9C094F0AAC095F0ABC018
:1017000096F0010E0001976F100E0001986F000E09
:1017100000019A6F090E996FC7EC10F094C0A0F009
:1017200095C0A1F096C0A2F0AFC0A3F0B0C0A4F0E5
:10173000BEEC0FF0A0C0A9F0A1C0AAF0A2C0ABF00F
:101740000001B1510001D8B42DD00001A92912E146
:101750007F0E0001AA190EE17F0E0001AB19D8A47B
:1017600009D0000E0001A96F000E0001AA6F000E43
:1017700059D71ED0000E0001766F800E0001776FE2
:101780003F0E0001786FA9C079F0AAC07AF0ABC013
:101790007BF054EC0DF076C0A9F077C0AAF078C0C9
:1017A000ABF006D0A9C0A9F0AAC0AAF0ABC0ABF0BC
:1017B0001200000E01010C6F010100510101011125
:1017C00001010211D8A416D0000E00016E6F000EA8
:1017D00000016F6F000E0001706F03C171F004C152
:1017E00072F005C173F00CEC13F00001D8A045D0E5
:1017F0003FD0ABD0010103510101041101010511DA
:10180000D8A409D0000E0101006F800E0101016F04
:101810003F0E3AD09AD0010102AF4DD003C188F0FB
:1018200004C189F005C18AF095EC0EF088C00DF175
:1018300089C00EF18AC00FF18BC010F10DC176F096
:101840000EC177F00FC178F010C179F09AEC16F064
:1018500001010351000176190BE10101045100015E
:10186000771906E10101055100017819D8B40FD0AC
:10187000000E0001DD6F210EDC6F000E0101006F14
:10188000000E0101016F000E0101026F5ED0010127
:101890000D51010B01010C6F00C16EF001C16FF021
:1018A00002C170F037EC1AF06EC000F16FC001F1A8
:1018B00070C002F100D000C1A0F001C1A1F002C1CE
:1018C000A2F0F5EC0DF0A0C006F1A1C007F1A2C096
:1018D00008F106C179F007C17AF008C17BF003C1B5
:1018E0007CF004C17DF005C17EF0A6EC0CF079C05F
:1018F00009F17AC00AF17BC00BF109C1A9F00AC154
:10190000AAF00BC1ABF0C5EC0AF0A9C000F1AAC067
:1019100001F1ABC002F101010C510101D8B40FD0AB
:1019200000C16EF001C16FF002C170F037EC1AF027
:101930006EC000F16FC001F170C002F106D000C1AD
:1019400000F101C101F102C102F112007BC07FF080
:101950000001806B816B00017A3500017F3701E364
:10196000808100017F510001826F00018251D8A463
:1019700002D014D098D07EC07FF00001806B816BC4
:1019800000017D3500017F3701E3808100017F5137
:101990000001876F00018751D8A40AD0000E000112
:1019A000796F000E00017A6F000E00017B6F7BD013
:1019B000000187517B0F000182277BC087F0000167
:1019C0007E510001871B800E0001871700017A8F6E
:1019D00000017D8FFF0E00017C17FF0E00017D17B7
:1019E000000E00017E17000E0001836F000E000143
:1019F000846F000E0001856F070E0001866F00D016
:101A0000000179A10DD000017C5100018327000164
:101A10007D510001842300017E510001852300D007
:101A20000001D8907B337A3379330001D8907C372A
:101A30007D377E370001862FE3D700D0090E0001E5
:101A4000866F00D0000179A10DD000017C5100010A
:101A5000832700017D510001842300017E51000194
:101A6000852300D00001D8907B337A33793300018D
:101A7000D8908533843383330001862FE3D700D099
:101A800083C06EF084C06FF085C070F082C071F0CA
:101A900087C072F02EEC0FF06EC079F06FC07AF054
:101AA00070C07BF000D0120078C07CF000017D6B2C
:101AB0007E6B0001773500017C3701E37D810001F9
:101AC0007C510001836F00018351D8A402D014D04F
:101AD0008BD07BC07CF000017D6B7E6B00017A3582
:101AE00000017C3701E37D8100017C510001846F9E
:101AF00000018451D8A40AD0000E0001766F000EB8
:101B00000001776F000E0001786F6ED0000E0001AB
:101B1000806F000E0001816F000E0001826F0001D6
:101B20008451890F0001835F78C084F000017B51EC
:101B30000001841B800E000184170001778FFF0EC7
:101B400000017617FF0E00017717000E00017817CD
:101B500000017A8FFF0E00017917FF0E00017A173E
:101B6000000E00017B17180E00017F6F00D00001EE
:101B7000D890803781378237000179510001765D36
:101B800000017A510001775900017B510001785919
:101B9000D8A00ED0000179510001765F00017A5182
:101BA0000001775B00017B510001785B00018081BF
:101BB0000001D89076377737783700017F2FD7D755
:101BC00000D080C06EF081C06FF082C070F083C022
:101BD00071F084C072F02EEC0FF06EC076F06FC022
:101BE00077F070C078F000D012000001A2AF06D0EC
:101BF000000E0001DD6F210E0DD096D00001A05126
:101C00000001A1110001A211D8A40FD0000E000103
:101C1000DD6F220EDC6F000E0001A06F000E0001D0
:101C2000A16F000E0001A26F7FD0000E00017C6F3B
:101C3000000E00017D6F400E00017E6FA30E0001BB
:101C4000716F000E0001726FA0C06EF0A1C06FF046
:101C5000A2C070F082EC14F06EC079F06FC07AF020
:101C600070C07BF0A6EC0CF079C088F07AC089F0E7
:101C70007BC08AF0000E00018B6F800E00018C6F1C
:101C8000BF0E00018D6F86EC09F088C0A0F089C0FE
:101C9000A1F08AC0A2F00001A307D8A0A407A0C0A9
:101CA00094F0A1C095F0A2C096F01F0E0001976FAE
:101CB000100E0001986F000E00019A6F080E996FC8
:101CC000C7EC10F094C0A0F095C0A1F096C0A2F0AF
:101CD000720E00017C6F310E00017D6F3F0E00011E
:101CE0007E6FA3C076F0A4C077F0DBEC18F076C06E
:101CF00079F077C07AF078C07BF0A6EC0CF079C070
:101D000088F07AC089F07BC08AF0A0C08BF0A1C0B7
:101D10008CF0A2C08DF086EC09F088C0A0F089C0DC
:101D2000A1F08AC0A2F000D012008AC08CF000019D
:101D30008D6B8E6B0001893500018C3701E38D813D
:101D400000018C510001966F00019651D8A402D079
:101D500051D083D0170E00018C6F88C08DF089C0E0
:101D60008EF08AC08FF000018C290001906F05D0A1
:101D70000001D8908F338E338D330001902FF8D728
:101D800000018D510001916F0001898FFF0E00014C
:101D90008817FF0E00018917000E00018A17000145
:101DA00088510001926F000189510001936F000179
:101DB0008A510001946F0001956B8E0E0001965FB1
:101DC000000196AF13D000019651800A8F0FD8B052
:101DD00003D010D042D000D00001D8909533943376
:101DE000933392330001963FF7D71FD0170E0001AF
:101DF000966514D0000E0001886F000E896F000EEA
:101E00008A6F000E8B6F29D009D00001D8909237CD
:101E10009337943795370001960700D0000196510B
:101E20000001D8B402D0F1D700D0000191510001D7
:101E3000D8B40AD00001951F941F931F926D000E15
:101E400093239423952300D092C088F093C089F007
:101E500094C08AF095C08BF000D01200000171513F
:101E60000001D8B408D000016E5100016F110001CB
:101E70007011D8A413D0000E00016E6F000E000187
:101E80006F6F000E0001706F78D008D00001712BC9
:101E90000001D89070336F336E3300D0000E000114
:101EA0006E150001736F000E00016F150001746F55
:101EB000FE0E000170150001756F000173510001E5
:101EC000741100017511D8B413D0E0D711D00001FE
:101ED000712B010E00016E27000E00016F23000E12
:101EE000000170230001D89070336F336E3300D03F
:101EF000000E00016E150001736F000E00016F15DA
:101F00000001746FFF0E000170150001756F000174
:101F100073510001741100017511D8B40AD0D7D7DC
:101F200008D0000171070001D8906E376F37703705
:101F300000D000016FBF05D0020E00017161F1D722
:101F400000D0000171B103D000016F9F00D00001EB
:101F5000D89071330001715100017013000172516A
:101F60000001D8B403D00001708F00D06EC06EF0B5
:101F70006FC06FF070C070F000D012000001A0516F
:101F80000001A1110001A211D8A402D02AD080D052
:101F90000001A2517F0B0001A56FA66BD890000134
:101FA000A537A6370001A5510001A3270001A651BE
:101FB0000001A4230001A1AF04D00001A56BA52B53
:101FC00002D00001A56B0001A5510001A327000E5E
:101FD000A4230001A4AF0FD0000E0001DD6F220E7C
:101FE000DC6F000E0001A06F000E0001A16F000E5B
:101FF00022D04ED046D00001A4BF21D00001A405BC
:10200000D8A01DD0000E0001DD6F220EDC6F000194
:10201000A2AF0AD0FF0E0001A06F7F0E0001A16FDA
:10202000FF0E09D035D02DD0FF0E0001A06F7F0E1E
:102030000001A16F7F0E0001A26F2AD022D0000103
:10204000A435A4310001A66F0001A3310001A56FE2
:102050000001A2510001A519800BA5190001A26F72
:10206000A3C0A5F0010E0001A5170001A533A533FB
:102070000001A1510001A5197F0BA5190001A16F55
:1020800000D0A0C0A0F0A1C0A1F0A2C0A2F000D0DA
:102090001200A1C06EF0A2C06FF0A3C070F0A70E36
:1020A0000001716F000E0001726F82EC14F00001EC
:1020B000A8AF16D00001A3AF09D0000E0001A16F98
:1020C000800E0001A26FBF0E08D060D0000E00018C
:1020D000A16F000E0001A26F000E0001A36F56D089
:1020E0000001A85105E1150E0001A75DD8A007D099
:1020F000A1C0A1F0A2C0A2F0A3C0A3F047D0A1C08C
:1021000088F0A2C089F0A3C08AF095EC0EF088C0D8
:1021100097F089C098F08AC099F08BC09AF07DEC56
:1021200015F097C0A4F098C0A5F099C0A6F0A1C082
:102130006EF0A2C06FF0A3C070F0A4C071F0A5C093
:1021400072F0A6C073F00CEC13F00001D8B018D0F8
:10215000A4C088F0A5C089F0A6C08AF0000E0001D6
:102160008B6F800E00018C6FBF0E00018D6F86ECAF
:1021700009F088C0A1F089C0A2F08AC0A3F006D0FF
:10218000A4C0A1F0A5C0A2F0A6C0A3F0120099C0FF
:102190006EF09AC06FF0000E0001716F030E706F49
:1021A000B5EC19F097C09BF098C09CF000016E51FF
:1021B00000019B2700016F5100019C239BC0F6FF8B
:1021C0009CC0F7FF000EF86E0900F5CF9DF00900E6
:1021D000F5CF9EF00A00F5CF9FF047D09DC07CF070
:1021E0009EC07DF09FC07EF094C079F095C07AF0DB
:1021F00096C07BF0A6EC0CF079C088F07AC089F02C
:102200007BC08AF0000E0001716F030E706F000139
:102210009907D8A09A0799C06EF09AC06FF0B5ECF4
:1022200019F097C09BF098C09CF000016E5100011E
:102230009B2700016F5100019C239BC0F6FF9CC0AF
:10224000F7FF000EF86E0900F5CF8BF00900F5CF0F
:102250008CF00A00F5CF8DF086EC09F088C09DF077
:1022600089C09EF08AC09FF000D000019951000102
:102270009A11D8A4B3D79DC094F09EC095F09FC08A
:1022800096F0120000016F6F40D0870E7BEC1BF0C0
:102290006FD08F0E7BEC1BF06BD0970E7BEC1BF09E
:1022A00067D09F0E7BEC1BF063D0A70E7BEC1BF07E
:1022B0005FD0AF0E7BEC1BF05BD0B70E7BEC1BF05E
:1022C00057D0BF0E7BEC1BF053D0C70E7BEC1BF03E
:1022D0004FD0CF0E7BEC1BF04BD0D70E7BEC1BF01E
:1022E00047D0DF0E7BEC1BF043D0E70E7BEC1BF0FE
:1022F0003FD0EF0E7BEC1BF03BD0F70E7BEC1BF0DE
:1023000037D0FF0E7BEC1BF033D000016F51000A79
:10231000D8B4BBD7010AD8B4BCD7030AD8B4BDD748
:10232000010AD8B4BED7070AD8B4BFD7010AD8B4B7
:10233000C0D7030AD8B4C1D7010AD8B4C2D70F0A8C
:10234000D8B4C3D7010AD8B4C4D7030AD8B4C5D700
:10235000010AD8B4C6D7070AD8B4C7D7010AD8B477
:10236000C8D7030AD8B4C9D7010AD8B4CAD700D08D
:102370001200276E40D0870EC4EC1BF06ED08F0E7B
:10238000C4EC1BF06AD0970EC4EC1BF066D09F0E15
:10239000C4EC1BF062D0A70EC4EC1BF05ED0AF0EF5
:1023A000C4EC1BF05AD0B70EC4EC1BF056D0BF0ED5
:1023B000C4EC1BF052D0C70EC4EC1BF04ED0CF0EB5
:1023C000C4EC1BF04AD0D70EC4EC1BF046D0DF0E95
:1023D000C4EC1BF042D0E70EC4EC1BF03ED0EF0E75
:1023E000C4EC1BF03AD0F70EC4EC1BF036D0FF0E55
:1023F000C4EC1BF032D02750000AD8B4BCD7010A75
:10240000D8B4BDD7030AD8B4BED7010AD8B4BFD751
:10241000070AD8B4C0D7010AD8B4C1D7030AD8B4C0
:10242000C2D7010AD8B4C3D70F0AD8B4C4D7010A97
:10243000D8B4C5D7030AD8B4C6D7010AD8B4C7D709
:10244000070AD8B4C8D7010AD8B4C9D7030AD8B480
:10245000CAD7010AD8B4CBD700D01200030E98EC2B
:1024600019F0030E916E06D014EC17F00A0E5FEC13
:102470001BF000D05BEC19F00009D8B4F5D7000EC2
:1024800000017C6F040E00017C6501D025D00001A5
:102490007C5100017A6F7B6BD89000017A377B37D3
:1024A000030E00017A250001716F000E00017B21EF
:1024B0000001726F00017C51020DDE0EF324D96E13
:1024C000000EF420DA6EDECF73F0DDCF74F0EDECA9
:1024D00019F000017C2BD6D7DE0E0001756F000EBF
:1024E0000001766F2CEC15F0A7EC1AF0040E98ECB6
:1024F00019F006D023EC18F00A0E5FEC1BF000D0A8
:102500005BEC19F00009D8B4F5D7000E0001726F2A
:10251000010E716F22C073F023C074F0EDEC19F05E
:10252000000E0001726F000E716F010E0001736FDB
:10253000F8EC1BF0F0C075F0F1C076F089EC17F004
:1025400012002404D8A432D0000E426E040E42645D
:1025500001D061D04250020DC60EF324D96E000E98
:10256000F420DA6EDE50225C2350800A0001706F86
:10257000DE50800A00017059D8B00AD04250010DD7
:102580001D0EF324D96E000EF420DA6E010E09D070
:102590004250010D1D0EF324D96E000EF420DA6EA8
:1025A000000EDF6E00D0422AD1D735D02450D8A4F7
:1025B00032D0000E426E040E426401D02CD0425044
:1025C000020DC60EF324D96E000EF420DA6E2250EE
:1025D000DE5CDE50800A0001706F2350800A00012B
:1025E0007059D8B00AD04250010D1D0EF324D96E97
:1025F000000EF420DA6E010E09D04250010D1D0EBE
:10260000F324D96E000EF420DA6E000EDF6E00D0D7
:10261000422AD1D700D01200000170AF1ED06EC088
:1026200074F06FC075F070C076F00001741F751FF4
:10263000761F742B000E75237623000E000174257F
:1026400000016E6F000E0001752100016F6F800E9A
:10265000000176210001706F00D0000173AF1ED021
:1026600071C074F072C075F073C076F00001741F11
:10267000751F761F742B000E75237623000E000144
:1026800074250001716F000E000175210001726F49
:10269000800E000176210001736F00D0000E000152
:1026A0006E1B000E00016F1B800E0001701B000EE0
:1026B0000001711B000E0001721B800E0001731BD4
:1026C0000001715100016E5D0001725100016F59EE
:1026D0000001735100017059D8B002D0D89002D0D7
:1026E000D88000D01200000177BF07D000017751D9
:1026F00021E100017605D8B01DD076C078F077C012
:1027000079F00001781F791F784B792B900E00012A
:1027100078250001746F010E000179210001756FA9
:102720005DEC1CF0010E0001756F900E746F56EC9D
:102730001CF033D0000177BF1BD00001775104E1BA
:1027400000017605D8A014D0010E0001756F900E1F
:10275000746F5DEC1CF0900E000176250001746F23
:10276000010E000177210001756F56EC1CF015D0A9
:102770000001765100017711D8A40FD0010E00019D
:10278000756F900E746F5DEC1CF0010E0001756F9B
:10279000900E746F56EC1CF000D01200000E000179
:1027A000736F00016FAF09D000016E6D6F1FD8B05D
:1027B0006F2B010E0001736F00D0000171AF06D0C6
:1027C0000001706D711FD8B0712B00D000017051E5
:1027D00000017111D8B42BD0010E0001726F07D027
:1027E0000001D890703771370001722B00D00001C2
:1027F00071BF02D0F5D700D00001705100016E5DAD
:102800000001715100016F59D8A009D00001705129
:1028100000016E5F0001715100016F5B00D000018B
:10282000D890713370330001722FE6D700D00001C9
:1028300073510001D8B406D000016E6D6F1FD8B07F
:102840006F2B00D06EC06EF06FC06FF000D0120022
:1028500031D0000E00016F6F400E51D052D0000EEB
:1028600000016F6F1B0E4BD04CD0000E00016F6F3C
:10287000080E45D046D0000E00016F6F010E3FD00C
:1028800040D039D03ED000016E696F693AD0FF0E5A
:1028900000016F6FF80E33D034D0FF0E00016F6F60
:1028A000E50E2DD02ED0FF0E00016F6FC00E27D089
:1028B00028D021D06EC0D9FF6FC0DAFFDF50010AE7
:1028C000D8B4F1D7030AD8B4E2D7010AD8B4E5D70F
:1028D000070AD8B410D0020AD8B4D5D70E0AD8B493
:1028E000C4D7040AD8B4C7D71C0AD8B4B2D7080AC8
:1028F000D8B4B5D700D0000E00016F6F000E6E6F18
:1029000000D0120000016E5100016F110001701122
:10291000D8A412D071C0D9FF72C0DAFF000EDE6EEB
:10292000000EDD6E000E00016E6F000E00016F6F75
:10293000000E0001706F3CD0000170517F0B000150
:10294000736F746BD89000017337743771C0D9FFFF
:1029500072C0DAFF73C0DEFF74C0DDFF00016FAF2D
:1029600004D00001736B732B02D00001736B000164
:10297000735171C0D9FF72C0DAFFDE12000EDD1292
:1029800071C0D9FF72C0DAFF820EDE26FF0EDD2293
:1029900070817083708570877089708B709D000165
:1029A0006F9F6EC06EF06FC06FF070C070F000D09F
:1029B0001200000E0101146F000E0101156F040ECC
:1029C0000101156501D044D0010115517CEC1AF0CC
:1029D00076C003F177C004F178C005F1000E010163
:1029E000006F000E0101016F400E0101026FD9EC72
:1029F0000BF000C111F101C112F102C113F111C1BB
:102A00007CF012C17DF013C17EF001011551010D62
:102A10001D0EF324D96E000EF420DA6EDF507CEC2C
:102A20001AF076C079F077C07AF078C07BF0A6EC27
:102A30000CF079C088F07AC089F07BC08AF095EC00
:102A40000EF000018851010114270101152BB7D7A1
:102A50000101145100D0120000D036EC1CF0000926
:102A6000D8A4FBD74FEC1AF0AA0E3CEC19F0210EBB
:102A70003CEC19F0000E0001796F040E000179653D
:102A800001D02CD000017951020DF35000017525C1
:102A9000D96EF45000017621DA6EDECF77F0DDCF0B
:102AA00078F078C077F00001786B77BF7869000123
:102AB00077513CEC19F000017951020DF3500001FF
:102AC0007525D96EF45000017621DA6EDF50FF0DC6
:102AD000F3503CEC19F00001792BCFD70D0E3CECF4
:102AE00019F00A0E3CEC19F000D036EC1CF000098D
:102AF000D8A4FBD791EC1CF01200000E0001A06FCF
:102B00008E0E00019F6F00019AAF16D000019A1F30
:102B1000991F981F976D000E982399239A23010EF1
:102B20000001A06F09D00001D8909A3399339833EF
:102B3000973300019F2B00D0000E00019715000174
:102B40009B6F000E0001981500019C6F000E0001A4
:102B5000991500019D6FFF0E00019A1500019E6FEF
:102B600000019B5100019C1100019D1100019E116B
:102B7000D8A4D9D797C06EF098C06FF099C070F004
:102B80009FC071F0A0C072F02EEC0FF06EC097F0F5
:102B90006FC098F070C099F000D01200000E0001D4
:102BA000716F000E706F2EEC1CF00009D8A405D0D8
:102BB000A7EC1AF02EEC12F03BD0000E0001716F62
:102BC000010E706FF4EC17F070C022F071C023F0AA
:102BD000000E00017F6F040E00017F6501D028D038
:102BE00000017F5100017D6F7E6BD89000017D3721
:102BF0007E37030E00017D250001706F000E00017D
:102C00007E210001716FF4EC17F000017F51020D7D
:102C1000DE0EF324D96E000EF420DA6E000170C0CF
:102C2000DEFF000171C0DDFF00017F2BD4D700D093
:102C30001200000E2A6E26AE07D0256C261ED8B0D4
:102C4000262A010E2A6E00D028AE05D0276C281E39
:102C5000D8B0282A00D027502810D8B41DD0010E93
:102C6000296E05D0D89027362836292A00D028BECC
:102C700002D0F8D700D02750255C28502658D8A07D
:102C800005D02750255E2850265A00D0D8902832EB
:102C90002732292EF0D700D02A50D8B405D0256C81
:102CA000261ED8B0262A00D025C025F026C026F042
:102CB00000D012000600EACF63F0E1CF64F0E2CF6B
:102CC00065F0D9CF66F0DACF67F0F3CF68F0F4CFD4
:102CD00069F0F6CF6AF0F7CF6BF0F8CF6CF0F5CF74
:102CE0006DF0F2A404D0F29495EC1BF006D0F0A4A1
:102CF00004D0F09406EC1AF000D06DC0F5FF6CC063
:102D0000F8FF6BC0F7FF6AC0F6FF69C0F4FF68C048
:102D1000F3FF67C0DAFF66C0D9FF65C0E2FF64C099
:102D2000E1FF63C0EAFF62C0E9FF61C0FBFF60C072
:102D3000FAFF11008E0E426E08D00001D890793350
:102D4000783377337633422A00D0000E00017615AF
:102D500000017A6F000E0001771500017B6F000EF5
:102D60000001781500017C6FFF0E0001791500014C
:102D70007D6F00017A5100017B1100017C1100017F
:102D80007D11D8A4DAD776C06EF077C06FF078C026
:102D900070F042C071F0000E0001726F2EEC0FF067
:102DA0006EC076F06FC077F070C078F000D012007F
:102DB000426E000EC26E000EC06E0001D8906E31E1
:102DC0003C0BC26E6EC070F00001703BF00E7017CD
:102DD000300E0001701700016F510F0B00017011D0
:102DE000C16E42C070F00001D89070370001D890D9
:102DF0007037380E0001701742C071F00001713B4E
:102E00000F0E7117070E000171174250800B000161
:102E1000711100017011C06E00016EAF03D09E9C55
:102E20009D8CF28CC2801200AEEC1BF000D03EEC08
:102E30001CF00009D8A4FBD7000E0001726F040E2D
:102E40000001726501D02AD000017251020DD00E2E
:102E5000F324D96E000EF420DA6EDECF70F0DDCFF1
:102E600071F00001701F711F704B712B0001D45164
:102E7000000170270001D55100017123000172513A
:102E8000020DDE0EF324D96E000EF420DA6E70C04F
:102E9000DEFF71C0DDFF0001722BD1D71200426E40
:102EA000000EAC6E000EAB6E42A002D0AC8800D01B
:102EB00042A203D0AC8CAB8C00D042A402D0AC8E2A
:102EC00000D042A602D0AB8802D0AB8A00D042A884
:102ED00002D0AC8400D042AA02D0AB8600D042AC73
:102EE00002D09D8A02D09D9A00D042AE02D09D8829
:102EF00001D09D986EC0AFFF00016F517F6EAC8A0C
:102F0000AB8E949C948EACB8ACBE02D0948C00D0A6
:102F1000120000D036EC1CF00009D8A4FBD74FEC0F
:102F20001AF0AA0E3CEC19F0310E3CEC19F075C009
:102F3000D9FF76C0DAFFDECF77F0DDCF78F078C04A
:102F400077F00001786B77BF7869000177513CEC2E
:102F500019F075C0D9FF76C0DAFFDF503CEC19F0EC
:102F60000D0E3CEC19F00A0E3CEC19F000D036ECDA
:102F70001CF00009D8A4FBD791EC1CF01200000E45
:102F8000426E040E426401D02ED04250020DDE0E7D
:102F9000F324D96E000EF420DA6EDECF6EF0DDCFB2
:102FA0006FF04250020DD00EF324D96E000EF420C3
:102FB000DA6EDECF70F0DDCF71F000016E510001EE
:102FC000702700016F51000171234250020DC60E9F
:102FD000F324D96E000EF420DA6E70C0DEFF71C0EB
:102FE000DDFF422ACED7120070C06EF071C06FF0C4
:102FF0001FEC1AF00001726F000172510001746F32
:10300000736B000E000173150001756FFF0E000158
:1030100074150001766F010E0001702500016E6FBE
:10302000000E0001712100016F6F1FEC1AF000010A
:10303000726F000172510001751375C070F076C097
:1030400071F000D01200000E916E050E42EC11F0EE
:10305000A6EC1CF000D064EC1CF00009D8A4FBD74F
:10306000DAEC1BF06EC022F06FC023F0AEEC1BF068
:1030700000D03EEC1CF00009D8A4FBD7BFEC17F041
:10308000A1EC12F01D0E00016E6F000E00016F6FBB
:1030900073EC18F012000001975100019811000123
:1030A0009911D8B40AD0000E0001971B000E000140
:1030B000981B800E0001991B00D094C088F095C029
:1030C00089F096C08AF097C08BF098C08CF099C0B8
:1030D0008DF086EC09F088C094F089C095F08AC024
:1030E00096F000D01200000E426E040E426401D031
:1030F0001DD042C070F04250010DF35000016E250A
:10310000D96EF45000016F21DA6EDF500001716F4B
:103110000001702B03D00001D89071370001702F8F
:10312000FAD700017151911A422ADFD712006EC0FE
:1031300070F06FC071F0060ED890000170377137D3
:10314000E82EFAD770C072F071C073F073C074FFCC
:1031500072C070F00001D89070330001D8907033C5
:10316000300E000170177350CF0B00017011736E99
:1031700012006EC070F06FC071F0060ED8900001A2
:1031800070377137E82EFAD770C072F071C073F0E3
:1031900073C071FF72C070F00001D89070330001ED
:1031A000D8907033300E000170177050CF0B0001B3
:1031B0007011706E1200000E426E000177AF08D0E1
:1031C0000001766D771FD8B0772B010E426E00D0CC
:1031D00076C06EF077C06FF00001706B8E0E00014C
:1031E000716F42C072F02EEC0FF06EC076F06FC0BF
:1031F00077F070C078F000D01200040E00016F5D0F
:10320000D8B01AD001D018D06EC0A9FF00016F51FC
:10321000030BAA6E70C0A8FFA69EA69CA684F29E71
:10322000550EA76EAA0EA76EA68200D0A6B2FED734
:10323000A694F28EA65000D0120081B403D016D00E
:103240001AD017D081A415D087EC1CF000D08CECDC
:103250001CF000016F5105E10A0E00016E5DD8A05F
:10326000F6D781A403D0010E06D003D0000E03D000
:1032700000D0000E00D012000001746F1850010D34
:10328000B20EF324D96E000EF420DA6E74C0DFFFA4
:1032900018C042F0010E4226425000016E6F6F6B63
:1032A000000E0001716F140E706FCEEC13F0000170
:1032B0006E51186E120081B203D016D01AD017D0FA
:1032C00081A215D087EC1CF000D08CEC1CF0000122
:1032D0006F5105E10A0E00016E5DD8A0F6D781A2FC
:1032E00003D0010E06D003D0000E03D000D0000E94
:1032F00000D0120000D036EC1CF00009D8A4FBD797
:103300004FEC1AF0AA0E3CEC19F0110E3CEC19F03F
:1033100075C0D9FF76C0DAFFDF503CEC19F00D0E16
:103320003CEC19F00A0E3CEC19F091EC1CF0120088
:103330000001756F00D036EC1CF00009D8A4FBD753
:103340004FEC1AF0AA0E3CEC19F0010E3CEC19F00F
:10335000000175513CEC19F00D0E3CEC19F00A0E11
:103360003CEC19F091EC1CF0120000016E510001D0
:103370007003F3CF72F0F4CF73F000016E510001CF
:103380007103F3500001732700016F5100017003B6
:10339000F3500001732772C06EF073C06FF000D05D
:1033A00012001750010DB20EF324D96E000EF42056
:1033B000DA6EDF502C6E17C02BF0010E2B262B502F
:1033C000256E266A000E286E140E276E19EC16F074
:1033D0002550176E2C5000D0120071C06EF072C0D4
:1033E0006FF0000174510001706FFDEC18F0010ED8
:1033F0000001712500016E6F000E000172210001B5
:103400006F6F73C070F0FDEC18F01200F09ACDB041
:1034100009D0CD80000E3F6E000E3E6E13EC1CF006
:10342000F1960AD0CD901CEC1CF03EC00BF03FC0D2
:103430000CF0010E166E00D0F094F08A1200040E0B
:1034400000016F5DD8A002D0000E10D000016E51B7
:103450000F0BA96E00016F51030BAA6EA69EA69CCE
:10346000A68000D0A6B0FED7A85000D01200000160
:103470006E5100016F1100017011D8B409D0000E17
:1034800000016E1B000E00016F1B800E0001701BFF
:103490006EC06EF06FC06FF070C070F01200000E62
:1034A000426E130E426401D00CD04250010DB20E98
:1034B000F324D96E000EF420DA6E000EDF6E422A7D
:1034C000F0D7000E186E000E176E1200426E4250BA
:1034D0007E0BCD6E42AC02D0CD8E02D0CD9E00D000
:1034E000000ECF6E000ECE6E9E9042AE02D09D803A
:1034F00001D09D90CD801200426E425000016E6F4F
:103500006F6B706B8E0E0001716F000E0001726F99
:103510002EEC0FF06EC076F06FC077F070C078F0D0
:1035200000D0120001EE1EF0140EEE6AE806FDE176
:1035300000EEB2F0380EEE6AE806FDE100EE01F0B2
:10354000240EEE6AE806FDE100011EEF08F0000E11
:10355000916E1F0E916E4B0E5FEC1BF0000E916E84
:103560004B0E5FEC1BF01F0E916E4B0E5FEC1BF0D1
:10357000000E916E120072C0EAF073C0EBF074C0DE
:10358000ECF075C0EDF076C0EEF077C0EFF0000E15
:1035900000016F6F000E6E6F01EC1CF01200F28ED6
:1035A000F28CD08EF09AF094F186F182F28AF29445
:1035B000F1849D9C9E9C9F9C9D9A9D989E9A9E980E
:1035C0009F9A9F981200000E00016F6F400E6E6F61
:1035D0003C0E4FEC17F04FEC1AF0F6EC1AF0000E20
:1035E000176E000E186E010E136E1200000E426E62
:1035F000130E426401D00CD04250010D1E0EF32474
:10360000D96E010EF420DA6E000EDF6E422AF0D77A
:103610001200D1EC19F0156E0A0E1518D8A407D0B7
:103620001550CFEC1BF0010E136E9D9804D0155071
:10363000CFEC1BF000D01200426E0C0E706EB1ACDD
:10364000B1B605D0CA9442C0CBFFCA8405D07694E7
:1036500042C077FF768400D098981200426E0C0E1C
:10366000736E9896B1ACB1B605D0CA9442C0CBFF88
:10367000CA8405D0769442C077FF768400D01200C9
:10368000426E42507F0BD56E000ED76E000ED66E86
:10369000F29442AE02D0F28A01D0F29AD58E120094
:1036A000020E0001756F0E0E746F56EC1CF0020EC8
:1036B0000001756F0E0E746F5DEC1CF012000001BE
:1036C0006E6F0D0E426EFC0EE82EFED7422EFCD71A
:1036D00000016E2FF6D700D01200426E4250FB0B55
:1036E000CA6E000ECC6E9E9242AE02D09D8201D078
:1036F0009D92CA84120000016E6FC2CF42F0C30EC9
:1037000042160001D8906E313C0B4210C26E12007E
:10371000926893689F0E946EE00E956E000E966E02
:10372000E70E986E000E9A6E1200F60E3F6E3C0E7B
:103730003E6E25EC1CF00D4A0E2A0F4A102A114A43
:10374000122A1200550E66EC1AF0CD90000E000100
:103750006F6F000E6E6F01EC1CF01200000E1B6EFE
:10376000000E1A6E1B5042EC11F0A6EC1CF09D8C62
:1037700012009F0E40EC1BF0F60E00016F6F3C0E26
:103780006E6F0AEC1CF01200266EC2CF25F0C30E3D
:103790002516D89026303C0B2510C26E1200256EDF
:1037A000ACAC05D0AC9014A202D0AC8000D025C047
:1037B000ADFF1200C4500001706FC35000016E6F66
:1037C00070C06FF000D012008D8A190E72EC1CF0E0
:1037D0008D9AF186F08A000E166E1200040E00011A
:1037E0006E6F090E00016F6F950ED8EC16F0120087
:1037F00071C06EF072C06FF073C070F0FDEC18F025
:1038000012006EC070F06FC071F071C0CFFF70C059
:10381000CEFF12006EC070F06FC071F071C0D7FFA4
:1038200070C0D6FF12003EC040F03FC041F041C022
:10383000CFFF40C0CEFF1200CECF40F0CFCF41F03F
:1038400040C03EF041C03FF012003EC040F03FC0DB
:1038500041F041C0D7FF40C0D6FF120070C06EF0EB
:1038600071C06FF01FEC1AF000D012001350D8A4F2
:1038700002D0010E02D0000E00D012001A50D8A4BF
:1038800002D0010E02D0000E00D012001650D8A4B3
:1038900002D0010E02D0000E00D01200C450276EDC
:1038A000C350256E27C026F000D0120074C06EF001
:1038B00075C06FF097EC18F0120074C06EF075C010
:1038C0006FF0B9EC18F01200C2A202D0010E02D0C3
:1038D000000E00D01200820E2EEC1BF0820E1CECAB
:1038E0001BF01200426E00F0422EFDD700D01200F5
:1038F000000E0E6E000E0D6E12000DC06EF00EC0AA
:103900006FF012000BC06EF00CC06FF01200000ED2
:10391000126E000E116E120011C06EF012C06FF028
:103920001200000E136E9D881200040E6DEC1BF049
:1039300012008C908C9412008C868C8212001F0EC8
:103940008D6E12008C9612008C821200C2821200C0
:0C3950008C8812008C981200C2821200B9
:020000040020DA
:08000000FFFFFFFFFFFFFFFF00
:020000040030CA
:0E000000FF02011EF38180FFFFC0FFE0FF4002
:00000001FF
