:0400000076EF00F0A7
:10000800FACFC0F0FBCFC1F0E9CFC2F083ED0AF020
:10001800D8CF33F0E8CF34F0E0CF35F0FACF36F070
:10002800FBCF37F0E9CF38F0EACF39F0E1CF3AF03B
:10003800E2CF3BF0D9CF3CF0DACF3DF0F3CF3EF042
:10004800F4CF3FF0F6CF40F0F7CF41F0F8CF42F0D1
:10005800F5CF43F09EAC1DD09E9C050E236015D0B5
:10006800FBEC11F02350020DAE0EF324D96E000EF6
:10007800F420DA6E2BC0DEFF2CC0DDFF232A2350CC
:10008800D5EC06F06DEC12F00AD0010E226E9D9CA4
:1000980006D09EA804D09E98CCEC10F000D043C0A7
:1000A800F5FF42C0F8FF41C0F7FF40C0F6FF3FC070
:1000B800F4FF3EC0F3FF3DC0DAFF3CC0D9FF3BC0B0
:1000C800E2FF3AC0E1FF39C0EAFF38C0E9FF37C0B4
:1000D800FBFF36C0FAFF35C0E0FF34C0E8FF33C08D
:1000E800D8FF1000DFEF10F02A0E0101116F000E8B
:1000F8000101126FBC0E0101296F000E01012A6F68
:10010800200E0101006F010E0101016FB80E0101FF
:10011800026F000E0101036FBA0E0101136F000E8A
:100128000101146F190E0101156F010E0101166FFF
:100138000F0E0101046F010E0101056F0B0E010185
:10014800066F010E0101076F760E0001D26F600E77
:100158000001D36F3C0E0001D46F2F0E0001D56F44
:100168005D0E0001D66F3D0E0001D76F58EC10F000
:1001780039EC11F06CEC10F068EC11F046EC11F071
:1001880056EC12F01FEC12F093EC11F01BEC11F08E
:100198006BEC12F0640EFDEC10F04BEC0CF0D1C0DF
:1001A80019F1D2C01AF1000EC1EC0EF015C1D6F04B
:1001B80016C1D7F080EC0CF01F0E916E010EC1EC49
:1001C8000EF000D044EC0DF0E806D8A403D0000EE1
:1001D80007D0F8D7E6EC0CF0E806D8A4F3D7010E60
:1001E8002A6E01D0EFD711C1D6F012C1D7F086EC34
:1001F8000EF044EC10F060EC12F00F0E916E020E4F
:10020800C1EC0EF000D044EC0DF0E806D8A406D0FE
:1002180044EC10F06AEC08F00CD0F5D7E6EC0CF0E2
:10022800E806D8A4F0D744EC10F0B2EC07F001D0FF
:10023800EAD79A0E0001D66F000E0001D76F68EC5E
:1002480009F029C1D6F02AC1D7F040EC0BF013C150
:10025800D6F014C1D7F076EC0BF044EC10F0030E96
:10026800916E060EC1EC0EF0000E0001D76F140E51
:10027800D66F000E0001D96F000ED86F000E000176
:10028800DB6F000EDA6FE1EC0BF0000E0001D16FAE
:10029800100ED06F15EC0DF0D0C022F1D1C023F1B3
:1002A800000E0001D16F120ED06F15EC0DF0D0C00A
:1002B80024F1D1C025F1000E0001D16F140ED06FCA
:1002C80015EC0DF0D0C026F1D1C027F122C1D6F02F
:1002D80023C1D7F024C1D8F025C1D9F026C1DAF05E
:1002E80027C1DBF0ACEC0BF000D044EC0DF0E806D5
:1002F800D8A408D044EC10F0030E916E40EC04F042
:100308000ED0F3D7E6EC0CF0E806D8A4EED744EC10
:1003180010F0030E916EE3EC05F001D0E6D796C01D
:10032800D6F097C0D7F092C0D8F093C0D9F094C057
:10033800DAF095C0DBF016EC0CF000D044EC10F0CD
:10034800010E916E090EC1EC0EF000D044EC0DF0D8
:10035800E806D8B40FD001D00DD018EC12F0E8069A
:10036800D8A4F4D752EC12F0020AD8B403D0EED7CE
:1003780001D0ECD7000E0001B96F000EB86F000E67
:100388000001996F000E986F000E01011C6F000E9E
:100398001B6F000E01011E6F000E1D6F000E010184
:1003A8001F6F000E0101086F000E0101096F000E9A
:1003B8000101186F000E01010A6F000E916E44ECE6
:1003C80010F00A0EC1EC0EF002EC10F030EC12F056
:1003D8002BEC12F044EC12F026EC12F05DEC11F06C
:1003E8005AEC12F0EEEC10F05DEC12F069EC12F041
:1003F80000D02BEC12F052EC11F000D0E3EC11F02D
:100408000009D8A4FBD7AE0E0001CE6F000E000184
:10041800CF6F9A0E0001D06F000E0001D16FC3ECB0
:100428000AF0A40E0001CE6F000E0001CF6F29C1A3
:10043800D0F02AC1D1F0E4EC04F0A40E0001D46F8E
:10044800000E0001D56F67EC05F0D4C020F1D5C0CF
:1004580021F1250E0001CE6F000E0001CF6F66EC72
:100468000EF00101286F20C1E2F021C1E3F0000184
:10047800E21FE31FE24BE32B0001BA510001E22522
:100488000001CE6F0001BB510001E3210001CF6FD5
:10049800000E0001D16F640ED06F4AEC07F0CEC099
:1004A800B8F0CFC0B9F096C0CEF097C0CFF0B8C0C2
:1004B800D0F0B9C0D1F016EC0FF0CEC0E2F0CFC04A
:1004C800E3F0B8C0E4F0B9C0E5F00001E41FE51FAF
:1004D800E44BE52B01011B510001E4250001CE6F1F
:1004E80001011C510001E5210001CF6F92C0D0F03D
:1004F80093C0D1F016EC0FF00001CE510001E227B5
:100508000001CF510001E32394C0CEF095C0CFF095
:100518001DC1D0F01EC1D1F016EC0FF00001CE5174
:100528000001E2250001986F0001CF510001E3218D
:100538000001996FB8C01BF1B9C01CF10001B85196
:1005480001011D270001B95101011E2398C0D6F0F1
:1005580099C0D7F0C2EC08F0250E0001CE6F000E4E
:100568000001CF6F73EC0DF03AEC12F00001CF519F
:1005780005E1330E0001CE5DD8A0C6D0F3EC11F032
:100588000009D8A4C1D0010118510101D8A4BCD0D8
:1005980030EC12F03FEC12F0580E0001CE5D020E66
:1005A8000001CF59D8B0ADD0010E0101186F6BEC26
:1005B80012F0020E0001D56F0E0ED46F0AEC12F085
:1005C800020E0001D56F0E0ED46F03EC12F0C80EA8
:1005D800FDEC10F0000E0001B96F000EB86F000EB0
:1005E8000001996F000E986F000E01011C6F000E3C
:1005F8001B6F000E01011E6F000E1D6F65EC12F0DF
:1006080063EC12F0010E0001D56F0E0ED46F0AECE8
:1006180012F0010E0001D56F7C0ED46F03EC12F0BE
:1006280069EC12F0000E0101286F960EFDEC10F037
:1006380052EC11F000D0E3EC11F00009D8A4FBD77C
:10064800AE0E0001CE6F000E0001CF6F9A0E0001B2
:10065800D06F000E0001D16FC3EC0AF0A40E0001A8
:10066800CE6F000E0001CF6F29C1D0F02AC1D1F0A2
:10067800E4EC04F02BD052EC11F000D0E3EC11F0D4
:100688000009D8A4FBD7AE0E0001CE6F000E000102
:10069800CF6F9A0E0001D06F000E0001D16FC3EC2E
:1006A8000AF0A40E0001CE6F000E0001CF6F29C121
:1006B800D0F02AC1D1F0E4EC04F0250E0001CE6F91
:1006C800000E0001CF6F73EC0DF000D02704D8A402
:1006D800D2D76BEC12F0020E0001D56F0E0ED46F5C
:1006E8000AEC12F0020E0001D56F0E0ED46F03EC67
:1006F80012F05DEC12F069EC12F0C80EFDEC10F08F
:1007080062D05DEC11F05FD0010128510101D8A43D
:100718003CD044EC12F02DD052EC11F000D0E3ECB8
:1007280011F00009D8A4FBD7AE0E0001CE6F000E61
:100738000001CF6F9A0E0001D06F000E0001D16F3B
:10074800C3EC0AF0A40E0001CE6F000E0001CF6FBB
:1007580029C1D0F02AC1D1F0E4EC04F0250E000143
:10076800CE6F000E0001CF6F66EC0EF00101286F0E
:1007780000D049EC12F00001CF5125E1B40E000180
:10078800CE5DD8B020D0C8D71ED018EC12F0E8063D
:10079800D8A40BD052EC12F00101176F040E01011E
:1007A8001719D8A410D00BD00ED044EC0DF0E806E1
:1007B800D8B405D0E6EC0CF0E806D8A404D0010EB5
:1007C80001011F6F00D035EC12F00001CE5100017D
:1007D800CF11D8B4F8D701011F05D8A40AD6EEEC7A
:1007E80010F001D006D644EC10F0030E916E050E01
:1007F800C1EC0EF0000E0001D16F100ED06F15EC99
:100808000DF0D0C022F1D1C023F1000E0001D16F4C
:10081800120ED06F15EC0DF0D0C024F1D1C025F127
:10082800000E0001D16F140ED06F15EC0DF0D0C082
:1008380026F1D1C027F122C1D6F023C1D7F024C1B7
:10084800D8F025C1D9F026C1DAF027C1DBF0ACEC2D
:100858000BF040EC04F096C0D6F097C0D7F092C0E9
:10086800D8F093C0D9F094C0DAF095C0DBF016EC5C
:100878000CF064D576EF00F0080EC1EC0EF069ECD0
:100888000FF000D09EAAFED7000E0001DA6F080E06
:100898000001DA6502D00BD000D09EAAFED780EC0A
:1008A80010F004EC0EF00001DA2BF1D700D09DEC2B
:1008B8000DF0AA0AD8B402D0FAD700D09DEC0DF0FA
:1008C800E806D8A4FBD79DEC0DF00001D76F000116
:1008D800D7510001D96FD86B000E0001D81500015F
:1008E800966FFF0E0001D9150001976F9DEC0DF072
:1008F8000001D76F0001D751000196139DEC0DF050
:100908000001D76F0001D7510001D96FD86B000ED5
:100918000001D8150001926FFF0E0001D9150001E2
:10092800936F9DEC0DF00001D76F0001D7510001C6
:1009380092139DEC0DF00001D76F0001D751000113
:10094800D96FD86B000E0001D8150001946FFF0E07
:100958000001D9150001956F9DEC0DF00001D76FCE
:100968000001D75100019413000E0001D26F100E40
:10097800D16F96C0D3F097C0D4F0B8EC0FF0000E4A
:100988000001D26F120ED16F92C0D3F093C0D4F091
:10099800B8EC0FF0000E0001D26F140ED16F94C0A6
:1009A800D3F095C0D4F0B8EC0FF0000E0001D26F70
:1009B8000D0ED16F010E0001D36F9DEC11F01200E6
:1009C8002A50D8A43ED0000E0001D76F040E0001B3
:1009D800D76501D077D0D0C0D9FFD1C0DAFF0001E8
:1009E800D751020DF3500001CE25E16EF4500001FD
:1009F800CF21E26EDE50E65CE650800A0001D66F39
:100A0800DE50800A0001D659D8B00BD00001D7516A
:100A1800010D250EF324D96E000EF420DA6E010EB6
:100A28000AD00001D751010D250EF324D96E000E0E
:100A3800F420DA6E000EDF6E00D00001D72BC6D787
:100A480041D02A04D8A43ED0000E0001D76F040E6E
:100A58000001D76501D036D00001D751020DF350FF
:100A68000001CE25D96EF4500001CF21DA6ED0C036
:100A7800E1FFD1C0E2FFDE50E65CE650800A0001EB
:100A8800D66FDE50800A0001D659D8B00BD00001CD
:100A9800D751010D250EF324D96E000EF420DA6E1D
:100AA800010E0AD00001D751010D250EF324D96E8D
:100AB800000EF420DA6E000EDF6E00D00001D72B96
:100AC800C6D700D01200000E0001D96F000ED86FF3
:100AD800D4C0D9FFD5C0DAFFDECFCEF0DDCFCFF05E
:100AE800000E0001D16F030ED06F16EC0FF000015D
:100AF800CE510001D8270001CF510001D9230001B0
:100B080020EE02F0D451D926D551DA22DECFD6F024
:100B1800DDCFD7F0D8900001D637D7370001D651AE
:100B28000001D8270001D7510001D923000120EE88
:100B380004F0D451D926D551DA22DE500001D82745
:100B4800DD500001D923000120EE06F0D451D9264A
:100B5800D551DA22DECFD6F0DDCFD7F0D89000011C
:100B6800D637D7370001D61FD71FD64BD72B000152
:100B7800D6510001D8270001D7510001D92300011F
:100B880020EE08F0D451D926D551DA22DECFCEF0A6
:100B9800DDCFCFF0FF0E0001D16FFD0ED06F16EC48
:100BA8000FF00001CE510001D8270001CF510001FC
:100BB800D923D8C0D4F0D9C0D5F000D01200070E80
:100BC800C1EC0EF000D044EC0DF0E806D8A43CD0FF
:100BD800000E0001976F140E966F000E0001936FC0
:100BE800000E926F000E0001956F000E946F000EBC
:100BF8000001D26F100ED16F96C0D3F097C0D4F019
:100C0800B8EC0FF0000E0001D26F120ED16F92C037
:100C1800D3F093C0D4F0B8EC0FF0000E0001D26FFF
:100C2800140ED16F94C0D3F095C0D4F0B8EC0FF087
:100C3800000E0001D26F0D0ED16F010E0001D36FAF
:100C48009DEC11F036D0BFD7E6EC0CF0E806D8A43E
:100C5800BAD7000E0001D16F0D0ED06FD3EC11F092
:100C6800FF0AD8A403D040EC04F023D0000E000102
:100C7800D16F100ED06F15EC0DF0D0C096F0D1C02A
:100C880097F0000E0001D16F120ED06F15EC0DF029
:100C9800D0C092F0D1C093F0000E0001D16F140EB5
:100CA800D06F15EC0DF0D0C094F0D1C095F001D004
:100CB8008AD712000001D06F40D0870E0CEC11F0DB
:100CC8006FD08F0E0CEC11F06BD0970E0CEC11F06E
:100CD80067D09F0E0CEC11F063D0A70E0CEC11F04E
:100CE8005FD0AF0E0CEC11F05BD0B70E0CEC11F02E
:100CF80057D0BF0E0CEC11F053D0C70E0CEC11F00E
:100D08004FD0CF0E0CEC11F04BD0D70E0CEC11F0ED
:100D180047D0DF0E0CEC11F043D0E70E0CEC11F0CD
:100D28003FD0EF0E0CEC11F03BD0F70E0CEC11F0AD
:100D380037D0FF0E0CEC11F033D00001D051000A6F
:100D4800D8B4BBD7010AD8B4BCD7030AD8B4BDD726
:100D5800010AD8B4BED7070AD8B4BFD7010AD8B495
:100D6800C0D7030AD8B4C1D7010AD8B4C2D70F0A6A
:100D7800D8B4C3D7010AD8B4C4D7030AD8B4C5D7DE
:100D8800010AD8B4C6D7070AD8B4C7D7010AD8B455
:100D9800C8D7030AD8B4C9D7010AD8B4CAD700D06B
:100DA80012002D6E40D0870E73EC11F06ED08F0EAE
:100DB80073EC11F06AD0970E73EC11F066D09F0EA9
:100DC80073EC11F062D0A70E73EC11F05ED0AF0E89
:100DD80073EC11F05AD0B70E73EC11F056D0BF0E69
:100DE80073EC11F052D0C70E73EC11F04ED0CF0E49
:100DF80073EC11F04AD0D70E73EC11F046D0DF0E29
:100E080073EC11F042D0E70E73EC11F03ED0EF0E08
:100E180073EC11F03AD0F70E73EC11F036D0FF0EE8
:100E280073EC11F032D02D50000AD8B4BCD7010AA7
:100E3800D8B4BDD7030AD8B4BED7010AD8B4BFD72F
:100E4800070AD8B4C0D7010AD8B4C1D7030AD8B49E
:100E5800C2D7010AD8B4C3D70F0AD8B4C4D7010A75
:100E6800D8B4C5D7030AD8B4C6D7010AD8B4C7D7E7
:100E7800070AD8B4C8D7010AD8B4C9D7030AD8B45E
:100E8800CAD7010AD8B4CBD700D01200000E00018F
:100E9800D36F0001D1AF09D00001D06DD11FD8B0F8
:100EA800D12B010E0001D36F00D00001CFAF09D0C4
:100EB8000001CE6DCF1FD8B0CF2B010E0001D31B80
:100EC80000D0000E0001D56F000ED46F0001D05184
:100ED8000001D111D8B431D0010E0001D26F07D072
:100EE8000001D890D037D1370001D22B00D00001B3
:100EF800D1BF02D0F5D700D00001D890D437D5376C
:100F08000001D0510001CE5D0001D1510001CF593F
:100F1800D8A00BD00001D0510001CE5F0001D15103
:100F28000001CF5B0001D48100D00001D890D133FB
:100F3800D0330001D22FE0D700D00001D3510001F7
:100F4800D8B406D00001D46DD51FD8B0D52B00D0A9
:100F5800D4C0CEF0D5C0CFF000D01200000E0001F2
:100F6800D16F000ED06FD3EC11F0FF0AD8A403D0D4
:100F78006AEC08F050D0000E0001D16F000ED06F5F
:100F8800D3EC11F0E806D8A446D0000E0001E16FBA
:100F9800040E0001E16501D027D00001E1510001F4
:100FA800DF6FE06BD8900001DF37E037030E0001F8
:100FB800DF250001D06F000E0001E0210001D16F94
:100FC80015EC0DF00001E151020D9A0EF324D96ED3
:100FD800000EF420DA6E0001D0C0DEFF0001D1C09F
:100FE800DDFF0001E12BD4D7000E0001D16F0E0EFA
:100FF800D06F15EC0DF0D0C0BAF0D1C0BBF0000E28
:101008000001D16F010ED06F15EC0DF0D0C0BCF00F
:10101800D1C0BDF000D01200000E0001D36F000156
:10102800CFAF09D00001CE6DCF1FD8B0CF2B010EA6
:101038000001D36F00D00001D1AF06D00001D06D00
:10104800D11FD8B0D12B00D00001D0510001D1114F
:10105800D8B42BD0010E0001D26F07D00001D89070
:10106800D037D1370001D22B00D00001D1BF02D038
:10107800F5D700D00001D0510001CE5D0001D1515B
:101088000001CF59D8A009D00001D0510001CE5F8E
:101098000001D1510001CF5B00D00001D890D133BD
:1010A800D0330001D22FE6D700D00001D351000180
:1010B800D8B406D00001CE6DCF1FD8B0CF2B00D04A
:1010C800CEC0CEF0CFC0CFF000D01200B9EC09F0FE
:1010D800000E0001DE6F040E0001DE6501D025D090
:1010E8000001DE510001DC6FDD6BD8900001DC37B8
:1010F800DD37030E0001DC250001D16F000E000171
:10110800DD210001D26F0001DE51020D9A0EF32499
:10111800D96E000EF420DA6EDECFD3F0DDCFD4F036
:10112800B8EC0FF00001DE2BD6D744EC10F0B4EC8D
:101138000CF0000E0001D26F0E0ED16FBAC0D3F0C2
:10114800BBC0D4F0B8EC0FF044EC10F016EC09F08A
:10115800000E0001D26F010ED16FBCC0D3F0BDC02C
:10116800D4F0B8EC0FF0000E0001D26F000ED16F72
:10117800010E0001D36F9DEC11F012000001D7AFF2
:101188001DD0D6C0D8F0D7C0D9F00001D81FD91FBC
:10119800D84BD92B180E0001D8250001D46F010EA9
:1011A8000001D9210001D56F0AEC12F0010E0001EF
:1011B800D56F180ED46F03EC12F033D00001D7BFEF
:1011C8001BD00001D75104E10001D605D8A014D0E6
:1011D800010E0001D56F180ED46F0AEC12F0180E2C
:1011E8000001D6250001D46F010E0001D7210001AE
:1011F800D56F03EC12F015D00001D6510001D711BC
:10120800D8A40FD0010E0001D56F180ED46F0AECC8
:1012180012F0010E0001D56F180ED46F03EC12F016
:1012280000D01200DA0E0001D86F000E0001D96F4D
:10123800050EC1EC0EF0070E916E3CD0050E5EEC6B
:1012480006F067EC12F000D011EC12F00009D8A4F7
:10125800FBD789EC11F0CEC0DAF0CFC0DBF052EC4E
:1012680011F000D0E3EC11F0E806D8B4FBD7AE0ECD
:101278000001CE6F000E0001CF6F9A0E0001D06FF3
:10128800000E0001D16FC3EC0AF0A40E0001CE6F6E
:10129800000E0001CF6FD8C0D0F0D9C0D1F0E4EC77
:1012A80004F0250E0001CE6F000E0001CF6F73EC25
:1012B8000DF000D044EC0DF00009D8B4BFD7DAC067
:1012C800BCF0DBC0BDF0120000D0DBEC11F000096F
:1012D800D8A4FBD74EEC0FF0AA0E25EC0EF0210E89
:1012E80025EC0EF0000E0001DA6F040E0001DA653D
:1012F80001D02CD00001DA51020DF3500001D6259F
:10130800D96EF4500001D721DA6EDECFD8F0DDCFE8
:10131800D9F0D9C0D8F00001D96BD8BFD96900017C
:10132800D85125EC0EF00001DA51020DF3500001FE
:10133800D625D96EF4500001D721DA6EDF50FF0DA3
:10134800F35025EC0EF00001DA2BCFD70D0E25EC6B
:101358000EF00A0E25EC0EF000D0DBEC11F00009BF
:10136800D8A4FBD74EEC12F01200030EC1EC0EF01D
:10137800070E916E00D044EC0DF00009D8B4FBD7ED
:1013880052EC11F000D0E3EC11F00009D8A4FBD71F
:10139800000E0001D96F040E0001D96501D02AD0D2
:1013A8000001D951020DAE0EF324D96E000EF420BF
:1013B800DA6EDECFD7F0DDCFD8F00001D71FD81F07
:1013C800D74BD82B0001B2510001D7270001B351E8
:1013D8000001D8230001D951020D9A0EF324D96EC9
:1013E800000EF420DA6ED7C0DEFFD8C0DDFF0001A2
:1013F800D92BD1D712000001D06F000EAC6E000EB1
:10140800AB6E0001D0A102D0AC8800D00001D0A3FF
:1014180003D0AC8CAB8C00D00001D0A502D0AC8E30
:1014280000D00001D0A702D0AB8802D0AB8A00D090
:101438000001D0A902D0AC8400D00001D0AB02D00A
:10144800AB8600D00001D0AD02D09D8A02D09D9A13
:1014580000D00001D0AF02D09D8801D09D98CEC0A9
:10146800AFFF0001CF517F6EAC8AAB8E949C948EF7
:10147800ACB8ACBE02D0948C00D01200000E306E16
:101488002CAE07D02B6C2C1ED8B02C2A010E306E37
:1014980000D02EAE05D02D6C2E1ED8B02E2A00D02E
:1014A8002D502E10D8B41DD0010E2F6E05D0D89017
:1014B8002D362E362F2A00D02EBE02D0F8D700D0D7
:1014C8002D502B5C2E502C58D8A005D02D502B5EBB
:1014D8002E502C5A00D0D8902E322D322F2EF0D7E5
:1014E80000D03050D8B405D02B6C2C1ED8B02C2A84
:1014F80000D02BC02BF02CC02CF000D0120006001E
:10150800EACFC3F0E1CFC4F0E2CFC5F0D9CFC6F03F
:10151800DACFC7F0F3CFC8F0F4CFC9F0F6CFCAF0EE
:10152800F7CFCBF0F8CFCCF0F5CFCDF0F2A404D0C4
:10153800F2942AEC11F006D0F0A404D0F0949EECBA
:101548000FF000D0CDC0F5FFCCC0F8FFCBC0F7FF3F
:10155800CAC0F6FFC9C0F4FFC8C0F3FFC7C0DAFFAE
:10156800C6C0D9FFC5C0E2FFC4C0E1FFC3C0EAFFDF
:10157800C2C0E9FFC1C0FBFFC0C0FAFF1100000EE6
:101588000001D66F040E0001D66501D036D00001E7
:10159800D651020DF3500001D025D96EF450000148
:1015A800D121DA6EDECFD2F0DDCFD3F00001D651F3
:1015B800020DF3500001CE25D96EF4500001CF2161
:1015C800DA6EDECFD4F0DDCFD5F00001D2510001C4
:1015D800D4270001D3510001D5230001D651020DB3
:1015E800A40EF324D96E000EF420DA6ED4C0DEFF08
:1015F800D5C0DDFF0001D62BC5D712000001D26F80
:10160800000EC26E000EC06E0001D890CE313C0BA9
:10161800C26ECEC0D0F00001D03BF00ED017300E15
:101628000001D0170001CF510F0B0001D011C16E7E
:10163800D2C0D0F00001D890D0370001D890D03770
:10164800380E0001D017D2C0D1F00001D13B0F0EE7
:10165800D117070E0001D1170001D251800B0001EC
:10166800D1110001D011C06E0001CEAF03D09E9CF5
:101678009D8CF28CC280120000D0DBEC11F00009C6
:10168800D8A4FBD74EEC0FF0AA0E25EC0EF0310EC5
:1016980025EC0EF0D6C0D9FFD7C0DAFFDECFD8F0E0
:1016A800DDCFD9F0D9C0D8F00001D96BD8BFD9693E
:1016B8000001D85125EC0EF0D6C0D9FFD7C0DAFF0B
:1016C800DF5025EC0EF00D0E25EC0EF00A0E25EC81
:1016D8000EF000D0DBEC11F00009D8A4FBD74EECDB
:1016E80012F0120000D0DBEC11F00009D8A4FBD7EF
:1016F8004EEC0FF0AA0E25EC0EF0070E25EC0EF0BE
:10170800D6C0D9FFD7C0DAFFDECFD8F0DDCFD9F009
:10171800D9C0D8F00001D96BD8BFD9690001D85118
:1017280025EC0EF0D6C0D9FFD7C0DAFFDF5025EC84
:101738000EF00D0E25EC0EF00A0E25EC0EF000D082
:10174800DBEC11F00009D8A4FBD74EEC12F0120024
:1017580000D0DBEC11F00009D8A4FBD74EEC0FF059
:10176800AA0E25EC0EF0420E25EC0EF00001D75122
:1017780025EC0EF00001D65125EC0EF00001D951F0
:1017880025EC0EF00001D85125EC0EF00001DB51DC
:1017980025EC0EF00001DA5125EC0EF00D0E25ECCB
:1017A8000EF00A0E25EC0EF000D0DBEC11F000096B
:1017B800D8A4FBD74EEC12F0120000D0DBEC11F0ED
:1017C8000009D8A4FBD74EEC0FF0AA0E25EC0EF0BA
:1017D800410E25EC0EF00001D75125EC0EF000016A
:1017E800D65125EC0EF00001D95125EC0EF0000180
:1017F800D85125EC0EF00001DB5125EC0EF000016C
:10180800DA5125EC0EF00D0E25EC0EF00A0E25EC43
:101818000EF000D0DBEC11F00009D8A4FBD74EEC99
:1018280012F0120000D0DBEC11F00009D8A4FBD7AD
:101838004EEC0FF0AA0E25EC0EF0430E25EC0EF040
:101848000001D75125EC0EF00001D65125EC0EF021
:101858000001D95125EC0EF00001D85125EC0EF00D
:101868000001DB5125EC0EF00001DA5125EC0EF0F9
:101878000D0E25EC0EF00A0E25EC0EF000D0DBEC78
:1018880011F00009D8A4FBD74EEC12F01200000E9C
:101898000001D76F000ED66FDEEC0EF0E806D8A474
:1018A80017D0CC0E18EC10F0690E18EC10F00C0ED6
:1018B80018EC10F0FAEC0EF00001D76FD66BFAECCA
:1018C8000EF00001D36F0001D3510001D61300D0F0
:1018D800D6C0D3F0D7C0D4F0050E0001D56F0001F3
:1018E800D890D433D3330001D52FF9D7D3C0D1F052
:1018F800D4C0D2F000D0120000D0DBEC11F0000907
:10190800D8A4FBD74EEC0FF0AA0E25EC0EF0060E6D
:1019180025EC0EF0D6C0D9FFD7C0DAFFDECFD8F05D
:10192800DDCFD9F0D9C0D8F00001D96B0001D8516A
:1019380025EC0EF0D6C0D9FFD7C0DAFFDF5025EC72
:101948000EF00D0E25EC0EF00A0E25EC0EF000D070
:10195800DBEC11F00009D8A4FBD74EEC12F0120012
:10196800040EC1EC0EF0070E916E00D044EC0DF0A1
:101978000009D8B4FBD752EC11F000D0E3EC11F019
:10198800E806D8B4FBD7AE0E0001CE6F000E0001FA
:10199800CF6F9A0E0001D06F000E0001D16FC3EC1B
:1019A8000AF0A8C0BCF0A9C0BDF0A40E0001D46F15
:1019B800000E0001D56F67EC05F0D4C0BAF0D5C0B1
:1019C800BBF0120018EC12F0E806D8A40BD052ECC9
:1019D80012F0060AD8A41FD01BD022D01FD01BD0CB
:1019E8001FD01CD081B403D016D01AD017D081A430
:1019F80015D044EC12F000D049EC12F00001CF51A0
:101A080005E10A0E0001CE5DD8A0F6D781A403D067
:101A1800010E06D003D0000E03D000D0000E00D077
:101A28001200D0C0CEF0D1C0CFF02EEC10F00001E3
:101A3800D26F0001D2510001D46FD36B000E0001A8
:101A4800D3150001D56FFF0E0001D4150001D66F24
:101A5800010E0001D0250001CE6F000E0001D1213A
:101A68000001CF6F2EEC10F00001D26F0001D251AF
:101A78000001D513D5C0D0F0D6C0D1F000D01200E7
:101A880018EC12F0E806D8A40BD052EC12F0050AB4
:101A9800D8A41FD01BD022D01FD01BD01FD01CD041
:101AA80081B203D016D01AD017D081A215D044EC39
:101AB80012F000D049EC12F00001CF5105E10A0EF6
:101AC8000001CE5DD8A0F6D781A203D0010E06D0C2
:101AD80003D0000E03D000D0000E00D01200000E7C
:101AE800916E000E0001D26F040E0001D26501D084
:101AF8001FD0D2C0D0F00001D251010DF350000127
:101B0800CE25D96EF4500001CF21DA6EDF500001E6
:101B1800D16F0001D02B03D00001D890D13700013C
:101B2800D02FFAD70001D151911A0001D22BDCD75E
:101B380012001D50010D600EF324D96E000EF42022
:101B4800DA6EDF500001D56F1DC0D4F0010E000120
:101B5800D4270001D4510001CE6FCF6B000E0001D5
:101B6800D16F190ED06F10EC08F00001CE511D6E28
:101B78000001D55100D01200CEC0D0F0CFC0D1F0B6
:101B8800060ED8900001D037D137E82EFAD7D0C04A
:101B9800D2F0D1C0D3F0D3C074FFD2C0D0F00001CE
:101BA800D890D0330001D890D033300E0001D01730
:101BB8007350CF0B0001D011736E1200CEC0D0F05D
:101BC800CFC0D1F0060ED8900001D037D137E82E1B
:101BD800FAD7D0C0D2F0D1C0D3F0D3C071FFD2C0F1
:101BE800D0F00001D890D0330001D890D033300E17
:101BF8000001D0177050CF0B0001D011706E120089
:101C08000001D56F1F50010D600EF324D96E000E30
:101C1800F420DA6ED5C0DFFF1FC0D4F0010E00013A
:101C2800D4270001D4510001CE6FCF6B000E000104
:101C3800D16F190ED06F10EC08F00001CE511F6E55
:101C480012000001D56F2050010D790EF324D96ED2
:101C5800000EF420DA6ED5C0DFFF20C0D4F0010EEC
:101C68000001D4270001D4510001CE6FCF6B000EC4
:101C78000001D16F190ED06F10EC08F00001CE51A1
:101C8800206E1200040E0001CF5DD8B01AD001D02A
:101C980018D0CEC0A9FF0001CF51030BAA6ED0C047
:101CA800A8FFA69EA69CA684F29E550EA76EAA0E15
:101CB800A76EA68200D0A6B2FED7A694F28EA65032
:101CC80000D01200000E0001D06F000E0001D16F8D
:101CD800040E0001D16501D011D00001D151010DD0
:101CE800F3500001CE25D96EF4500001CF21DA6EF1
:101CF800DF500001D0270001D12BEAD70001D051D5
:101D080000D0120000D0DBEC11F00009D8A4FBD7FA
:101D18004EEC0FF0AA0E25EC0EF0110E25EC0EF08D
:101D2800D6C0D9FFD7C0DAFFDF5025EC0EF00D0E74
:101D380025EC0EF00A0E25EC0EF04EEC12F0120017
:101D48000001CE6F0001CE510001D8B40AD09096A0
:101D58009996040EE82EFED79986350EE82EFED702
:101D680009D090969996320EE82EFED79986080EDD
:101D7800E82EFED700F000D012000001D66F00D088
:101D8800DBEC11F00009D8A4FBD74EEC0FF0AA0E3B
:101D980025EC0EF0010E25EC0EF00001D65125ECD5
:101DA8000EF00D0E25EC0EF00A0E25EC0EF04EECA2
:101DB80012F01200000E0001CE6F90969996F00E68
:101DC80000D0E82EFDD79986380EE82EFED700D031
:101DD80090B604D0010E0001CE6F00D0FD0E00F0C9
:101DE800E82EFDD70001CE5100D01200000E0001F0
:101DF800CF6F000E0001D06F070E0001D06501D033
:101E08000DD00001D890CF33EAEC0FF00009D8B418
:101E180002D00001CF8F0001D02BEED70001CF51A7
:101E280000D012000001CE510001D003F3CFD2F050
:101E3800F4CFD3F00001CE510001D103F3500001DB
:101E4800D3270001CF510001D003F3500001D3275D
:101E5800D2C0CEF0D3C0CFF000D012001E50010D7A
:101E6800790EF324D96E000EF420DA6EDF50326E4C
:101E78001EC031F0010E312631502B6E2C6A000E37
:101E88002E6E190E2D6E42EC0AF02B501E6E32503B
:101E980000D01200000E0001CE6F180E0001CE65B2
:101EA80001D00ED00001CE51010D790EF324D96E68
:101EB800000EF420DA6E000EDF6E0001CE2BEDD797
:101EC800000E206E000E1E6E1200000E0001CE6F76
:101ED800180E0001CE6501D00ED00001CE51010DC3
:101EE800600EF324D96E000EF420DA6E000EDF6E59
:101EF8000001CE2BEDD7000E1F6E000E1D6E1200D6
:101F08000001CE6F0001CE517E0BCD6E0001CEAD2B
:101F180002D0CD8E02D0CD9E00D0000ECF6E000E26
:101F2800CE6E9E900001CEAF02D09D8001D09D90D4
:101F3800CD801200F09ACDB00AD0CD80000E456E4B
:101F4800000E446EB8EC11F0F196F08A0BD0CD90EB
:101F5800C1EC11F044C00BF045C00CF0010E1C6E32
:101F6800F09A00D0F0941200D1C0CEF0D2C0CFF0D9
:101F78000001D4510001D06F46EC0EF0010E0001B3
:101F8800D1250001CE6F000E0001D2210001CF6FD4
:101F9800D3C0D0F046EC0EF012000001CE6F000165
:101FA800CE51360BB16E000EB36E000EB26EA1921A
:101FB8000001CEAF02D0A08201D0A0920001CEA134
:101FC80002D0B18E01D0B19EB18012009096999640
:101FD800040EE82EFED79986080EE82EFED700F0EC
:101FE800000E87B6010E0001CE6F2D0EE82EFED72B
:101FF80000D00001CE51010B00D01200DEEC0EF033
:10200800E806D8A410D0CC0E18EC10F06C0E18EC22
:1020180010F0100E18EC10F0000E18EC10F0000E76
:1020280018EC10F000D012000001CF6F000E000174
:10203800D06F070E0001D06501D00BD00001CF5141
:10204800010BA4EC0EF00001D890CF330001D02B87
:10205800F0D71200040E0001CF5DD8A002D0000E08
:102068000ED0CEC0A9FF0001CF51030BAA6EA69EC9
:10207800A69CA68000D0A6B0FED7A85000D012001B
:10208800000E916E1F0E916E4B0EFDEC10F0000EBF
:10209800916E4B0EFDEC10F01F0E916E4B0EFDEC89
:1020A80010F0000E916E1200D2C0E6F0D3C0E7F037
:1020B800D4C0E8F0D5C0E9F0D6C0EAF0D7C0EBF05C
:1020C800000E0001CF6F000ECE6FA6EC11F01200CB
:1020D800F28EF28CD08EF09AF094F186F182F28A28
:1020E800F294F1849D9C9E9C9F9C9D9A9D989E9A9B
:1020F8009E989F9A9F981200F20E1B16ABAC05D0C3
:102108001B90ABA002D01B8000D0ABB41B84ABB239
:102118001B86AECFCEF00001CE5100D012000001D8
:10212800CE6F0001CE517F0BD56E000ED76E000E1C
:10213800D66EF2940001CEAF02D0F28A01D0F29AA4
:10214800D58E12000001CE6F0C0E706EB1ACB1B618
:1021580005D0CA94CEC0CBFFCA8405D07694CEC031
:1021680077FF768400D0989812000001CE6F0C0E8D
:10217800736E9896B1ACB1B605D0CA94CEC0CBFFF9
:10218800CA8405D07694CEC077FF768400D012003A
:1021980032EC0FF0196E0A0E1918D8A407D019508E
:1021A8007EEC11F0010E1A6E9D9804D019507EEC49
:1021B80011F000D0120000EE60F05E0EEE6AE80644
:1021C800FDE100EE01F02A0EEE6AE806FDE10001ED
:1021D80078EF00F0020E0001D56F0E0ED46F03ECFD
:1021E80012F0020E0001D56F0E0ED46F0AEC12F039
:1021F80012000001CF6F0D0E0001CE6FFC0EE82E0D
:10220800FED7CE2FFCD70001CF2FF5D700D0120074
:102218000001CF6FC2CFCEF0C30E0001CE17000170
:10222800D890CF313C0B0001CE11C26E1200000EC7
:102238000001CF6F400ECE6F3C0EFFEC09F04EEC64
:102248000FF069EC0FF0010E1A6E1200F60E456ED3
:102258003C0E446ECAEC11F00D4A0E2A0F4A102AA1
:10226800114A122A134A142A1200926893689F0E80
:10227800946EE00E956E000E966EE70E986E000E48
:102288009A6E1200150E84EC0FF0CD90000E00012E
:10229800CF6F000ECE6FA6EC11F01200000E236E69
:1022A800000E226E23505EEC06F067EC12F09D8C57
:1022B80012008D8A190EEBEC11F08D9AF186F094CC
:1022C800F08A000E1C6E12009F0E93EC10F0F60EB2
:1022D8000001CF6F3C0ECE6FAFEC11F012002C6EE8
:1022E800C2CF2BF0C30E2B16D8902C303C0B2B10E2
:1022F800C26E12002B6EACAC05D0AC901BA202D003
:10230800AC8000D02BC0ADFF1200C4500001D06FCC
:10231800C3500001CE6FD0C0CFF000D01200040E21
:102328000001CE6F090E0001CF6F950E02EC0BF085
:102338001200D1C0CEF0D2C0CFF0D3C0D0F046EC5E
:102348000EF01200CEC0D0F0CFC0D1F0D1C0CFFF78
:10235800D0C0CEFF1200CEC0D0F0CFC0D1F0D1C0D7
:10236800D7FFD0C0D6FF120044C0BEF045C0BFF0B2
:10237800BFC0CFFFBEC0CEFF1200CECFBEF0CFCFC2
:10238800BFF0BEC044F0BFC045F0120044C0BEF06C
:1023980045C0BFF0BFC0D7FFBEC0D6FF1200D0C037
:1023A800CEF0D1C0CFF02EEC10F000D012001A50B1
:1023B800D8A402D0010E02D0000E00D01200225084
:1023C800D8A402D0010E02D0000E00D012000001E5
:1023D800CE6F00F00001CE2FFCD700D012001C50A9
:1023E800D8A402D0010E02D0000E00D01200C450B2
:1023F8002D6EC3502B6E2DC02CF000D01200D4C00F
:10240800CEF0D5C0CFF0C0EC0DF01200D4C0CEF0A5
:10241800D5C0CFF0E2EC0DF01200C2A202D0010E3E
:1024280002D0000E00D012009EAA02D0010E02D0E7
:10243800000E00D01200820EB9EC10F0820EA6EC4D
:1024480010F01200000E146E000E136E1200000E33
:10245800106E000E0F6E1200000E0E6E000E0D6E46
:1024680012000FC0CEF010C0CFF012000DC0CEF099
:102478000EC0CFF012000BC0CEF00CC0CFF012008F
:10248800000E126E000E116E120011C0CEF012C0B6
:10249800CFF01200000E1A6E9D88120080EC10F02A
:1024A80000D01200040ED1EC0FF012008C908C9426
:1024B80012008C868C8212001F0E8D6E12008C9674
:1024C80012008C821200C28212008C8812008C9832
:0624D8001200C282120096
:020000040020DA
:08000000FFFFFFFFFFFFFFFF00
:020000040030CA
:0E000000FF02011EF38180FFFFC0FFE0FF4002
:00000001FF
